:020000040000fa
:04005c00ae030000ef
:020000040000fa
:04001000ae0300003b
:020000040000fa
:04025c00ae030000ed
:020000040000fa
:04021000ae03000039
:020000040000fa
:0402b400ae03000095
:020000040000fa
:0402b000ae03000099
:020000040000fa
:04034000ae03000008
:020000040000fa
:04027000ae030000d9
:020000040000fa
:04027400ae030000d5
:020000040000fa
:04033400ae03000014
:020000040000fa
:04036400ae030000e4
:020000040000fa
:04036000ae030000e8
:020000040000fa
:04023800ae03000011
:020000040000fa
:04026000ae030000e9
:020000040000fa
:04028800ae030000c1
:020000040000fa
:0402b800ae03000091
:020000040000fa
:0402e000ae03000069
:020000040000fa
:04031c00ae0300002c
:020000040000fa
:04033800ae03000010
:020000040000fa
:04033c00ae0300000c
:020000040000fa
:04021c00ae0300002d
:020000040000fa
:04032400ae03000024
:020000040000fa
:04035000ae030000f8
:020000040000fa
:04022c00ae0300001d
:020000040000fa
:04023c00ae0300000d
:020000040000fa
:04028000ae030000c9
:020000040000fa
:04028400ae030000c5
:020000040000fa
:04022800ae03000021
:020000040000fa
:04027800ae030000d1
:020000040000fa
:04029c00ae030000ad
:020000040000fa
:04026400ae030000e5
:020000040000fa
:04027c00ae030000cd
:020000040000fa
:0402bc00ae0300008d
:020000040000fa
:0402c000ae03000089
:020000040000fa
:0402c400ae03000085
:020000040000fa
:0402c800ae03000081
:020000040000fa
:0402cc00ae0300007d
:020000040000fa
:0402d000ae03000079
:020000040000fa
:0402d400ae03000075
:020000040000fa
:0402d800ae03000071
:020000040000fa
:0402e400ae03000065
:020000040000fa
:0402e800ae03000061
:020000040000fa
:0402ec00ae0300005d
:020000040000fa
:0402f000ae03000059
:020000040000fa
:0402f400ae03000055
:020000040000fa
:0402f800ae03000051
:020000040000fa
:0402fc00ae0300004d
:020000040000fa
:04030000ae03000048
:020000040000fa
:04030400ae03000044
:020000040000fa
:04030800ae03000040
:020000040000fa
:04031400ae03000034
:020000040000fa
:04031800ae03000030
:020000040000fa
:04032800ae03000020
:020000040000fa
:04034400ae03000004
:020000040000fa
:04034800ae03000000
:020000040000fa
:04035800ae030000f0
:020000040000fa
:04035c00ae030000ec
:020000040000fa
:04026c00ae030000dd
:020000040000fa
:04030c00ae0300003c
:020000040000fa
:04034c00ae030000fc
:020000040000fa
:04021800ae03000031
:020000040000fa
:04023000ae03000019
:020000040000fa
:04024000ae03000009
:020000040000fa
:04028c00ae030000bd
:020000040000fa
:04029000ae030000b9
:020000040000fa
:04020c00ae0300003d
:020000040000fa
:0402dc00ae0300006d
:020000040000fa
:04031000ae03000038
:020000040000fa
:04035400ae030000f4
:020000040000fa
:04032000ae03000028
:020000040000fa
:04020800ae03000041
:020000040000fa
:04022000ae03000029
:020000040000fa
:04022400ae03000025
:020000040000fa
:04026800ae030000e1
:020000040000fa
:04024c00ae030000fd
:020000040000fa
:04025000ae030000f9
:020000040000fa
:0402a800ae030000a1
:020000040000fa
:0402ac00ae0300009d
:020000040000fa
:04021400ae03000035
:020000040000fa
:04023400ae03000015
:020000040000fa
:04024400ae03000005
:020000040000fa
:04024800ae03000001
:020000040000fa
:04029400ae030000b5
:020000040000fa
:04029800ae030000b1
:020000040000fa
:04032c00ae0300001c
:020000040000fa
:04025400ae030000f5
:020000040000fa
:04025800ae030000f1
:020000040000fa
:04033000ae03000018
:020000040000fa
:0402a000ae030000a9
:020000040000fa
:0402a400ae030000a5
:020000040000fa
:0400b400ae03000097
:020000040000fa
:0400b000ae0300009b
:020000040000fa
:04014000ae0300000a
:020000040000fa
:04007000ae030000db
:020000040000fa
:04007400ae030000d7
:020000040000fa
:04013400ae03000016
:020000040000fa
:04016400ae030000e6
:020000040000fa
:04016000ae030000ea
:020000040000fa
:04003800ae03000013
:020000040000fa
:04006000ae030000eb
:020000040000fa
:04008800ae030000c3
:020000040000fa
:0400b800ae03000093
:020000040000fa
:0400e000ae0300006b
:020000040000fa
:04011c00ae0300002e
:020000040000fa
:04013800ae03000012
:020000040000fa
:04013c00ae0300000e
:020000040000fa
:04001c00ae0300002f
:020000040000fa
:04012400ae03000026
:020000040000fa
:04015000ae030000fa
:020000040000fa
:04002c00ae0300001f
:020000040000fa
:04003c00ae0300000f
:020000040000fa
:04008000ae030000cb
:020000040000fa
:04008400ae030000c7
:020000040000fa
:04002800ae03000023
:020000040000fa
:04007800ae030000d3
:020000040000fa
:04009c00ae030000af
:020000040000fa
:04006400ae030000e7
:020000040000fa
:04007c00ae030000cf
:020000040000fa
:0400bc00ae0300008f
:020000040000fa
:0400c000ae0300008b
:020000040000fa
:0400c400ae03000087
:020000040000fa
:0400c800ae03000083
:020000040000fa
:0400cc00ae0300007f
:020000040000fa
:0400d000ae0300007b
:020000040000fa
:0400d400ae03000077
:020000040000fa
:0400d800ae03000073
:020000040000fa
:0400e400ae03000067
:020000040000fa
:0400e800ae03000063
:020000040000fa
:0400ec00ae0300005f
:020000040000fa
:0400f000ae0300005b
:020000040000fa
:0400f400ae03000057
:020000040000fa
:0400f800ae03000053
:020000040000fa
:0400fc00ae0300004f
:020000040000fa
:04010000ae0300004a
:020000040000fa
:04010400ae03000046
:020000040000fa
:04010800ae03000042
:020000040000fa
:04011400ae03000036
:020000040000fa
:04011800ae03000032
:020000040000fa
:04012800ae03000022
:020000040000fa
:04014400ae03000006
:020000040000fa
:04014800ae03000002
:020000040000fa
:04015800ae030000f2
:020000040000fa
:04015c00ae030000ee
:020000040000fa
:04006c00ae030000df
:020000040000fa
:04010c00ae0300003e
:020000040000fa
:04014c00ae030000fe
:020000040000fa
:04001800ae03000033
:020000040000fa
:04003000ae0300001b
:020000040000fa
:04004000ae0300000b
:020000040000fa
:04008c00ae030000bf
:020000040000fa
:04009000ae030000bb
:020000040000fa
:04000c00ae0300003f
:020000040000fa
:0400dc00ae0300006f
:020000040000fa
:04011000ae0300003a
:020000040000fa
:04015400ae030000f6
:020000040000fa
:04012000ae0300002a
:020000040000fa
:04000800ae03000043
:020000040000fa
:04002000ae0300002b
:020000040000fa
:04002400ae03000027
:020000040000fa
:04006800ae030000e3
:020000040000fa
:04004c00ae030000ff
:020000040000fa
:04005000ae030000fb
:020000040000fa
:0400a800ae030000a3
:020000040000fa
:0400ac00ae0300009f
:020000040000fa
:04001400ae03000037
:020000040000fa
:04004400ae03000007
:020000040000fa
:04004800ae03000003
:020000040000fa
:04009400ae030000b7
:020000040000fa
:04009800ae030000b3
:020000040000fa
:04012c00ae0300001e
:020000040000fa
:04013000ae0300001a
:020000040000fa
:0400a000ae030000ab
:020000040000fa
:0400a400ae030000a7
:020000040000fa
:080000000002040000000000f2
:020000040000fa
:100400006f0321000e7f24000e0188000000000011
:10041000000020000000e000020032000001200087
:100420002002880014000700ce0007000000e00052
:1004300003003a00609c2000010020000200370009
:100440000000200001002000810f70000100320038
:1004500014000700000020000000e000020032004d
:1004600000000200000000002e0902000000000051
:100470000040da000000fe004440a90020002000f7
:100480000000e0000300320000002000a00188000e
:100490004440a800000006008a1f78008b1f7800e7
:1004a0000000060091018800800478000000eb0045
:1004b0001a003700e284440032a0b4009905ba0063
:1004c000e284440032a0b4009906ba00e2844400f9
:1004d00032a0b4000006eb00476fde00fd07b2005b
:1004e000636ce10003003a00ebff07000000eb0043
:1004f0000a003700606ce10004003a00005deb0088
:100500008b05e900fdff3e00040037006168e10053
:10051000010032000086eb000b00070019c7ba008b
:100520001905ba000e04e00003003a000a00e000da
:10053000e0ff3a0000000600fe07b2009e018800be
:100540008a047800f5ff3700395dba008b05e900b1
:100550000c003200295dba008b05e900080032006a
:100560000c00e00003003a00e284440032a0b40032
:10057000f5ff370019ddba008b05e900faff3a00f4
:100580008904e800e184440032a0b40000000600c1
:100590003600f800809fbe00829fbe00849fbe0090
:1005a000869fbe003400f80000002000a0018800f3
:1005b0008460a900d04080000000e00004003a0000
:1005c0001c28a80010002000d0408800060037003a
:1005d0000000e800d040880041062000810f500054
:1005e00001003a001a28ef001e0207008460ab00e9
:1005f0000e003a0042a0a80042c0a9001e28ab008d
:100600000a003a001c28ab00060032001e28a80091
:100610001c28a900140207001c28ab00fcff3a00ac
:100620001e28a90042c0a80042a0a9003400f90079
:100630004f03be004f02be004f01be004f00be0080
:100640003600f9000040060000a0fe00849fbe00b6
:10065000861f7800306180002322ab0011003a0031
:1006600021618000810f50000e0032004482200082
:10067000f33f20000220200045c22000e440780023
:100680008180fb00211188000000e8000300600069
:10069000161180008600610002003a00950f1000dc
:1006a000f6ff3a00306188008580a9004f0378008a
:1006b0004f02be000080fe0000400600809fbe008a
:1006c000829fbe00849fbe004181800050818000d7
:1006d0008560a9002202ab0010003a001800370024
:1006e0000100e000090032008100e90010017800fb
:1006f00033118000837279001001e8000408610062
:100700002202ab00f6ff3a000d00370030118000e6
:100710002202ab00fdff3a00090037008080500044
:100720008180ea00f13fb200f8ff32008100e90069
:100730008002210085c22000f43f2000ebff37003b
:100740002222ab00010032002222a9004f02be008b
:100750004f01be004f00be00004006000040da001e
:100760000000fe00000005001400200072013700a8
:100770000001be009c0007000470a70003f0a10068
:1007800003f8a30013003a006509b100100032001d
:10079000090035006928e100020035000100280049
:1007a0000000050000004000818048008502e9004b
:1007b000fcff3a0000000600f88f420005003500fb
:1007c0008100d1000080d3008502e800fcff3a00e0
:1007d000000006008000eb00000005006011b8007a
:1007e000700137000001eb002c010700040032000b
:1007f0000200200003f8230001f0a700c900070051
:10080000000006000400200000003700889fbe00a2
:100810008a9fbe008c1f78004f26dd0087000700ee
:100820008e0033006120e100430032006250e1009d
:1008300041003e003e0039006420e1003c003200ef
:10084000058255000f003b000402e80038003a0022
:10085000800f5300818f5b00350034000800be001c
:1008600003f0a10001f0a60003f0a0000cf0a70027
:10087000ad000700820037000603430087834b006a
:100880000c4646000005530081855b0002003300e2
:100890000a03be000c00a0000402e900f6ff3b00c2
:1008a000850578000602430087824b0004003a0069
:1008b0006000b80009f0a70001f0a0007000370048
:1008c0000002520081825a000704e0000400330055
:1008d0000603430087834b008b05e900faff3700ce
:1008e000090578000604be000203be006011b800ce
:1008f00017000700e00f5200e08f5a000700350094
:1009000002003c000c08a300040032000601be00f7
:1009100003f0a0000cf0a700830007000a85680020
:1009200001f0a1000af0a70001f0a0005400370078
:100930000800be0052003700100220000cf0a60094
:10094000104188005200370004002000fa003700f0
:1009500081002000618055000b003d000b0020004d
:1009600061fe2f000100e1001d0034008281710052
:10097000610164008904d1000884d3000000e8000c
:10098000faff3a007100200061006400030070006b
:10099000020060000900320061044400e0844c0061
:1009a0000988a500050032008b05e8006808e10011
:1009b00002003a008904d1000884d300f20f20001d
:1009c0000258e10005003d00c75ddd00f907b200f7
:1009d0008980750008007800000006000bf82700e9
:1009e0008b00780000000500c70ade00f107b200a6
:1009f000f50fb20008003200e1cf420002003200e1
:100a00000170a00024000500810f70000100320079
:100a10000408050044000500810f700002003a0040
:100a2000140005008502e9000000400081c0480074
:100a3000fcff3b000170a000240005000004be0084
:100a4000e9ff07000003be000405be000200be006f
:100a5000e5ff0700844f7500000006000200be009d
:100a60006450e100050036006420e1000200360019
:100a70000968a30001003a000800be000160a00060
:100a80004f0678004f05be004f04be000000060070
:100a9000f0ff2f00f1ff2700f9ff37000003be0031
:100aa000d1ff07006220e100020032000600be0014
:100ab0000000060085024100e30f20000328e1004a
:100ac00005003c00a3fe2f000328e10007003d00c5
:100ad0000500200001003700f50f20002002200053
:100ae000104188006000b8000800370013002000a3
:100af0008381520005003d008100d1000080d300b9
:100b00008301e800fcff3a0005002000c72add0051
:100b1000f107b2008580700007f0a70001f0a00087
:100b20000000060003f0a200889fbe008a9fbe005e
:100b30008c1f7800c1ff0700c8ff33006450e1003c
:100b40004f0032006420e1005200320003826c004a
:100b500007003b000905d0000306d000820f5400b7
:100b60000c065d00020039000200320089017800a5
:100b7000030678008582550004003d000003fd0057
:100b80008103fd008502ea008b854200840f72001c
:100b900002003b0060001000e08018006011b80007
:100ba0000005eb007a28e1000a0039000600780011
:100bb000c75ddd00f707b200878075002d003700a4
:100bc000828171000a017800610560008180d10096
:100bd0000080d3008502e900f9ff3b0006044000d5
:100be0008784480002003b0060041400e0841c007d
:100bf0000988a300070032008a8171008281710098
:100c0000610164008904d1000884d3008b05e800e9
:100c1000170037000978a30013003a000b00e0002a
:100c2000130034008b05e9000804440089844c005b
:100c30000a4474000978a3000d003a000b00e0009c
:100c4000070034008b05e9000804440089844c0047
:100c500001003a000b0020000978a300f7ff3200e2
:100c60000001eb0002003700828171000a01780068
:100c700037ff07000cf0a70001f0a00080ff37004d
:100c80006420e10002003a00838f6c0080ff330093
:100c90000801be000200be0079ff3700889fbe0039
:100ca0008a9fbe000003be004fff07008505780045
:100cb00082815200020020006220e10004003a001c
:100cc000f307b100040035007718e1000400350097
:100cd0000600be00140037006000b8000f003700a7
:100ce000f50f2000faff2f008502d1000a85d300fe
:100cf0008301e900fcff3b00818462000004650081
:100d0000890f7400f2ff32008582ea000a85ea004a
:100d100081846200000465000dff070007f0a70052
:100d200001f0a0000081eb000200e0004f05be00d2
:100d30004f04be0000000600889fbe008a9fbe00d0
:100d4000841f78003dff07004f007800110033003a
:100d5000f0ff2f00838f6c0006003b000405650048
:100d60000a00a7000800370009f0a60010002000c4
:100d700008003700820f5400838f5c0003003900a5
:100d80001000200001003e000000200009f0a70034
:100d90000000ea004f05be004f04be000000e00066
:100da00000000600889fbe008a9fbe00008270007f
:100db0000402710004827100260032000004be00ab
:100dc0000200be006011b8006b09200095022000ef
:100dd0000182cf000a0039000541b1000082cf0036
:100de000070039000541b1000982cf000400390035
:100df0000541b1000882cf00010039000541b10072
:100e000005425200120032000a003b00828171004c
:100e1000610164008100d1000080d3008984d30087
:100e20000884d3008b05e8000442e800f7ff3a008d
:100e3000070037000804440089844c000000480083
:100e4000818048008b05e9000442e900f9ff3a007f
:100e5000bffe07004f05be004f04be0000000600a5
:020000040000fa
:0200000401f009
:04001c00dfff000002
:020000040000fa
:0200000401f009
:040014005f00000089
:020000040000fa
:0200000401f009
:04001000620000008a
:020000040000fa
:0200000401f009
:04000c00820000006e
:020000040000fa
:04003400c8020000fe
:020000040000fa
:04005800240300007d
:020000040000fa
:040054005e03000047
:020000040000fa
:040e6000321000004c
:020000040000fa
:100e640000000600889fbe002202ab002000320072
:100e74009560a90041818000508180002202ab006e
:100e840010003a00180037000100e00009003200a9
:100e94008100e90010017800331180008372790029
:100ea4001001e800040861002202ab00f6ff3a00da
:100eb4000d003700301180002202ab00fdff3a0024
:100ec40009003700808050008180ea00f13fb200c1
:100ed400f8ff32008100e9008002210085c2200071
:100ee400f43f2000ebff37008560a9009560a8005f
:100ef4004181800050818000808f50000c003200be
:100f040081c22000e14078000203210001497800f9
:100f14000000e800f33f2000a20221000309600062
:100f24000141780000822000024878000700370061
:100f340000032100038220009341780003487800d5
:100f44002222ab00010032002222a900000321006a
:100f5400104478000880fb008000eb001efe0700b0
:100f64006081880071818800610464000804440081
:100f7400d2ff2f00261680000601610002017400d2
:100f840022168800cc02ab00010032006000b800d9
:100f9400c2ff2f00c0fe070011fe07000004be00c0
:100fa400990007000004e0003c003a000800be007d
:100fb4006d0007000004e00038003a000200200041
:100fc400033824000800be000dfe07000004be0024
:100fd4006011b8000000be00e2fd07000000e00060
:100fe40005003d000800be0001f0a200dffd07007f
:100ff4000040ea00020037000800be00dbfd0700e5
:10100400110321008048780041c2200011017800ba
:101014000181e80092017800910178004482200067
:1010240000f279008301e800f33fb20083087800fe
:101034009580a9008580a900120078002322ab00c6
:1010440010003a0021618000808f50000d003200b2
:10105400f33f20000220200045c22000e440780035
:101064008180fb00211188000000e800030060007b
:10107400161180008600610002003a00950f1000ee
:10108400f6ff3a003061880021618000808f5000b3
:10109400040032009580a800020037006044b800c4
:1010a400d5ff37004f04be000000060040002000ba
:1010b4001a000700c0022100020009000018eb001a
:1010c400600520004011880080002800001188007d
:1010d400004c2800101188000000eb0030618800eb
:1010e4002061880081ff2f0052058000828060000b
:1010f4005100b300510588008580a9009580a8009f
:10110400508188004081880000002700a820b70093
:101114008560a9009560a80000000600ba000700d9
:101124004040880051408800b4000700a040880077
:10113400b1408800aa0007000040880011408800e0
:10114400a40007006040880071408800a9000700df
:101154002040880031408800a300070080408800b8
:101164009140880000000600889fbe008a1f780016
:101174000004be00024080001340800079fd070097
:101184001ac0b3000000e0000700320022408000d3
:10119400334080000800be0072fd07000000e0003c
:1011a400010032000045eb000a4078004f0578004a
:1011b4004f04be0000000600889fbe008a1f78000e
:1011c4000004be00624080007340800065fd07009b
:1011d4001ac0b3000000e000070032008240800023
:1011e400934080000800be005efd07000000e000a0
:1011f400010032000045eb000a4078004f057800fa
:101204004f04be0000000600881f780018c0b30019
:101214000001be00cbfd07000000e00001003a0021
:101224000044eb00084078004f04780000000600fa
:10123400881f780018c0b3000001be00c1fd07007c
:101244000000e00001003a000044eb000840780090
:101254004f047800000006004387ab0016003200fc
:1012640043c7ab0014003a00a10920000001eb00c1
:101274008007200033742000804978008149780079
:1012840082497800710520001200200060042000cb
:1012940023742000804978008149780082497800cd
:1012a400000000000000000000002700123a800047
:1012b40082006000fdff3a00e0062000303a88001a
:1012c40050002000203a8800a109200032002000ac
:1012d4008007200033742000804978008149780019
:1012e400824978007105200012002000600420006b
:1012f400237420008049780081497800824978006d
:101304002000200060198800a000200020358800fb
:101314000030200050368800d0ff2f0000168800cf
:10132400f07f2f00401688000100270000002300f2
:10133400133a800003816000800f5100fcff3a00e3
:1013440000022000123a800082006000fdff32009b
:1013540056ff07000421ef00f0ff2800a400b600a8
:1013640000d0a000200588008460a9009460a80033
:10137400f0c32900100888000000e9000008880074
:0813840005e1a800ffff37009e
:020000040000fa
:10138c0018080000080000000000000024080000fd
:10139c000808000000000000000800001800000011
:1013ac00000000002c1000000a00000000000000eb
:1013bc0020080000020000000000000022080000cd
:0c13cc0002000000000000000000000013
:020000040000fa
:1013d8000000200001f8270000000600fcff0700bd
:1013e800000006000000200001f82f0000000600a1
:1013f800fcff0700000006000000200001fc2f0091
:0c14080000000600fcff070000000600ca
:00000001FF
