:020000040000fa
:040010007603000073
:020000040000fa
:04025c007603000025
:020000040000fa
:040210007603000071
:020000040000fa
:04027400760300000d
:020000040000fa
:04032400760300005c
:020000040000fa
:040350007603000030
:020000040000fa
:04022c007603000055
:020000040000fa
:04023c007603000045
:020000040000fa
:040280007603000001
:020000040000fa
:0402840076030000fd
:020000040000fa
:040228007603000059
:020000040000fa
:040278007603000009
:020000040000fa
:04029c0076030000e5
:020000040000fa
:040260007603000021
:020000040000fa
:04026400760300001d
:020000040000fa
:040270007603000011
:020000040000fa
:04027c007603000005
:020000040000fa
:0402880076030000f9
:020000040000fa
:04028c0076030000f5
:020000040000fa
:0402900076030000f1
:020000040000fa
:0402940076030000ed
:020000040000fa
:0402980076030000e9
:020000040000fa
:0402a00076030000e1
:020000040000fa
:0402a40076030000dd
:020000040000fa
:0402a80076030000d9
:020000040000fa
:0402ac0076030000d5
:020000040000fa
:0402b00076030000d1
:020000040000fa
:0402b40076030000cd
:020000040000fa
:0402b80076030000c9
:020000040000fa
:0402bc0076030000c5
:020000040000fa
:0402c00076030000c1
:020000040000fa
:0402c40076030000bd
:020000040000fa
:040238007603000049
:020000040000fa
:0402c80076030000b9
:020000040000fa
:0402cc0076030000b5
:020000040000fa
:0402d00076030000b1
:020000040000fa
:0402d40076030000ad
:020000040000fa
:0402d80076030000a9
:020000040000fa
:0402dc0076030000a5
:020000040000fa
:0402e00076030000a1
:020000040000fa
:0402e400760300009d
:020000040000fa
:0402e8007603000099
:020000040000fa
:0402ec007603000095
:020000040000fa
:0402f0007603000091
:020000040000fa
:0402f400760300008d
:020000040000fa
:0402f8007603000089
:020000040000fa
:0402fc007603000085
:020000040000fa
:040300007603000080
:020000040000fa
:04030400760300007c
:020000040000fa
:040308007603000078
:020000040000fa
:04031400760300006c
:020000040000fa
:040318007603000068
:020000040000fa
:04031c007603000064
:020000040000fa
:040320007603000060
:020000040000fa
:040328007603000058
:020000040000fa
:040330007603000050
:020000040000fa
:04033400760300004c
:020000040000fa
:040338007603000048
:020000040000fa
:04033c007603000044
:020000040000fa
:040340007603000040
:020000040000fa
:04034400760300003c
:020000040000fa
:040348007603000038
:020000040000fa
:04026c007603000015
:020000040000fa
:04030c007603000074
:020000040000fa
:04034c007603000034
:020000040000fa
:040218007603000069
:020000040000fa
:040230007603000051
:020000040000fa
:040240007603000041
:020000040000fa
:04020c007603000075
:020000040000fa
:040310007603000070
:020000040000fa
:040208007603000079
:020000040000fa
:04021c007603000065
:020000040000fa
:040220007603000061
:020000040000fa
:04022400760300005d
:020000040000fa
:040268007603000019
:020000040000fa
:04024c007603000035
:020000040000fa
:040250007603000031
:020000040000fa
:04021400760300006d
:020000040000fa
:04023400760300004d
:020000040000fa
:04024400760300003d
:020000040000fa
:040248007603000039
:020000040000fa
:04032c007603000054
:020000040000fa
:04025400760300002d
:020000040000fa
:040258007603000029
:020000040000fa
:04007400760300000f
:020000040000fa
:04012400760300005e
:020000040000fa
:040150007603000032
:020000040000fa
:04002c007603000057
:020000040000fa
:04003c007603000047
:020000040000fa
:040080007603000003
:020000040000fa
:0400840076030000ff
:020000040000fa
:04002800760300005b
:020000040000fa
:04007800760300000b
:020000040000fa
:04009c0076030000e7
:020000040000fa
:040060007603000023
:020000040000fa
:04006400760300001f
:020000040000fa
:040070007603000013
:020000040000fa
:04007c007603000007
:020000040000fa
:0400880076030000fb
:020000040000fa
:04008c0076030000f7
:020000040000fa
:0400900076030000f3
:020000040000fa
:0400940076030000ef
:020000040000fa
:0400980076030000eb
:020000040000fa
:0400a00076030000e3
:020000040000fa
:0400a40076030000df
:020000040000fa
:0400a80076030000db
:020000040000fa
:0400ac0076030000d7
:020000040000fa
:0400b00076030000d3
:020000040000fa
:0400b40076030000cf
:020000040000fa
:0400b80076030000cb
:020000040000fa
:0400bc0076030000c7
:020000040000fa
:0400c00076030000c3
:020000040000fa
:0400c40076030000bf
:020000040000fa
:04003800760300004b
:020000040000fa
:0400c80076030000bb
:020000040000fa
:0400cc0076030000b7
:020000040000fa
:0400d00076030000b3
:020000040000fa
:0400d40076030000af
:020000040000fa
:0400d80076030000ab
:020000040000fa
:0400dc0076030000a7
:020000040000fa
:0400e00076030000a3
:020000040000fa
:0400e400760300009f
:020000040000fa
:0400e800760300009b
:020000040000fa
:0400ec007603000097
:020000040000fa
:0400f0007603000093
:020000040000fa
:0400f400760300008f
:020000040000fa
:0400f800760300008b
:020000040000fa
:0400fc007603000087
:020000040000fa
:040100007603000082
:020000040000fa
:04010400760300007e
:020000040000fa
:04010800760300007a
:020000040000fa
:04011400760300006e
:020000040000fa
:04011800760300006a
:020000040000fa
:04011c007603000066
:020000040000fa
:040120007603000062
:020000040000fa
:04012800760300005a
:020000040000fa
:040130007603000052
:020000040000fa
:04013400760300004e
:020000040000fa
:04013800760300004a
:020000040000fa
:04013c007603000046
:020000040000fa
:040140007603000042
:020000040000fa
:04014400760300003e
:020000040000fa
:04014800760300003a
:020000040000fa
:04006c007603000017
:020000040000fa
:04010c007603000076
:020000040000fa
:04014c007603000036
:020000040000fa
:04001800760300006b
:020000040000fa
:040030007603000053
:020000040000fa
:040040007603000043
:020000040000fa
:04000c007603000077
:020000040000fa
:040110007603000072
:020000040000fa
:04000800760300007b
:020000040000fa
:04001c007603000067
:020000040000fa
:040020007603000063
:020000040000fa
:04002400760300005f
:020000040000fa
:04006800760300001b
:020000040000fa
:04004c007603000037
:020000040000fa
:040050007603000033
:020000040000fa
:04001400760300006f
:020000040000fa
:04003400760300004f
:020000040000fa
:04004400760300003f
:020000040000fa
:04012c007603000056
:020000040000fa
:080000000002040000000000f2
:020000040000fa
:100400006fbc20000eff20000e01880000000000dd
:10041000000020000000e000020032000001200087
:100420002002880014000700b20007000000e0006e
:1004300003003a00e0cb200001002000020037005a
:100440000000200001002000810f70000100320038
:1004500014000700000020000000e000020032004d
:100460000000020000000000220c0200000000005a
:100470000040da000000fe004440a90040192000be
:100480000000e0000300320000002000a00188000e
:100490004440a800000006008a1f78008b1f7800e7
:1004a0000000060091018800800478000000eb0045
:1004b0001a003700e284440032a0b4009905ba0063
:1004c000e284440032a0b4009906ba00e2844400f9
:1004d00032a0b4000006eb00476fde00fd07b2005b
:1004e000636ce10003003a00ebff07000000eb0043
:1004f0000a003700606ce10004003a00005deb0088
:100500008b05e900fdff3e00040037006168e10053
:10051000010032000086eb000b00070019c7ba008b
:100520001905ba000e04e00003003a000a00e000da
:10053000e0ff3a0000000600fe07b2009e018800be
:100540008a047800f5ff3700395dba008b05e900b1
:100550000c003200295dba008b05e900080032006a
:100560000c00e00003003a00e284440032a0b40032
:10057000f5ff370019ddba008b05e900faff3a00f4
:100580008904e800e184440032a0b40000000600c1
:10059000801f78003400f80000002000a0018800cf
:1005a000404e2800001988008500a9003400f90099
:1005b0004f007800004006003400f800881f7800e3
:1005c00008002000a80188004f0478000003f8000c
:1005d000c00bf90021e3a900c20ba80085a0a90067
:1005e0003400f90000400600809fbe00829fbe00dc
:1005f000841f7800105080002322ab000f003a00c7
:10060000000ae3000d003200f31f2000022020004a
:1006100001802000e14078008180fb0021118800ea
:100620000000e800030060001411800084006100f5
:1006300002003a00000ae300f5ff3a00105088007b
:100640008580a9004f0278004f01be004f00be0018
:1006500000400600809fbe00829fbe006150800067
:10066000705080008560a9002202ab0013003a00a0
:10067000180037000000e0000c0032000000e90024
:10068000615080003311800042a0200003f1780007
:10069000615080008100e800e780600061508800c0
:1006a0002202ab00f3ff3a000a003700301180004d
:1006b0002202ab00fdff3a00060037000080500028
:1006c0000080ea0067006000f8ff32000000e900e7
:1006d000ebff37002222ab00010032002222a900ea
:1006e0004f01be004f00be00004006000040da008f
:1006f0000000fe000000050003f0a200889fbe007d
:100700008a9fbe008c1f7800320107003901330038
:100710006450e1004f0032006420e10052003200da
:1007200003826c0007003b000905d0000306d000df
:10073000820f54000c065d000200390002003200f6
:1007400089017800030678008582550004003d0089
:100750000003fd008103fd008502ea008b85420055
:10076000840f720002003b0060001000e08018005f
:100770006011b8000005eb007a28e1000a0039009a
:1007800006007800c75ddd00f707b20087807500be
:100790002d003700828171000a0178006105600038
:1007a0008180d1000080d3008502e900f9ff3b0081
:1007b000060440008784480002003b0060041400e7
:1007c000e0841c000988a300070032008a817100c0
:1007d00082817100610164008904d1000884d30022
:1007e0008b05e800170037000978a30013003a00d2
:1007f0000b00e000130034008b05e90008044400fe
:1008000089844c000a4474000978a3000d003a0062
:100810000b00e000070034008b05e90008044400e9
:1008200089844c0001003a000b0020000978a300e5
:10083000f7ff32000001eb000200370082817100f7
:100840000a017800a80007000cf0a70001f0a00042
:10085000f10037006420e10002003a00838f6c0051
:10086000f10033000801be000200be00ea003700bc
:10087000140020006c0137000001be00c00007001a
:100880000470a70003f0a1006509b1001600320052
:100890000d0035006828e10006003500f0ff2f004c
:1008a000f1ff27000300e00013003b0001002800d7
:1008b0000000050000004000818048008502e9003a
:1008c000fcff3a0008003700f88f420002003c00ad
:1008d0008000eb00000005008100d1000080d30003
:1008e0008502e800fcff3a000300e00002003b0044
:1008f00060001000e0801800000006000001be004b
:100900009f0007000470a70003f0a10003f8a300f4
:1009100013003a006509b1001000320009003500eb
:100920006928e100020035000100280000000500f0
:1009300000004000818048008502e900fcff3a0089
:1009400000000600f88f4200050035008100d1004c
:100950000080d3008502e800fcff3a00000006009a
:100960008000eb00000005004f89de008201780066
:10097000480137006011b800560137000001eb0054
:1009800002010700040032000200200003f82300e7
:1009900001f0a70058ff0700000006000400200037
:1009a00000003700889fbe008a9fbe008c1f780021
:1009b0004f26dd00870007008e0033006120e10034
:1009c000430032006250e10041003e003e00390029
:1009d0006420e1003c003200058255000f003b001e
:1009e0000402e80038003a00800f5300818f5b005a
:1009f000350034000800be0003f0a10001f0a6009d
:100a000003f0a0000cf0a7003cff070082003700b5
:100a10000603430087834b000c4646000005530045
:100a200081855b00020033000a03be000c00a000b9
:100a30000402e900f6ff3b0085057800060243004a
:100a400087824b0004003a006000b80009f0a7005c
:100a500001f0a000700037000002520081825a00ad
:100a60000704e000040033000603430087834b00c3
:100a70008b05e900faff3700090578000604be007f
:100a80000203be006011b80017000700e00f52001b
:100a9000e08f5a000700350002003c000c08a3005c
:100aa000040032000601be0003f0a0000cf0a70015
:100ab00012ff07000a85680001f0a1000af0a700f4
:100ac00001f0a000540037000800be0052003700bb
:100ad000100220000cf0a600205e880052003700b3
:100ae00004002000d0003700810020006180550004
:100af0000b003d000b00200061fe2f000100e10013
:100b00001d00340082817100610164008904d100fc
:100b10000884d3000000e800faff3a0071002000ca
:100b200061006400030070000200600009003200f0
:100b300061044400e0844c000988a50005003200ef
:100b40008b05e8006808e10002003a008904d10042
:100b50000884d300f20f20000258e10005003d0098
:100b6000c75ddd00f907b2008980750008007800d4
:100b7000000006000bf827008b007800000005003d
:100b8000c70ade00f107b200f50fb200080032001c
:100b9000e1cf4200020032000170a00024000500f5
:100ba000810f7000010032000408050044000500b8
:100bb000810f700002003a00140005008502e90070
:100bc0000000400081c04800fcff3b000170a00015
:100bd000240005000004be00e9ff07000003be007a
:100be0000405be000200be00e5ff0700844f75004b
:100bf000000006000200be006450e100050036005f
:100c00006420e100020036000968a30001003a00f8
:100c10000800be000160a0004f0678004f05be002e
:100c20004f04be0000000600f0ff2f00f1ff270078
:100c3000f9ff37000003be00d1ff07006220e1008a
:100c4000020032000600be000000060085024100de
:100c5000e30f20000328e10005003c00a3fe2f0065
:100c60000328e10007003d000500200001003700d7
:100c7000f50f200020022000205e88006000b800f0
:100c800008003700130020008381520005003d005a
:100c90008100d1000080d3008301e800fcff3a000e
:100ca00005002000c72add00f107b2008580700032
:100cb00007f0a70001f0a00000000600889fbe001a
:100cc0008a9fbe008c1f7800c2ff0700c9ff330057
:100cd00003866c006450e100240032006420e100cf
:100ce000270032006150e100220032006120e10063
:100cf000210032008b854200eb07b1000134b800bf
:100d0000003ab8000804420089844a00013ab80059
:100d10000030b8008880400009014a000400330018
:100d20000000400081804800020149008b05e90075
:100d3000c909dd00830170000100320013002000aa
:100d4000c814de004814dd004709de001200b200be
:100d5000c808de000884700063ff070001f0a100ee
:100d60000cf0a70001f0a000abff37006120e1000c
:100d7000adff32000801be000200be00f7ff3700e1
:100d80006150e100fcff3a00a7ff3700889fbe00da
:100d90008a9fbe000003be0079ff0700850578002a
:100da00082815200020020006220e10004003a002b
:100db000f307b100040035007718e10004003500a6
:100dc0000600be00140037006000b8000f003700b6
:100dd000f50f2000faff2f008502d1000a85d3000d
:100de0008301e900fcff3b00818462000004650090
:100df000890f7400f2ff32008582ea000a85ea005a
:100e0000818462000004650037ff070007f0a70037
:100e100001f0a0000081eb000200e0004f05be00e1
:100e20004f04be0000000600889fbe008a9fbe00df
:100e3000841f780067ff07004f007800110033001f
:100e4000f0ff2f00838f6c0006003b000405650057
:100e50000a00a7000800370009f0a60010002000d3
:100e600008003700820f5400838f5c0003003900b4
:100e70001000200001003e000000200009f0a70043
:100e80000000ea004f05be004f04be000000e00075
:100e900000000600881f7800030478000300e000cb
:100ea00007003d0060001000e0801800600119009c
:100eb000e081190002003b0001f02d000300370023
:100ec0000400070008f0a70001f0a0004f0478001c
:100ed00000000600889fbe008a9fbe00008270004e
:100ee0000402710004827100260032000004be007a
:100ef0000200be006011b8006b09200095022000be
:100f00000182cf000a0039000541b1000082cf0004
:100f1000070039000541b1000982cf000400390003
:100f20000541b1000882cf00010039000541b10040
:100f300005425200120032000a003b00828171001b
:100f4000610164008100d1000080d3008984d30056
:100f50000884d3008b05e8000442e800f7ff3a005c
:100f6000070037000804440089844c000000480052
:100f7000818048008b05e9000442e900f9ff3a004e
:100f8000d9fe07004f05be004f04be00000006005a
:020000040000fa
:04004800c8020000ea
:020000040000fa
:04005c00dc020000c2
:020000040000fa
:04005800f4020000ae
:020000040000fa
:040054002a0300007b
:020000040000fa
:0200000401f009
:04001c00dfff000002
:020000040000fa
:0200000401f009
:04001800f0000000f4
:020000040000fa
:0200000401f009
:040014005f00000089
:020000040000fa
:0200000401f009
:040010006600000086
:020000040000fa
:0200000401f009
:04000c0002000000ee
:020000040000fa
:100f9000185f000058a20000329a0000c7ba000093
:100fa00066d6000045bb0000abe300008fbb00002d
:100fb000cec00000b5bb000066c00000d1bb000081
:100fc000829c0000e1bb000058b50000e3bb0000bc
:100fd000f0320000d7bb0000401c0000bcbb00008a
:100fe000dd61000093bb00003eb600003dbb000089
:100ff000fbd4000084ba0000b3ac0000883a0000c3
:101000003aaa00004e3b00008c000000aa3b000002
:10101000b9cb0000e53b0000913e00000b3c000016
:10102000432300001c3c0000a7020000243c0000f9
:1010300036be0000213c000026c20000143c000027
:10104000ab2d0000fa3b0000c9d40000b63b000005
:1010500098460000443b000023a2000062a200006a
:10106000f726000055bb0000e5ad0000d7bb00002f
:101070003160000020bc0000337200004fbc000053
:10108000ed98000075bc00004cc6000087bc000055
:10109000402f00008dbc000090d1000089bc0000f2
:1010a0007497000079bc00004d3f00004bbc00006d
:1010b000fa7a000008bc0000aa4b000048bb000000
:1010c000621e0000593b0000e40400002e3c0000ba
:1010d0002ce60000983c0000fccd0000de3c000047
:1010e000303c0000133d000085bd0000363d00008f
:1010f00075ae0000583d0000bfd80000773d0000ed
:10110000f98c0000893d000025b80000943d0000e6
:10111000160300009d3d0000de1d0000a23d000002
:101120000ad70000a33d0000de1d0000a23d000024
:10113000160300009d3d000025b80000943d00000e
:10114000f98c0000893d0000bfd80000773d000009
:1011500075ae0000583d000085bd0000363d000022
:10116000303c0000133d0000fccd0000de3c0000e0
:101170002ce60000983c0000e40400002e3c000037
:10118000621e0000593b0000aa4b000048bb000053
:10119000fa7a000008bc00004d3f00004bbc000084
:1011a0007497000079bc000090d1000089bc000059
:1011b000402f00008dbc00004cc6000087bc000022
:1011c000ed98000075bc0000337200004fbc0000b9
:1011d0003160000020bc0000e5ad0000d7bb00007e
:1011e000f726000055bb000023a2000062a2000009
:1011f00098460000443b0000c9d40000b63b000004
:10120000ab2d0000fa3b000026c20000143c000099
:1012100036be0000213c0000a7020000243c000074
:10122000432300001c3c0000913e00000b3c0000ea
:10123000b9cb0000e53b00008c000000aa3b000099
:101240003aaa00004e3b0000b3ac0000883a000010
:10125000fbd4000084ba00003eb600003dbb000095
:10126000dd61000093bb0000401c0000bcbb00001f
:10127000f0320000d7bb000058b50000e3bb00000f
:10128000829c0000e1bb000066c00000d1bb0000f2
:10129000cec00000b5bb0000abe300008fbb000078
:1012a00066d6000045bb0000329a0000c7ba0000b5
:0812b000185f000058a20000c5
:020000040000fa
:1012b800889fbe008a9fbe008c9fbe008e1f78004c
:1012c8002202ab00200032009560a9006150800026
:1012d800705080002202ab0013003a00180037005b
:1012e8000000e0000c0032000000e90061508000be
:1012f8003311800042a0200003f178006150800083
:101308008100e800e7806000615088002202ab009d
:10131800f3ff3a000a003700301180002202ab00c8
:10132800fdff3a0006003700008050000080ea0008
:1013380067006000f8ff32000000e900ebff3700ab
:101348008560a9009560a800705080000c0ae30031
:101358000b00320041a02000e140780022ba2000b2
:10136800014978000000e8006700600070508800bc
:101378008142780064ba2000054a780007003700e7
:1013880061ba20009140780022ba20000149780013
:101398002222ab00010032002222a90021ba20003b
:1013a800914078006180600000004000d2ff2f006b
:1013b80023168000030161000201700022168800d4
:1013c800005e8000005d8800e98060000008b800c9
:1013d80066fd07000004be008a7c28001a01be00d2
:1013e80034fe07006011b800c2fc070080057800d1
:1013f80001067800cda020000e1920000a0747003a
:101408005d01be005a00be002afe07000001be00b2
:101418008b0278000c0278000500780084007800c0
:10142800b4fc070080057800010678008e0f55008f
:10143800f3ff3a00c0b92000e400400002a12000f8
:101448004002be0084a0be00820f5000fcff3a009c
:101458008850880099508800c2ff2f000b0278003e
:101468008c0178000400780083007800effd070005
:1014780040fd07000004be00e60007000004e0008d
:101488006f003a000800be00c40007000004e00036
:101498006b003a0002002000033824000800be0058
:1014a8003cfd0700800278000102780005047800fe
:1014b800840478006011b800050078008400780082
:1014c800e9fc07000000e00005003d000800be0040
:1014d80001f0a20007fd07000040ea000200370003
:1014e8000800be0003fd0700a3ebb7000150800011
:1014f80011508000015080000280200000f1780027
:101508008100e800f11fb200015088009580a90011
:101518008580a900105080002322ab000f003a00fc
:10152800000ae3000d003200f31f20000220200013
:1015380001802000e14078008180fb0021118800b3
:101548000000e800030060001511800085006100bc
:1015580002003a00000ae300f5ff3a001050880044
:10156800000ae300010032009580a800a2cbbf006a
:1015780064006000015d80000100b800fbfc07000a
:10158800c2ff2f00a9fd0700fafc0700b8fc0700fe
:10159800cf80de00f2fc07000200200003382400a0
:1015a800fcfc070080017800010178000300780046
:1015b80082007800aefc0700a4ebb7000150800061
:1015c80011508000015080000280200000f1780056
:1015d8008100e800f11fb200015088009580a90041
:1015e8008580a900105080002322ab000f003a002c
:1015f800000ae3000d003200f31f20000220200043
:1016080001802000e14078008180fb0021118800e2
:101618000000e800030060001411800084006100ed
:1016280002003a00000ae300f5ff3a001050880073
:10163800000ae300040032009580a8000200370089
:101648006044b800a6ff37004f0778004f06be0079
:101658004f05be004f04be000000060040002000f9
:101668002700070000a12000ca0009000018eb00ad
:101678002823ef00a0012000201988002223ef0072
:101688004044280000198800f0f82f00aa00b6008e
:101698000050a0005005880085a0a90095a0a800ca
:1016a800d00a20004011880080002800001188001e
:1016b800803fb00010118800022aef00002aef00d6
:1016c80080ff2f00aa00b6000020a0005005880067
:1016d8008580a9009580a8000e2aef000c2aef004b
:1016e80000002700a820b7008560a9009560a80021
:1016f80000a12000c70009000018eb000000060048
:10170800c4000700805d8800915d8800be00070066
:10171800e05d8800f15d8800ac000700405d88004e
:10172800515d8800a6000700a05d8800b15d8800b3
:10173800af000700605d8800715d8800a9000700a0
:10174800c05d8800d15d880000000600889fbe004b
:101758008a1f78000004be00425d8000535d80004f
:1017680041fc07001ac0b3000000e0000700320087
:10177800625d8000735d80000800be003afc0700cf
:101788000000e000010032000045eb000a4078004c
:101798004f0578004f04be0000000600889fbe0079
:1017a8008a1f78000004be00a25d8000b35d80003f
:1017b8002dfc07001ac0b3000000e000070032004b
:1017c800c25d8000d35d80000800be0026fc0700d3
:1017d8000000e000010032000045eb000a407800fc
:1017e8004f0578004f04be0000000600881f7800ef
:1017f80018c0b3000001be00b7fc07000000e000fd
:1018080001003a000044eb00084078004f047800db
:1018180000000600881f780018c0b3000001be0051
:10182800adfc07000000e00001003a000044eb00b6
:10183800084078004f047800000006004387ab009a
:101848001600320043c7ab0014003a00a10920007b
:101858000001eb00800720003374200080497800e5
:101868008149780082497800710520001200200023
:1018780060042000237420008049780081497800a2
:1018880082497800000000000000000000002700e6
:10189800123a800082006000fdff3a00e006200056
:1018a800303a880050002000203a8800a109200022
:1018b800320020008007200033742000804978001f
:1018c80081497800824978007105200012002000c3
:1018d8006004200023742000804978008149780042
:1018e800824978002000200060198800a0002000ac
:1018f800203588000030200040368800d0ff2f00b7
:1019080000168800f0df2f0040168800010027002d
:1019180000002300133a800003816000800f51000b
:10192800fcff3a0000022000123a800082006000aa
:10193800fdff320049ff07001221ef00f0c3290024
:10194800700888008500a9009500a8000000e9003b
:101958005008880013e1a800c20be200feff320025
:1019680042a0a800c20ba90051fe070042a0a9008e
:04197800f9ff37003c
:020000040000fa
:10197c00c00b000002000000000000000008000086
:10198c001002000000000000c20b0000020000006a
:10199c0000000000a80b0000180000000000000070
:1019ac00100a00009801000000000000c40b0000a9
:0c19bc000200000000000000000000001d
:020000040000fa
:1019c8000000200001f8270000000600fcff0700c7
:1019d8008001780001017800030078008200780017
:1019e800000006000000200001f82f00000006009b
:1019f800fcff0700800178000101780003007800ef
:101a080082007800000006000000200001fc2f0082
:101a180000000600fcff0700800178000101780043
:0c1a280003007800820078000000060037
:00000001FF
