:020000040000fa
:040010008203000067
:020000040000fa
:04025c008203000019
:020000040000fa
:040210008203000065
:020000040000fa
:0402b40082030000c1
:020000040000fa
:0402b00082030000c5
:020000040000fa
:040340008203000034
:020000040000fa
:040270008203000005
:020000040000fa
:040274008203000001
:020000040000fa
:040334008203000040
:020000040000fa
:040364008203000010
:020000040000fa
:040360008203000014
:020000040000fa
:04023800820300003d
:020000040000fa
:040260008203000015
:020000040000fa
:0402880082030000ed
:020000040000fa
:0402b80082030000bd
:020000040000fa
:0402e0008203000095
:020000040000fa
:04031c008203000058
:020000040000fa
:04033800820300003c
:020000040000fa
:04033c008203000038
:020000040000fa
:04021c008203000059
:020000040000fa
:040324008203000050
:020000040000fa
:040350008203000024
:020000040000fa
:04022c008203000049
:020000040000fa
:04023c008203000039
:020000040000fa
:0402800082030000f5
:020000040000fa
:0402840082030000f1
:020000040000fa
:04022800820300004d
:020000040000fa
:0402780082030000fd
:020000040000fa
:04029c0082030000d9
:020000040000fa
:040264008203000011
:020000040000fa
:04027c0082030000f9
:020000040000fa
:0402bc0082030000b9
:020000040000fa
:0402c00082030000b5
:020000040000fa
:0402c40082030000b1
:020000040000fa
:0402c80082030000ad
:020000040000fa
:0402cc0082030000a9
:020000040000fa
:0402d00082030000a5
:020000040000fa
:0402d40082030000a1
:020000040000fa
:0402d800820300009d
:020000040000fa
:0402e4008203000091
:020000040000fa
:0402e800820300008d
:020000040000fa
:0402ec008203000089
:020000040000fa
:0402f0008203000085
:020000040000fa
:0402f4008203000081
:020000040000fa
:0402f800820300007d
:020000040000fa
:0402fc008203000079
:020000040000fa
:040300008203000074
:020000040000fa
:040304008203000070
:020000040000fa
:04030800820300006c
:020000040000fa
:040314008203000060
:020000040000fa
:04031800820300005c
:020000040000fa
:04032800820300004c
:020000040000fa
:040344008203000030
:020000040000fa
:04034800820300002c
:020000040000fa
:04035800820300001c
:020000040000fa
:04035c008203000018
:020000040000fa
:04026c008203000009
:020000040000fa
:04030c008203000068
:020000040000fa
:04034c008203000028
:020000040000fa
:04021800820300005d
:020000040000fa
:040230008203000045
:020000040000fa
:040240008203000035
:020000040000fa
:04028c0082030000e9
:020000040000fa
:0402900082030000e5
:020000040000fa
:04020c008203000069
:020000040000fa
:0402dc008203000099
:020000040000fa
:040310008203000064
:020000040000fa
:040354008203000020
:020000040000fa
:040320008203000054
:020000040000fa
:04020800820300006d
:020000040000fa
:040220008203000055
:020000040000fa
:040224008203000051
:020000040000fa
:04026800820300000d
:020000040000fa
:04024c008203000029
:020000040000fa
:040250008203000025
:020000040000fa
:0402a80082030000cd
:020000040000fa
:0402ac0082030000c9
:020000040000fa
:040214008203000061
:020000040000fa
:040234008203000041
:020000040000fa
:040244008203000031
:020000040000fa
:04024800820300002d
:020000040000fa
:0402940082030000e1
:020000040000fa
:0402980082030000dd
:020000040000fa
:04032c008203000048
:020000040000fa
:040254008203000021
:020000040000fa
:04025800820300001d
:020000040000fa
:040330008203000044
:020000040000fa
:0402a00082030000d5
:020000040000fa
:0402a40082030000d1
:020000040000fa
:0400b40082030000c3
:020000040000fa
:0400b00082030000c7
:020000040000fa
:040140008203000036
:020000040000fa
:040070008203000007
:020000040000fa
:040074008203000003
:020000040000fa
:040134008203000042
:020000040000fa
:040164008203000012
:020000040000fa
:040160008203000016
:020000040000fa
:04003800820300003f
:020000040000fa
:040060008203000017
:020000040000fa
:0400880082030000ef
:020000040000fa
:0400b80082030000bf
:020000040000fa
:0400e0008203000097
:020000040000fa
:04011c00820300005a
:020000040000fa
:04013800820300003e
:020000040000fa
:04013c00820300003a
:020000040000fa
:04001c00820300005b
:020000040000fa
:040124008203000052
:020000040000fa
:040150008203000026
:020000040000fa
:04002c00820300004b
:020000040000fa
:04003c00820300003b
:020000040000fa
:0400800082030000f7
:020000040000fa
:0400840082030000f3
:020000040000fa
:04002800820300004f
:020000040000fa
:0400780082030000ff
:020000040000fa
:04009c0082030000db
:020000040000fa
:040064008203000013
:020000040000fa
:04007c0082030000fb
:020000040000fa
:0400bc0082030000bb
:020000040000fa
:0400c00082030000b7
:020000040000fa
:0400c40082030000b3
:020000040000fa
:0400c80082030000af
:020000040000fa
:0400cc0082030000ab
:020000040000fa
:0400d00082030000a7
:020000040000fa
:0400d40082030000a3
:020000040000fa
:0400d800820300009f
:020000040000fa
:0400e4008203000093
:020000040000fa
:0400e800820300008f
:020000040000fa
:0400ec00820300008b
:020000040000fa
:0400f0008203000087
:020000040000fa
:0400f4008203000083
:020000040000fa
:0400f800820300007f
:020000040000fa
:0400fc00820300007b
:020000040000fa
:040100008203000076
:020000040000fa
:040104008203000072
:020000040000fa
:04010800820300006e
:020000040000fa
:040114008203000062
:020000040000fa
:04011800820300005e
:020000040000fa
:04012800820300004e
:020000040000fa
:040144008203000032
:020000040000fa
:04014800820300002e
:020000040000fa
:04015800820300001e
:020000040000fa
:04015c00820300001a
:020000040000fa
:04006c00820300000b
:020000040000fa
:04010c00820300006a
:020000040000fa
:04014c00820300002a
:020000040000fa
:04001800820300005f
:020000040000fa
:040030008203000047
:020000040000fa
:040040008203000037
:020000040000fa
:04008c0082030000eb
:020000040000fa
:0400900082030000e7
:020000040000fa
:04000c00820300006b
:020000040000fa
:0400dc00820300009b
:020000040000fa
:040110008203000066
:020000040000fa
:040154008203000022
:020000040000fa
:040120008203000056
:020000040000fa
:04000800820300006f
:020000040000fa
:040020008203000057
:020000040000fa
:040024008203000053
:020000040000fa
:04006800820300000f
:020000040000fa
:04004c00820300002b
:020000040000fa
:040050008203000027
:020000040000fa
:0400a80082030000cf
:020000040000fa
:0400ac0082030000cb
:020000040000fa
:040014008203000063
:020000040000fa
:040034008203000043
:020000040000fa
:040044008203000033
:020000040000fa
:0400940082030000e3
:020000040000fa
:0400980082030000df
:020000040000fa
:04012c00820300004a
:020000040000fa
:040130008203000046
:020000040000fa
:0400a00082030000d7
:020000040000fa
:0400a40082030000d3
:020000040000fa
:080000000002040000000000f2
:020000040000fa
:100400004f1f21000e7f24000e0188000000000015
:10041000000020000000e000020032000001200087
:100420002002880014000700b80007000000e00068
:1004300003003a00e03121000100200002003700f3
:100440000000200001002000810f70000100320038
:1004500014000700000020000000e000020032004d
:1004600000000200000000008212020000000000f4
:100470000040da000000fe004440a90040152000c2
:100480000000e0000300320000002000a00188000e
:100490004440a800000006008a1f78008b1f7800e7
:1004a0000000060091018800800478000000eb0045
:1004b0001a003700e284440032a0b4009905ba0063
:1004c000e284440032a0b4009906ba00e2844400f9
:1004d00032a0b4000006eb00476fde00fd07b2005b
:1004e000636ce10003003a00ebff07000000eb0043
:1004f0000a003700606ce10004003a00005deb0088
:100500008b05e900fdff3e00040037006168e10053
:10051000010032000086eb000b00070019c7ba008b
:100520001905ba000e04e00003003a000a00e000da
:10053000e0ff3a0000000600fe07b2009e018800be
:100540008a047800f5ff3700395dba008b05e900b1
:100550000c003200295dba008b05e900080032006a
:100560000c00e00003003a00e284440032a0b40032
:10057000f5ff370019ddba008b05e900faff3a00f4
:100580008904e800e184440032a0b40000000600c1
:10059000801f78003400f80000002000a0018800cf
:1005a000404e2800001988008500a9003400f90099
:1005b0004f007800004006003400f800881f7800e3
:1005c00008002000a80188004f0478000003f8000c
:1005d0001808f90021e3a9001a08a80085a0a900bd
:1005e0003400f90000400600809fbe00829fbe00dc
:1005f000849fbe00861f7800106180002322ab001c
:1006000011003a0001618000810f50000e0032009d
:1006100004822000f33f20000220200005c22000b9
:10062000e44078008180fb00211188000000e80090
:1006300003006000161180008600610002003a008d
:10064000950f1000f6ff3a00106188008580a90020
:100650004f0378004f02be004f01be004f00be00a6
:1006600000400600809fbe00829fbe00849fbe00a7
:1006700021818000308180008560a9002202ab00ca
:1006800010003a00180037000100e00009003200b5
:100690008100e90010017800331180008372790035
:1006a0001001e800040861002202ab00f6ff3a00e6
:1006b0000d003700301180002202ab00fdff3a0030
:1006c00009003700808050008180ea00f13fb200cd
:1006d000f8ff32008100e9004002210045c22000fd
:1006e000f43f2000ebff37002222ab000100320074
:1006f0002222a9004f02be004f01be004f00be00e3
:10070000004006000040da000000fe000000050086
:1007100003f0a200889fbe008a9fbe008c1f780055
:100720000e010700150133006450e1004f00320054
:100730006420e1005200320003826c0007003b009d
:100740000905d0000306d000820f54000c065d009e
:1007500002003900020032008901780003067800a7
:100760008582550004003d000003fd008103fd006b
:100770008502ea008b854200840f720002003b0074
:1007800060001000e08018006011b8000005eb0068
:100790007a28e1000a00390006007800c75ddd0014
:1007a000f707b200878075002d0037008281710045
:1007b0000a017800610560008180d1000080d300cb
:1007c0008502e900f9ff3b000604400087844800e9
:1007d00002003b0060041400e0841c000988a300b0
:1007e000070032008a81710082817100610164001a
:1007f0008904d1000884d3008b05e8001700370076
:100800000978a30013003a000b00e0001300340045
:100810008b05e9000804440089844c000a447400f4
:100820000978a3000d003a000b00e0000700340037
:100830008b05e9000804440089844c0001003a005b
:100840000b0020000978a300f7ff32000001eb0045
:1008500002003700828171000a01780084000700dd
:100860000cf0a70001f0a000cd0037006420e100eb
:1008700002003a00838f6c00cd0033000801be00f7
:100880000200be00c60037001400200048013700f7
:100890000001be009c0007000470a70003f0a10047
:1008a00003f8a30013003a006509b10010003200fc
:1008b000090035006928e100020035000100280028
:1008c0000000050000004000818048008502e9002a
:1008d000fcff3a0000000600f88f420005003500da
:1008e0008100d1000080d3008502e800fcff3a00bf
:1008f000000006008000eb00000005006011b80059
:10090000460137000001eb0002010700040032003d
:100910000200200003f8230001f0a7007cff07007d
:10092000000006000400200000003700889fbe0081
:100930008a9fbe008c1f78004f26dd0087000700cd
:100940008e0033006120e100430032006250e1007c
:1009500041003e003e0039006420e1003c003200ce
:10096000058255000f003b000402e80038003a0001
:10097000800f5300818f5b00350034000800be00fb
:1009800003f0a10001f0a60003f0a0000cf0a70006
:1009900060ff0700820037000603430087834b0097
:1009a0000c4646000005530081855b0002003300c1
:1009b0000a03be000c00a0000402e900f6ff3b00a1
:1009c000850578000602430087824b0004003a0048
:1009d0006000b80009f0a70001f0a0007000370027
:1009e0000002520081825a000704e0000400330034
:1009f0000603430087834b008b05e900faff3700ad
:100a0000090578000604be000203be006011b800ac
:100a100017000700e00f5200e08f5a000700350072
:100a200002003c000c08a300040032000601be00d6
:100a300003f0a0000cf0a70036ff07000a8568004d
:100a400001f0a1000af0a70001f0a0005400370057
:100a50000800be0052003700100220000cf0a60073
:100a6000f04088005200370004002000d00037001a
:100a700081002000618055000b003d000b0020002c
:100a800061fe2f000100e1001d0034008281710031
:100a9000610164008904d1000884d3000000e800eb
:100aa000faff3a007100200061006400030070004a
:100ab000020060000900320061044400e0844c0040
:100ac0000988a500050032008b05e8006808e100f0
:100ad00002003a008904d1000884d300f20f2000fc
:100ae0000258e10005003d00c75ddd00f907b200d6
:100af0008980750008007800000006000bf82700c8
:100b00008b00780000000500c70ade00f107b20084
:100b1000f50fb20008003200e1cf420002003200bf
:100b20000170a00024000500810f70000100320058
:100b30000408050044000500810f700002003a001f
:100b4000140005008502e9000000400081c0480053
:100b5000fcff3b000170a000240005000004be0063
:100b6000e9ff07000003be000405be000200be004e
:100b7000e5ff0700844f7500000006000200be007c
:100b80006450e100050036006420e10002003600f8
:100b90000968a30001003a000800be000160a0003f
:100ba0004f0678004f05be004f04be00000006004f
:100bb000f0ff2f00f1ff2700f9ff37000003be0010
:100bc000d1ff07006220e100020032000600be00f3
:100bd0000000060085024100e30f20000328e10029
:100be00005003c00a3fe2f000328e10007003d00a4
:100bf0000500200001003700f50f20002002200032
:100c0000f04088006000b8000800370013002000a2
:100c10008381520005003d008100d1000080d30097
:100c20008301e800fcff3a0005002000c72add0030
:100c3000f107b2008580700007f0a70001f0a00066
:100c400000000600889fbe008a9fbe008c1f7800af
:100c5000c2ff0700c9ff330003866c006450e10047
:100c6000240032006420e100270032006150e100de
:100c7000220032006120e100210032008b85420019
:100c8000eb07b1000134b800003ab8000804420094
:100c900089844a00013ab8000030b80088804000da
:100ca00009014a0004003300000040008180480030
:100cb000020149008b05e900c909dd0083017000cc
:100cc0000100320013002000c814de004814dd00cb
:100cd0004709de001200b200c808de000884700078
:100ce00063ff070001f0a1000cf0a70001f0a000d5
:100cf000abff37006120e100adff32000801be000c
:100d00000200be00f7ff37006150e100fcff3a002f
:100d1000a7ff3700889fbe008a9fbe000003be0069
:100d200079ff0700850578008281520002002000cb
:100d30006220e10004003a00f307b100040035002e
:100d40007718e100040035000600be0014003700eb
:100d50006000b8000f003700f50f2000faff2f00e9
:100d60008502d1000a85d3008301e900fcff3b0026
:100d70008184620000046500890f7400f2ff320074
:100d80008582ea000a85ea00818462000004650029
:100d900037ff070007f0a70001f0a0000081eb007b
:100da0000200e0004f05be004f04be000000060038
:100db000889fbe008a9fbe00841f780067ff0700df
:100dc0004f00780011003300f0ff2f00838f6c007c
:100dd00006003b00040565000a00a7000800370074
:100de00009f0a6001000200008003700820f540010
:100df000838f5c00030039001000200001003e00da
:100e00000000200009f0a7000000ea004f05be0026
:100e10004f04be000000e00000000600889fbe00f6
:100e20008a9fbe000082700004027100048271007b
:100e3000260032000004be000200be006011b800af
:100e40006b092000950220000182cf000a003900c2
:100e50000541b1000082cf00070039000541b10013
:100e60000982cf00040039000541b1000882cf009b
:100e7000010039000541b100054252001200320064
:100e80000a003b0082817100610164008100d10091
:100e90000080d3008984d3000884d3008b05e80048
:100ea0000442e800f7ff3a00070037000804440056
:100eb00089844c0000004800818048008b05e900cf
:100ec0000442e900f9ff3a00e9fe07004f05be00c1
:080ed0004f04be000000060003
:020000040000fa
:04004800c8020000ea
:020000040000fa
:04005c00dc020000c2
:020000040000fa
:04005800f4020000ae
:020000040000fa
:040054003203000073
:020000040000fa
:0200000401f009
:04001c00dfff000002
:020000040000fa
:0200000401f009
:040014005f00000089
:020000040000fa
:0200000401f009
:04001000620000008a
:020000040000fa
:0200000401f009
:04000c0002000000ee
:020000040000fa
:100ed800dc390000053b000042a80000783b000018
:100ee80020780000063c00001efe0000853c000043
:100ef800dc5e0000ea3c0000dfe10000353d000058
:100f080076f800007e3d000054b80000a33d0000c4
:100f180025880000c23d0000673a0000d73d000068
:100f280046850000de3d0000673a0000d73d00001e
:100f380025880000c23d000054b80000a33d000011
:100f480076f800007e3d0000dfe10000353d00003e
:100f5800dc5e0000ea3c00001efe0000853c00004c
:100f680020780000063c000042a80000783b000002
:100f7800dc390000053b000079c00000a7b800007c
:100f8800b0fc00002fb90000c1910000d0b90000ea
:100f980034ce000032ba0000351800006fba0000e5
:100fa8003ab900007f3f0000351800006fba000012
:100fb80034ce000032ba0000c1910000d0b9000060
:100fc800b0fc00002fb9000079c00000a7b80000ed
:100fd8000f400000df3c000005dd0000103e00006f
:100fe8007d9d0000a93e00007d9d0000a93e0000f7
:100ff80005dd0000103e00000f400000df3c00004f
:10100800343d0000b23b00003a8d0000213c000056
:101018002e280000b63c000039b100002f3d00002a
:10102800bd2a00008e3d0000e8cc0000c63d00004f
:10103800d6d10000f53d0000313f0000083e000019
:10104800313f0000083e0000d6d10000f53d000009
:10105800e8cc0000c63d0000bd2a00008e3d00001f
:1010680039b100002f3d00002e280000b63c0000da
:101078003a8d0000213c0000343d0000b23b0000e6
:10108800975300008eba00009c02000057ba000077
:10109800e9b20000d1b90000233000001f3a000077
:1010a800d2660000303b000078d10000ce3b000043
:1010b8007a4d0000413c00003ae000009d3c0000f1
:1010c800052b0000ea3c000065fc0000203d000004
:1010d800cccc00004f3d000075e600007d3d0000cf
:1010e8009aa60000933d0000d3140000a43d000020
:1010f80068a50000ae3d0000624a0000b23d000055
:1011080068a50000ae3d0000d3140000a43d000017
:101118009aa60000933d000075e600007d3d0000a2
:10112800cccc00004f3d000065fc0000203d0000d5
:10113800052b0000ea3c00003ae000009d3c00005e
:101148007a4d0000413c000078d10000ce3b000001
:10115800d2660000303b0000233000001f3a000038
:10116800e9b20000d1b900009c02000057ba0000a3
:08117800975300008eba00003d
:020000040000fa
:101180002f03b000889fbe008a9fbe008c9fbe00c8
:101190008e1f78002202ab00200032009560a9006b
:1011a00021818000308180002202ab0010003a00d3
:1011b000180037000100e000090032008100e9005a
:1011c0001001780033118000837279001001e8006b
:1011d000040861002202ab00f6ff3a000d00370060
:1011e000301180002202ab00fdff3a0009003700f9
:1011f000808050008180ea00f13fb200f8ff3200a9
:101200008100e9004002210045c22000f43f200097
:10121000ebff37008560a9009560a8002181800060
:1012200030818000808f50000c00320041c22000cd
:10123000e1407800221f2100014978000000e80009
:10124000f33f2000620221000309600001417800a1
:10125000c08120000248780007003700201f2100cd
:10126000c381200093417800034878002222ab001c
:10127000010032002222a900201f21001040780026
:10128000a0e79f0061436000c6df9f00610063002c
:1012900000004000d1ff2f002816800088806000e9
:1012a0008100700021168800c0408000808f880077
:1012b0008000eb0091fd0700f0af9f0081b79f0019
:1012c000208f8800318f8800cc0221001c05be00d1
:1012d000640746001e06be00b2aa2b0073c7230097
:1012e00058fe07000004be00d2c02a00e3fe23001f
:1012f0000a00be0053fe07000001be000800be0049
:1013000004fd07000004be00423c2d00c3f623008c
:101310000c00be004bfe07000001be000800be002e
:10132000fbfc07000004be000a8fbe0064005700eb
:101330000888be00640747001e01be00b2b79f00c8
:10134000c3b79f000a01be000a00be00f1fc0700ff
:101350000801be00effc07000001be000c00be004b
:10136000ecfc0700521d240073c6230035fe070065
:101370000004be0022d62c00e3fd23003fb09700fe
:10138000cfb097002ffe07000001be000800be008e
:10139000e0fc07000005be00640647001c04be0018
:1013a00012ee2000c3f423000800be0025fe070053
:1013b0000001be000a00be00d5fc07000005be000b
:1013c0003fb09700cfb09700008ebe000a8fbe00de
:1013d000e40046001106be003fb19700cfb1970070
:1013e0000200be00cbfc07000a01be00c9fc0700da
:1013f0000001be000800be00c6fc0700c2082e00a7
:10140000a3c523000ffe07000004be0082ff2d00cd
:1014100023fd23000c00be000afe07000001be00f1
:101420000800be00bbfc07000005be006c074700bb
:101430001e04be0092df260033f323000800be0026
:1014400000fe07000001be000a00be00b0fc07005d
:101450000005be000c8fbe00640157000089be006d
:10146000640747001e00be00b0b79f00c1b79f00d1
:101470000c01be000c00be00a6fc07000a01be0065
:10148000a4fc07000001be000800be00a1fc07008c
:1014900092ec2a0023c52300eafd07000004be00e9
:1014a00072ae2f00a3fc23003fb09700cfb097008f
:1014b000e4fd07000001be000800be0095fc070027
:1014c0000005be00640647001c04be00a20b2200fb
:1014d00033f223000800be00dafd07000001be0061
:1014e0000a00be008afc07000005be003fb197005d
:1014f000cfb19700028ebe00008fbe00e40146000f
:101500001306be003fb19700cfb197000200be00a6
:1015100080fc07000a01be007efc07000001be003f
:101520000800be007bfc070052db2900e3c4230057
:10153000c4fd07000004be0032fe200073fc23003f
:101540000c00be00bffd07000001be000800be0089
:1015500070fc07000004be006c0747001e05be00bb
:10156000129a2000b3f123000a00be00b5fd070067
:101570000001be000800be0065fc07000004be00bc
:101580000c01be000c00be0062fc07000801be009a
:1015900060fc07000001be000a00be005dfc070001
:1015a000e0a79f00f1a79f00408f8800518f88001f
:1015b0000c8fbe00e4055700888dbe002fe6970013
:1015c0008c84fb006000b80080af9f0091af9f004b
:1015d0000928a300040032000200200003f82300c1
:1015e00082af9f0093af9f00c87628001801be000d
:1015f0007fa897008fb0970092fd07006011b80098
:1016000044fc07000005be000c0521000e0520006b
:10161000080747005c01be005800be0089fd0700b6
:101620000001be000a00be003afc07000005be0033
:101630008e0f5400f7ff3a00440a210010012000e9
:1016400001002000220120000300200045f82f00a7
:1016500084824200e6ff2f00f7ff2f006b0141005c
:101660004211dd00028142001206be000ca2be0043
:101670000001be0061005000e0805800860f50005d
:10168000878f5800f5ff3a007fa897008fb097002a
:10169000a0828800b1828800ce4cdd00cf4cde00f5
:1016a000a9cf9f00087c28001801be0065fd070037
:1016b0006011b80017fc07000001be000c0a2100f1
:1016c000c9fa2f0088844400c907b000bab79f0048
:1016d000cbb79f0009077800080578000204be0018
:1016e0005c01be005a00be0056fd07000001be00ae
:1016f0000800be0007fc07000004be008e0f550066
:10170000f7ff3a003fb59700cfb59700c0af9f00f5
:10171000d1af9f00c40c2100700020000100200008
:101720008200200003002000c5f52f0084824200c3
:10173000e6ff2f00f7ff2f007f0141004211dd007f
:10174000028142001204be0008a2be000001be00d9
:1017500061005000e0805800860f5000878f5800cd
:10176000f5ff3a007fae97008fb697002c85880072
:101770003d858800c87e28001801be000c00be0010
:1017800030fd07006011b800e2fb07000001be0059
:10179000890c21000cf82f00080646004c09b00007
:1017a000bab79f00cbb79f00080578000c077800f8
:1017b000090678000204be005c01be005a00be00ab
:1017c00020fd07000001be000800be00d1fb07009d
:1017d0000004be008e0f5500f7ff3a003fb597009a
:1017e000cfb59700a0af9f00b1af9f00810d210042
:1017f0001104be00e8868800f986880064805000e5
:10180000b0187800a0107800e880500031187800f7
:101810002110780068005000b0187800a0107800ff
:101820007fae97008fb697000c88be007400400012
:101830001006be00640740001e01be0092b79f0064
:10184000a3b79f00d20e2700c3c723007fa897002d
:101850008fb09700fbfc07000004be00526323001a
:1018600033ff23000c00be00f6fc07000001be00a1
:101870000800be00a7fb07000004be00923723004b
:1018800063f723001fb09700afb09700edfc07008f
:101890000001be000800be009dfb07000004be0062
:1018a0000c8fbe00e40157008089be00e880410033
:1018b0001100be00b0b79f00c1b79f000c01be0071
:1018c0000c00be0093fb07000801be0091fb07005f
:1018d0000001be001fb09700afb097008dfb07005e
:1018e000a2eb230033c72300d6fc07000004be0090
:1018f00042a12500a3fe23003fb09700cfb0970080
:10190000d0fc07000001be000800be0081fb0700fc
:101910000006be00680747001e04be0042812e007c
:1019200033f623000800be00c6fc07000001be001d
:101930000c00be0076fb07000006be003fb197001a
:10194000cfb19700028fbe00e40157008089be002e
:10195000e88041001100be0090b79f00a1b79f0032
:101960003fb19700cfb197000200be0069fb0700ae
:101970000c01be0067fb07000001be000800be00ae
:1019800064fb070022072000b3c62300adfc07005c
:101990000004be00428f260023fe23001fb09700e4
:1019a000afb09700a7fc07000001be000800be0012
:1019b00058fb07000006be00680747001e04be0073
:1019c000e21e280033f523000800be009dfc07003e
:1019d0000001be000c00be004dfb07000006be006b
:1019e0001fb19700afb19700028fbe00e40157000e
:1019f0008089be00e88041001100be00b0b79f00a2
:101a0000c1b79f001fb19700afb197000200be00a1
:101a100040fb07000c01be003efb07000001be00ba
:101a20000800be003bfb0700f2522c0033c6230027
:101a300084fc07000004be00f2152700b3fd23005c
:101a40003fb09700cfb097007efc07000001be00ba
:101a50000800be002ffb07000006be006807470015
:101a60001e04be0022f1210053f423000800be0032
:101a700074fc07000001be000c00be0024fb070040
:101a80000006be003fb19700cfb19700028fbe00a5
:101a9000e40157008089be00e88041001100be00cb
:101aa00090b79f00a1b79f003fb19700cfb19700bb
:101ab0000200be0017fb07000c01be0015fb07006b
:101ac0000001be000800be0012fb0700824429008e
:101ad000d3c523005bfc07000004be00a2a62700bc
:101ae00053fd23001fb09700afb0970055fc0700cf
:101af0000001be000800be0006fb07000006be0095
:101b0000680747001e04be0092e12c0083f3230007
:101b10000800be004bfc07000001be000c00be0028
:101b2000fbfa07000006be001fb19700afb1970097
:101b3000028fbe00e40157008089be00e8804100aa
:101b40001100be00b0b79f00c1b79f001fb1970042
:101b5000afb197000200be00eefa07000c01be0014
:101b6000ecfa07000001be000800be00e9fa070019
:101b700032ff260083c5230032fc07000004be00ac
:101b80005263280003fd23003fb09700cfb09700b9
:101b90002cfc07000001be000800be00ddfa0700b3
:101ba0000006be00680747001e04be00a2362900da
:101bb000e3f223000800be0022fc07000001be0083
:101bc0000c00be00d2fa07000006be003fb197002d
:101bd000cfb19700028fbe00e40157008089be009c
:101be000e88041001100be0090b79f00a1b79f00a0
:101bf0003fb19700cfb197000200be00c5fa0700c1
:101c00000c01be00c3fa07000001be000800be00c0
:101c1000c0fa0700d275250043c5230009fc070060
:101c20000004be00623f2900c3fc23001fb09700e0
:101c3000afb0970003fc07000001be000800be0023
:101c4000b4fa07000006be00680747001e04be0085
:101c500012d6260063f223000800be00f9fb07003d
:101c60000001be000c00be00a9fa07000006be007d
:101c70001fb19700afb19700028fbe00e40157007b
:101c80008089be00e88041001100be00b0b79f000f
:101c9000c1b79f001fb19700afb197000200be000f
:101ca0009cfa07000c01be009afa07000001be0072
:101cb0000800be0097fa0700d283240013c5230052
:101cc000e0fb07000004be0072172a0093fc23000b
:101cd0003fb09700cfb09700dafb07000001be00cd
:101ce0000800be008bfa07000006be006807470028
:101cf0001e04be001277250003f223000800be0078
:101d0000d0fb07000001be000c00be0080fa0700f7
:101d10000006be003fb19700cfb19700028fbe0012
:101d2000e40157008089be00e88041001100be0038
:101d300090b79f00a1b79f003fb19700cfb1970028
:101d40000200be0073fa07000c01be0071fa070022
:101d50000001be000800be006efa070082ff2300eb
:101d6000f3c42300b7fb07000004be0072c32a00bf
:101d700073fc23001fb09700afb09700b1fb0700c2
:101d80000001be000800be0062fa07000006be00a7
:101d9000680747001e04be00e2c62400c3f123000a
:101da0000800be00a7fb07000001be000c00be003b
:101db00057fa07000006be001fb19700afb19700a9
:101dc000028fbe00e40157008089be00e880410018
:101dd0001100be00d0b79f00e1b79f001fb1970070
:101de000afb197000200be004afa07000c01be0026
:101df00048fa07000001be000800be0045fa0700cf
:101e0000d2c62300e3c423008efb07000004be00fb
:101e100092222b0063fc23005fb09700efb0970085
:101e200088fb07000001be000800be0039fa070069
:101e30000004be00680747001e06be009281240011
:101e4000a3f123000c00be007efb07000001be00d2
:101e50000800be002efa07000004be005fb1970024
:101e6000efb197000200be002afa07000801be0089
:101e700028fa07000001be000c00be0025fa07008a
:101e800090a79f00a1a79f00608f8800718f880096
:101e90005fb69700efb697000c8fbe00e4065700c0
:101ea000888ebe00488028001801be007fa89700d9
:101eb0008fb0970063fb07006011b80015fa0700a8
:101ec0000006be0089f62f0088844400490db0004a
:101ed0005e01be005800be005afb07000001be00b4
:101ee0000c00be000bfa07000006be00890f54006c
:101ef000f7ff3a00c7162100c200200003002000af
:101f0000d400200005002000c6eb2f00070343008b
:101f1000e8ff2f00f9ff2f0090b79f00a1b79f00a7
:101f2000bab79f00cbb79f00870078002404b000a9
:101f30004222dd00040243001405be008aa0be0058
:101f40000202be0061015100e0815900880f51007a
:101f5000898f5900f5ff3a001fb69700afb697007a
:101f60003fb59700cfb597007fa897008fb0970037
:101f700080898800918988004e8428001e01be0057
:101f800030fb07006011b800e2f907000004be0052
:101f900081162100b1a79f0082f22f000e0141009f
:101fa0000215b000c2a79f00bcb79f00cdb79f002d
:101fb0009ab79f00abb79f004fa697008a162100e3
:101fc0005a01be005e00be001efb07000001be00fd
:101fd0000800be00cff907000004be008c0f5700b8
:101fe000f7ff3a003fb69700cfb69700471e210093
:101ff000b201200003002000c401200005002000e1
:1020000046e42f0007034300fcb79f008dbf9f00ed
:10201000b8b79f00c9b79f00870078001405b000cb
:102020004222dd00040243001404be0088a0be006a
:102030000202be0061015100e0815900eaff2f0059
:10204000fbff2f008a0f51008b8f5900f3ff3a00de
:102050007fb697008fbe97001fb59700afb597006a
:102060003fb49700cfb497007fa897008fb0970038
:10207000608b8800718b8800cfd897000104e00046
:10208000170032002fc997000204e0000900320057
:102090006011b8000fa897009fa8970072fa070078
:1020a0000000e00023003a00faaf9f008bb79f00ca
:1020b0002e0037006011b8000fa897009fa8970066
:1020c00069fa07000000e0001f0032004fad9700e2
:1020d000dfad9700faaf9f008bb79f00230037005a
:1020e000afcd97000b04e000090032006011b8008a
:1020f0000fa897009fa897005bfa07000000e00078
:1021000016003a00fcaf9f008db79f001700370004
:102110006011b8000fa897009fa8970052fa070017
:102120000000e00011003200f8af9f0089b79f0067
:102130000e0037006fa49700ffa49700f8af9f0030
:1021400089b79f00090037002fad9700bfad9700fa
:10215000faaf9f008bb79f00040037001fa69700bf
:10216000afa69700fcaf9f008db79f00c2ff2f0066
:102170007fa897008fb0970090fa0700e1f9070059
:102180000004be00d50007000004e0003c003a0057
:102190000800be00b30007000004e00038003a0069
:1021a00002002000033824000800be00ddf907000b
:1021b0000004be006011b8000000be00b2f90700c4
:1021c0000000e00005003d000800be0001f0a20094
:1021d000aff907000040ea00020037000800be0027
:1021e000abf90700311f21008048780001c22000b0
:1021f000110178000181e8009201780091017800d6
:102200000482200000f279008301e800f33fb2006d
:10221000830878009580a9008580a90012007800c5
:102220002322ab0010003a0001618000808f500033
:102230000d003200f33f20000220200005c22000e4
:10224000e44078008180fb00211188000000e80054
:10225000030060001d1180008d00610002003a0043
:10226000950f1000f6ff3a001061880001618000b0
:10227000808f5000040032009580a80002003700d3
:102280006044b800d5ff37004f0778004f06be0006
:102290004f05be004f04be002f03b1000000060032
:1022a000400020004800070081022100e5000900ed
:1022b0008018eb00c11cb1002823ef00a001200012
:1022c000201988002223ef004044280000198800cc
:1022d000f0f82f00aa00b6000050a00050058800ba
:1022e00085a0a90095a0a8006005200040118800e5
:1022f0008000280000118800004c28001011880080
:102300000000eb00106188000061880082ff2f0050
:1023100053058000030161000220a00052058800df
:102320008580a9009580a8003081880020818800e0
:1023300000002700a820b7008560a9009560a800cc
:1023400040052100270009000018eb00800720004d
:102350000100400081027800840220000002420057
:102360006011b80002a8be00840f5000fdff3a00c3
:102370006000b800608688007186880080868800ca
:1023800091868800a0868800b1868800c086880073
:10239000d1868800e0868800f1868800c01221007e
:1023a00001142000858040006011b80002a8be0022
:1023b000810f5000fdff3a00c31621003b000900c9
:1023c0008019eb0000000600bf00070040408800b5
:1023d00051408800b9000700a0408800b140880043
:1023e000af0007000040880011408800a9000700e6
:1023f0006040880071408800ae00070020408800df
:1024000031408800a8000700804088009140880083
:1024100000000600889fbe008a1f78000004be00ee
:10242000024080001340800017f907001ac0b30073
:102430000000e000070032002240800033408000ae
:102440000800be0010f907000000e00001003200a3
:102450000045eb000a4078004f0578004f04be00ad
:1024600000000600889fbe008a1f78000004be009e
:10247000624080007340800003f907001ac0b30077
:102480000000e0000700320082408000934080009e
:102490000800be00fcf807000000e0000100320068
:1024a0000045eb000a4078004f0578004f04be005d
:1024b00000000600881f780018c0b3000001be00ad
:1024c00069f907000000e00001003a000044eb0059
:1024d000084078004f04780000000600881f78004c
:1024e00018c0b3000001be005ff907000000e00063
:1024f00001003a000044eb00084078004f047800e7
:10250000000006004387ab001600320043c7ab0053
:1025100014003a00a10920000001eb008007200010
:10252000337420008049780081497800824978001e
:102530007105200012002000600420002374200098
:1025400080497800814978008249780000000000c5
:102550000000000000002700123a800082006000a6
:10256000fdff3a00e0062000303a880050002000cd
:10257000203a8800a10920003200200080072000b6
:1025800033742000804978008149780082497800be
:102590007105200012002000600420002374200038
:1025a0008049780081497800824978002000200025
:1025b00060198800a000200020358800003020002d
:1025c00050368800d0ff2f0000168800f07f2f00c3
:1025d000401688000100270000002300133a800005
:1025e00003816000800f5100fcff3a0000022000d0
:1025f000123a800082006000fdff320028ff0700d1
:102600001221ef00f0c32900700888008500a9009e
:102610009500a8000000e9005008880013e1a80018
:102620001a08e200feff320042a0a8001a08a90022
:0c263000d3fa070042a0a900f9ff370010
:020000040000fa
:10263c001808000002000000000000002008000044
:10264c0008080000000000001a080000020000004a
:10265c00000000000008000018000000000000004e
:10266c0028100000cc010000000000001c08000035
:10267c0002000000000000001e0800000200000024
:08268c00000000000000000046
:020000040000fa
:102694000000200001f8270000000600fcff0700ee
:1026a400000006000000200001f82f0000000600d2
:1026b400fcff0700000006000000200001fc2f00c2
:0c26c40000000600fcff070000000600fc
:00000001FF
