:020000040000fa
:040010007e0300006b
:020000040000fa
:04025c007e0300001d
:020000040000fa
:040210007e03000069
:020000040000fa
:0402b4007e030000c5
:020000040000fa
:0402b0007e030000c9
:020000040000fa
:040340007e03000038
:020000040000fa
:040270007e03000009
:020000040000fa
:040274007e03000005
:020000040000fa
:040334007e03000044
:020000040000fa
:040364007e03000014
:020000040000fa
:040360007e03000018
:020000040000fa
:040238007e03000041
:020000040000fa
:040260007e03000019
:020000040000fa
:040288007e030000f1
:020000040000fa
:0402b8007e030000c1
:020000040000fa
:0402e0007e03000099
:020000040000fa
:04031c007e0300005c
:020000040000fa
:040338007e03000040
:020000040000fa
:04033c007e0300003c
:020000040000fa
:04021c007e0300005d
:020000040000fa
:040324007e03000054
:020000040000fa
:040350007e03000028
:020000040000fa
:04022c007e0300004d
:020000040000fa
:04023c007e0300003d
:020000040000fa
:040280007e030000f9
:020000040000fa
:040284007e030000f5
:020000040000fa
:040228007e03000051
:020000040000fa
:040278007e03000001
:020000040000fa
:04029c007e030000dd
:020000040000fa
:040264007e03000015
:020000040000fa
:04027c007e030000fd
:020000040000fa
:0402bc007e030000bd
:020000040000fa
:0402c0007e030000b9
:020000040000fa
:0402c4007e030000b5
:020000040000fa
:0402c8007e030000b1
:020000040000fa
:0402cc007e030000ad
:020000040000fa
:0402d0007e030000a9
:020000040000fa
:0402d4007e030000a5
:020000040000fa
:0402d8007e030000a1
:020000040000fa
:0402e4007e03000095
:020000040000fa
:0402e8007e03000091
:020000040000fa
:0402ec007e0300008d
:020000040000fa
:0402f0007e03000089
:020000040000fa
:0402f4007e03000085
:020000040000fa
:0402f8007e03000081
:020000040000fa
:0402fc007e0300007d
:020000040000fa
:040300007e03000078
:020000040000fa
:040304007e03000074
:020000040000fa
:040308007e03000070
:020000040000fa
:040314007e03000064
:020000040000fa
:040318007e03000060
:020000040000fa
:040328007e03000050
:020000040000fa
:040344007e03000034
:020000040000fa
:040348007e03000030
:020000040000fa
:040358007e03000020
:020000040000fa
:04035c007e0300001c
:020000040000fa
:04026c007e0300000d
:020000040000fa
:04030c007e0300006c
:020000040000fa
:04034c007e0300002c
:020000040000fa
:040218007e03000061
:020000040000fa
:040230007e03000049
:020000040000fa
:040240007e03000039
:020000040000fa
:04028c007e030000ed
:020000040000fa
:040290007e030000e9
:020000040000fa
:04020c007e0300006d
:020000040000fa
:0402dc007e0300009d
:020000040000fa
:040310007e03000068
:020000040000fa
:040354007e03000024
:020000040000fa
:040320007e03000058
:020000040000fa
:040208007e03000071
:020000040000fa
:040220007e03000059
:020000040000fa
:040224007e03000055
:020000040000fa
:040268007e03000011
:020000040000fa
:04024c007e0300002d
:020000040000fa
:040250007e03000029
:020000040000fa
:0402a8007e030000d1
:020000040000fa
:0402ac007e030000cd
:020000040000fa
:040214007e03000065
:020000040000fa
:040234007e03000045
:020000040000fa
:040244007e03000035
:020000040000fa
:040248007e03000031
:020000040000fa
:040294007e030000e5
:020000040000fa
:040298007e030000e1
:020000040000fa
:04032c007e0300004c
:020000040000fa
:040254007e03000025
:020000040000fa
:040258007e03000021
:020000040000fa
:040330007e03000048
:020000040000fa
:0402a0007e030000d9
:020000040000fa
:0402a4007e030000d5
:020000040000fa
:0400b4007e030000c7
:020000040000fa
:0400b0007e030000cb
:020000040000fa
:040140007e0300003a
:020000040000fa
:040070007e0300000b
:020000040000fa
:040074007e03000007
:020000040000fa
:040134007e03000046
:020000040000fa
:040164007e03000016
:020000040000fa
:040160007e0300001a
:020000040000fa
:040038007e03000043
:020000040000fa
:040060007e0300001b
:020000040000fa
:040088007e030000f3
:020000040000fa
:0400b8007e030000c3
:020000040000fa
:0400e0007e0300009b
:020000040000fa
:04011c007e0300005e
:020000040000fa
:040138007e03000042
:020000040000fa
:04013c007e0300003e
:020000040000fa
:04001c007e0300005f
:020000040000fa
:040124007e03000056
:020000040000fa
:040150007e0300002a
:020000040000fa
:04002c007e0300004f
:020000040000fa
:04003c007e0300003f
:020000040000fa
:040080007e030000fb
:020000040000fa
:040084007e030000f7
:020000040000fa
:040028007e03000053
:020000040000fa
:040078007e03000003
:020000040000fa
:04009c007e030000df
:020000040000fa
:040064007e03000017
:020000040000fa
:04007c007e030000ff
:020000040000fa
:0400bc007e030000bf
:020000040000fa
:0400c0007e030000bb
:020000040000fa
:0400c4007e030000b7
:020000040000fa
:0400c8007e030000b3
:020000040000fa
:0400cc007e030000af
:020000040000fa
:0400d0007e030000ab
:020000040000fa
:0400d4007e030000a7
:020000040000fa
:0400d8007e030000a3
:020000040000fa
:0400e4007e03000097
:020000040000fa
:0400e8007e03000093
:020000040000fa
:0400ec007e0300008f
:020000040000fa
:0400f0007e0300008b
:020000040000fa
:0400f4007e03000087
:020000040000fa
:0400f8007e03000083
:020000040000fa
:0400fc007e0300007f
:020000040000fa
:040100007e0300007a
:020000040000fa
:040104007e03000076
:020000040000fa
:040108007e03000072
:020000040000fa
:040114007e03000066
:020000040000fa
:040118007e03000062
:020000040000fa
:040128007e03000052
:020000040000fa
:040144007e03000036
:020000040000fa
:040148007e03000032
:020000040000fa
:040158007e03000022
:020000040000fa
:04015c007e0300001e
:020000040000fa
:04006c007e0300000f
:020000040000fa
:04010c007e0300006e
:020000040000fa
:04014c007e0300002e
:020000040000fa
:040018007e03000063
:020000040000fa
:040030007e0300004b
:020000040000fa
:040040007e0300003b
:020000040000fa
:04008c007e030000ef
:020000040000fa
:040090007e030000eb
:020000040000fa
:04000c007e0300006f
:020000040000fa
:0400dc007e0300009f
:020000040000fa
:040110007e0300006a
:020000040000fa
:040154007e03000026
:020000040000fa
:040120007e0300005a
:020000040000fa
:040008007e03000073
:020000040000fa
:040020007e0300005b
:020000040000fa
:040024007e03000057
:020000040000fa
:040068007e03000013
:020000040000fa
:04004c007e0300002f
:020000040000fa
:040050007e0300002b
:020000040000fa
:0400a8007e030000d3
:020000040000fa
:0400ac007e030000cf
:020000040000fa
:040014007e03000067
:020000040000fa
:040034007e03000047
:020000040000fa
:040044007e03000037
:020000040000fa
:040094007e030000e7
:020000040000fa
:040098007e030000e3
:020000040000fa
:04012c007e0300004e
:020000040000fa
:040130007e0300004a
:020000040000fa
:0400a0007e030000db
:020000040000fa
:0400a4007e030000d7
:020000040000fa
:080000000002040000000000f2
:020000040000fa
:100400000f0521000e7f24000e018800000000006f
:10041000000020000000e000020032000001200087
:100420002002880014000700b60007000000e0006a
:1004300003003a00c0bb200001002000020037008a
:100440000000200001002000810f70000100320038
:1004500014000700000020000000e000020032004d
:100460000000020000000000200b0200000000005d
:100470000040da000000fe004440a9000000200017
:100480000000e0000300320000002000a00188000e
:100490004440a800000006008a1f78008b1f7800e7
:1004a0000000060091018800800478000000eb0045
:1004b0001a003700e284440032a0b4009905ba0063
:1004c000e284440032a0b4009906ba00e2844400f9
:1004d00032a0b4000006eb00476fde00fd07b2005b
:1004e000636ce10003003a00ebff07000000eb0043
:1004f0000a003700606ce10004003a00005deb0088
:100500008b05e900fdff3e00040037006168e10053
:10051000010032000086eb000b00070019c7ba008b
:100520001905ba000e04e00003003a000a00e000da
:10053000e0ff3a0000000600fe07b2009e018800be
:100540008a047800f5ff3700395dba008b05e900b1
:100550000c003200295dba008b05e900080032006a
:100560000c00e00003003a00e284440032a0b40032
:10057000f5ff370019ddba008b05e900faff3a00f4
:100580008904e800e184440032a0b40000000600c1
:10059000801f78003400f80000002000a0018800cf
:1005a000404e2800001988008500a9003400f90099
:1005b0004f007800004006003400f800881f7800e3
:1005c00008002000a80188004f0478000003f8000c
:1005d0001a08f90021e3a9001808a80085a0a900bd
:1005e0003400f9000040060000a0fe00849fbe0019
:1005f000861f7800106180002322ab0011003a00b2
:1006000001618000810f50000e0032000482200042
:10061000f33f20000220200005c22000e4407800c3
:100620008180fb00211188000000e80003006000c9
:10063000161180008600610002003a00950f10003c
:10064000f6ff3a00106188008580a9004f0378000a
:100650004f02be000080fe0000400600809fbe00ea
:10066000829fbe00849fbe00218180003081800077
:100670008560a9002202ab0010003a001800370084
:100680000100e000090032008100e900100178005b
:1006900033118000837279001001e80004086100c2
:1006a0002202ab00f6ff3a000d0037003011800047
:1006b0002202ab00fdff3a000900370080805000a5
:1006c0008180ea00f13fb200f8ff32008100e900ca
:1006d0004002210045c22000f43f2000ebff37001c
:1006e0002222ab00010032002222a9004f02be00ec
:1006f0004f01be004f00be00004006000040da007f
:100700000000fe000000050003f0a200889fbe006c
:100710008a9fbe008c1f78000e0107001501330070
:100720006450e1004f0032006420e10052003200ca
:1007300003826c0007003b000905d0000306d000cf
:10074000820f54000c065d000200390002003200e6
:1007500089017800030678008582550004003d0079
:100760000003fd008103fd008502ea008b85420045
:10077000840f720002003b0060001000e08018004f
:100780006011b8000005eb007a28e1000a0039008a
:1007900006007800c75ddd00f707b20087807500ae
:1007a0002d003700828171000a0178006105600028
:1007b0008180d1000080d3008502e900f9ff3b0071
:1007c000060440008784480002003b0060041400d7
:1007d000e0841c000988a300070032008a817100b0
:1007e00082817100610164008904d1000884d30012
:1007f0008b05e800170037000978a30013003a00c2
:100800000b00e000130034008b05e90008044400ed
:1008100089844c000a4474000978a3000d003a0052
:100820000b00e000070034008b05e90008044400d9
:1008300089844c0001003a000b0020000978a300d5
:10084000f7ff32000001eb000200370082817100e7
:100850000a017800840007000cf0a70001f0a00056
:10086000cd0037006420e10002003a00838f6c0065
:10087000cd0033000801be000200be00c6003700f4
:1008800014002000480137000001be009c00070052
:100890000470a70003f0a10003f8a30013003a00be
:1008a0006509b10010003200090035006928e10037
:1008b0000200350001002800000005000000400093
:1008c000818048008502e900fcff3a000000060034
:1008d000f88f4200050035008100d1000080d30070
:1008e0008502e800fcff3a00000006008000eb00f3
:1008f000000005006011b800460137000001eb0060
:1009000002010700040032000200200003f8230067
:1009100001f0a7007cff0700000006000400200093
:1009200000003700889fbe008a9fbe008c1f7800a1
:100930004f26dd00870007008e0033006120e100b4
:10094000430032006250e10041003e003e003900a9
:100950006420e1003c003200058255000f003b009e
:100960000402e80038003a00800f5300818f5b00da
:10097000350034000800be0003f0a10001f0a6001d
:1009800003f0a0000cf0a70060ff07008200370012
:100990000603430087834b000c46460000055300c6
:1009a00081855b00020033000a03be000c00a0003a
:1009b0000402e900f6ff3b008505780006024300cb
:1009c00087824b0004003a006000b80009f0a700dd
:1009d00001f0a000700037000002520081825a002e
:1009e0000704e000040033000603430087834b0044
:1009f0008b05e900faff3700090578000604be0000
:100a00000203be006011b80017000700e00f52009b
:100a1000e08f5a000700350002003c000c08a300dc
:100a2000040032000601be0003f0a0000cf0a70095
:100a300036ff07000a85680001f0a1000af0a70050
:100a400001f0a000540037000800be00520037003b
:100a5000100220000cf0a600f04088005200370081
:100a600004002000d0003700810020006180550084
:100a70000b003d000b00200061fe2f000100e10093
:100a80001d00340082817100610164008904d1007d
:100a90000884d3000000e800faff3a00710020004b
:100aa0006100640003007000020060000900320071
:100ab00061044400e0844c000988a5000500320070
:100ac0008b05e8006808e10002003a008904d100c3
:100ad0000884d300f20f20000258e10005003d0019
:100ae000c75ddd00f907b200898075000800780055
:100af000000006000bf827008b00780000000500be
:100b0000c70ade00f107b200f50fb200080032009c
:100b1000e1cf4200020032000170a0002400050075
:100b2000810f700001003200040805004400050038
:100b3000810f700002003a00140005008502e900f0
:100b40000000400081c04800fcff3b000170a00095
:100b5000240005000004be00e9ff07000003be00fa
:100b60000405be000200be00e5ff0700844f7500cb
:100b7000000006000200be006450e10005003600df
:100b80006420e100020036000968a30001003a0079
:100b90000800be000160a0004f0678004f05be00af
:100ba0004f04be0000000600f0ff2f00f1ff2700f9
:100bb000f9ff37000003be00d1ff07006220e1000b
:100bc000020032000600be0000000600850241005f
:100bd000e30f20000328e10005003c00a3fe2f00e6
:100be0000328e10007003d00050020000100370058
:100bf000f50f200020022000f04088006000b800bf
:100c000008003700130020008381520005003d00da
:100c10008100d1000080d3008301e800fcff3a008e
:100c200005002000c72add00f107b20085807000b2
:100c300007f0a70001f0a00000000600889fbe009a
:100c40008a9fbe008c1f7800c2ff0700c9ff3300d7
:100c500003866c006450e100240032006420e1004f
:100c6000270032006150e100220032006120e100e3
:100c7000210032008b854200eb07b1000134b8003f
:100c8000003ab8000804420089844a00013ab800da
:100c90000030b8008880400009014a000400330099
:100ca0000000400081804800020149008b05e900f6
:100cb000c909dd008301700001003200130020002b
:100cc000c814de004814dd004709de001200b2003f
:100cd000c808de000884700063ff070001f0a1006f
:100ce0000cf0a70001f0a000abff37006120e1008d
:100cf000adff32000801be000200be00f7ff370062
:100d00006150e100fcff3a00a7ff3700889fbe005a
:100d10008a9fbe000003be0079ff070085057800aa
:100d200082815200020020006220e10004003a00ab
:100d3000f307b100040035007718e1000400350026
:100d40000600be00140037006000b8000f00370036
:100d5000f50f2000faff2f008502d1000a85d3008d
:100d60008301e900fcff3b00818462000004650010
:100d7000890f7400f2ff32008582ea000a85ea00da
:100d8000818462000004650037ff070007f0a700b8
:100d900001f0a0000081eb000200e0004f05be0062
:100da0004f04be0000000600889fbe008a9fbe0060
:100db000841f780067ff07004f00780011003300a0
:100dc000f0ff2f00838f6c0006003b0004056500d8
:100dd0000a00a7000800370009f0a6001000200054
:100de00008003700820f5400838f5c000300390035
:100df0001000200001003e000000200009f0a700c4
:100e00000000ea004f05be004f04be000000e000f5
:100e100000000600889fbe008a9fbe00008270000e
:100e20000402710004827100260032000004be003a
:100e30000200be006011b8006b092000950220007e
:100e40000182cf000a0039000541b1000082cf00c5
:100e5000070039000541b1000982cf0004003900c4
:100e60000541b1000882cf00010039000541b10001
:100e700005425200120032000a003b0082817100dc
:100e8000610164008100d1000080d3008984d30017
:100e90000884d3008b05e8000442e800f7ff3a001d
:100ea000070037000804440089844c000000480013
:100eb000818048008b05e9000442e900f9ff3a000f
:100ec000e9fe07004f05be004f04be00000006000b
:020000040000fa
:0200000401f009
:04001c00dfff000002
:020000040000fa
:0200000401f009
:040014005f00000089
:020000040000fa
:0200000401f009
:04001000620000008a
:020000040000fa
:0200000401f009
:04000c00820000006e
:020000040000fa
:04004800c8020000ea
:020000040000fa
:04005c00dc020000c2
:020000040000fa
:04005800f4020000ae
:020000040000fa
:040054002e03000077
:020000040000fa
:100ed0002f02b000889fbe008a9fbe008c9fbe007c
:100ee0008e1f7800d0408000608288008000eb0078
:100ef00080fe07000006be00408188005181880006
:100f0000c00221001001be00b2b79f00c3b79f000e
:100f10000c88be002202ab00200032009560a900c0
:100f200021818000308180002202ab0010003a0055
:100f3000180037000100e000090032008100e900dc
:100f40001001780033118000837279001001e800ed
:100f5000040861002202ab00f6ff3a000d003700e2
:100f6000301180002202ab00fdff3a00090037007b
:100f7000808050008180ea00f13fb200f8ff32002b
:100f80008100e9004002210045c22000f43f20001a
:100f9000ebff37008560a9009560a80021818000e3
:100fa00030818000808f50000c00320041c2200050
:100fb000e1407800e2042100014978000000e800e7
:100fc000f33f200062022100030960000143780022
:100fd000c38120008649780007003700e004210023
:100fe000c181200091407800014878002222ab00a6
:100ff000010032002222a900e00421001040780004
:10100000e0ef9f000087fb006011b800d2b79f009f
:10101000e3b79f000e28a300040032000000200068
:1010200001f82300d0b79f00e1b79f0048818000fe
:10103000598180000200200003f023000800be0058
:10104000fefe07006011b800b0fd07000005be00fd
:10105000000321001001be0092b79f00a3b79f00bc
:101060000888be004e77dd00cf70de0064004000cf
:101070001001be00f2af9f0083b79f000888be003a
:10108000640040001001be00d2af9f00e3af9f009c
:101090000888be00efe9970061c761006400400066
:1010a0001001be00f2b79f0083bf9f000888be00fa
:1010b000640040001001be00b2af9f00c3af9f00ac
:1010c0000888be00640040001001be0092af9f007f
:1010d000a3af9f000888be000e04e0003d00320070
:1010e0000104e000210032006011b8005fb09700f9
:1010f000efb097005afe07000000e0001100320038
:101100000200200003f023000c00be00cbfe07000d
:101110006011b8007dfd07000004be000200200041
:1011200003f023003fb09700cfb09700c3fe070045
:101130000001be000800be0074fd07000004be00f0
:101140004f0037000200200003f023001fb097007b
:10115000afb09700b9fe07000001be000a00be0054
:101160006afd07000004be00450037006011b800aa
:101170005fb09700efb0970039fe07000000e00075
:101180000a0032000200200003f023007fa897002d
:101190008fb09700a9fe07000001be000a00be0044
:1011a0005afd07000004be00350037000200200091
:1011b00003f023005fa89700efa897009ffe0700a9
:1011c0000001be000a00be0050fd07000004be0082
:1011d0002b0037000104e0001a0032006011b80053
:1011e0005fb09700efb097001dfe07000000e00021
:1011f0000a0032000200200003f023007fb09700b5
:101200008fb897008dfe07000001be000a00be00e7
:101210003efd07000004be00190037000200200058
:1012200003f023003fa89700cfa8970083fe070094
:101230000001be000a00be0034fd07000004be002d
:101240000f0037006011b8005fb09700efb0970053
:1012500003fe07000000e000090032000200200049
:1012600003f023001fa89700afa8970073fe0700a4
:101270000001be000a00be0024fd07000004be00fd
:101280004882880059828800c2ff2f000800be00f3
:1012900048fe070099fd07000004be00de000700bd
:1012a0000004e0006b003a000800be00bc0007002c
:1012b0000004e00067003a00020020000338240028
:1012c0000800be0095fd07000004be006011b800d4
:1012d0006bfd07000000e00005003d000800be00b7
:1012e00001f0a20068fd07000040ea00020037009c
:1012f0000800be0064fd0700f1042100804878006a
:101300008e017800618761000e074700d1ff2f0032
:1013100026168000868060008100770021168800f4
:1013200001c22000110178000181e80092017800db
:10133000910178000482200000f279008301e80026
:10134000f33fb200830878009580a9008580a9004a
:10135000120078002322ab0010003a0001618000e7
:10136000808f50000d003200f33f2000022020004b
:1013700005c22000e44078008180fb002111880034
:101380000000e80003006000161180008600610084
:1013900002003a00950f1000f6ff3a001061880035
:1013a00001618000808f5000010032009580a8000c
:1013b000b2ff2f004082800051828000fdfd0700b7
:1013c0004efd07000004be00930007000004e0008b
:1013d00022003a000800be00710007000004e0008f
:1013e0001e003a0002002000037824000800be001e
:1013f0004afd07000004be006011b8000000be00f6
:101400001ffd07000000e00005003d000800be00d1
:1014100001f0a2001cfd07000000ea0002003700f6
:101420000800be0018fd070061168000010068007a
:10143000f007b20000806800601688004f0778004f
:101440004f06be004f05be004f04be002f02b10084
:10145000000006006044b800a5ff37006044b800f3
:10146000efff370040002000260007008002210027
:10147000130009000018eb002823ef00a001200052
:10148000201988002223ef0040442800001988001a
:10149000f0f82f00aa00b6000050a0005005880008
:1014a00085a0a90095a0a800600520004011880033
:1014b0008000280000118800004c280010118800ce
:1014c0000000eb00106188000061880081ff2f00a0
:1014d00052058000828060005100b30051058800f1
:1014e0008580a9009580a80030818800208188002f
:1014f00000002700a820b7008560a9009560a8001b
:1015000000000600bf0007004040880051408800ee
:10151000b9000700a0408800b1408800af00070074
:101520000040880011408800a90007006040880042
:1015300071408800ae0007002040880031408800dc
:10154000a800070080408800914088000000060045
:10155000889fbe008a1f78000004be000240800001
:1015600013408000c6fc07001ac0b3000000e00072
:101570000700320022408000334080000800be0097
:10158000bffc07000000e000010032000045eb0056
:101590000a4078004f0578004f04be0000000600a6
:1015a000889fbe008a1f78000004be006240800051
:1015b00073408000b2fc07001ac0b3000000e000d6
:1015c0000700320082408000934080000800be0087
:1015d000abfc07000000e000010032000045eb001a
:1015e0000a4078004f0578004f04be000000060056
:1015f000881f780018c0b3000001be0018fd070066
:101600000000e00001003a000044eb0008407800d0
:101610004f04780000000600881f780018c0b3004f
:101620000001be000efd07000000e00001003a00ce
:101630000044eb00084078004f04780000000600ea
:101640004387ab001600320043c7ab0014003a00da
:10165000a10920000001eb00800720003374200066
:10166000804978008149780082497800710520001e
:1016700012002000600420002374200080497800bc
:1016800081497800824978000000000000000000d5
:1016900000002700123a800082006000fdff3a003f
:1016a000e0062000303a880050002000203a8800f0
:1016b000a1092000320020008007200033742000a0
:1016c00080497800814978008249780071052000be
:1016d000120020006004200023742000804978005c
:1016e00081497800824978006800500060198800bc
:1016f000a0002000203588000030200050368800ef
:10170000d0ff2f000016880000782f0040168800b8
:101710000100270000002300133a800003816000cd
:10172000800f5100fcff3a0000022000123a8000b6
:1017300082006000fdff32004aff07001221ef0027
:10174000f0c32900700888008500a9009500a80052
:101750000000e9005008880013e1a8001808e20022
:10176000feff320042a0a8001808a900d8fd07001b
:0817700042a0a900f9ff3700b7
:020000040000fa
:101778001808000002000000000000001a0800001d
:101788000200000000000000200800000808000017
:101798000000000000080000180000000000000021
:1017a8002810000028000000000000001c080000ad
:1017b80002000000000000001e08000002000000f7
:0817c800000000000000000019
:020000040000fa
:1017d0000000200001f8270000000600fcff0700c1
:1017e000000006000000200001f82f0000000600a5
:1017f000fcff0700000006000000200001fc2f0095
:0c18000000000600fcff070000000600ce
:00000001FF
