:020000040000fa
:040010007e0300006b
:020000040000fa
:04025c007e0300001d
:020000040000fa
:040210007e03000069
:020000040000fa
:0402b4007e030000c5
:020000040000fa
:0402b0007e030000c9
:020000040000fa
:040340007e03000038
:020000040000fa
:040270007e03000009
:020000040000fa
:040274007e03000005
:020000040000fa
:040334007e03000044
:020000040000fa
:040364007e03000014
:020000040000fa
:040360007e03000018
:020000040000fa
:040238007e03000041
:020000040000fa
:040260007e03000019
:020000040000fa
:040288007e030000f1
:020000040000fa
:0402b8007e030000c1
:020000040000fa
:0402e0007e03000099
:020000040000fa
:04031c007e0300005c
:020000040000fa
:040338007e03000040
:020000040000fa
:04033c007e0300003c
:020000040000fa
:04021c007e0300005d
:020000040000fa
:040324007e03000054
:020000040000fa
:040350007e03000028
:020000040000fa
:04022c007e0300004d
:020000040000fa
:04023c007e0300003d
:020000040000fa
:040280007e030000f9
:020000040000fa
:040284007e030000f5
:020000040000fa
:040228007e03000051
:020000040000fa
:040278007e03000001
:020000040000fa
:04029c007e030000dd
:020000040000fa
:040264007e03000015
:020000040000fa
:04027c007e030000fd
:020000040000fa
:0402bc007e030000bd
:020000040000fa
:0402c0007e030000b9
:020000040000fa
:0402c4007e030000b5
:020000040000fa
:0402c8007e030000b1
:020000040000fa
:0402cc007e030000ad
:020000040000fa
:0402d0007e030000a9
:020000040000fa
:0402d4007e030000a5
:020000040000fa
:0402d8007e030000a1
:020000040000fa
:0402e4007e03000095
:020000040000fa
:0402e8007e03000091
:020000040000fa
:0402ec007e0300008d
:020000040000fa
:0402f0007e03000089
:020000040000fa
:0402f4007e03000085
:020000040000fa
:0402f8007e03000081
:020000040000fa
:0402fc007e0300007d
:020000040000fa
:040300007e03000078
:020000040000fa
:040304007e03000074
:020000040000fa
:040308007e03000070
:020000040000fa
:040314007e03000064
:020000040000fa
:040318007e03000060
:020000040000fa
:040328007e03000050
:020000040000fa
:040344007e03000034
:020000040000fa
:040348007e03000030
:020000040000fa
:040358007e03000020
:020000040000fa
:04035c007e0300001c
:020000040000fa
:04026c007e0300000d
:020000040000fa
:04030c007e0300006c
:020000040000fa
:04034c007e0300002c
:020000040000fa
:040218007e03000061
:020000040000fa
:040230007e03000049
:020000040000fa
:040240007e03000039
:020000040000fa
:04028c007e030000ed
:020000040000fa
:040290007e030000e9
:020000040000fa
:04020c007e0300006d
:020000040000fa
:0402dc007e0300009d
:020000040000fa
:040310007e03000068
:020000040000fa
:040354007e03000024
:020000040000fa
:040320007e03000058
:020000040000fa
:040208007e03000071
:020000040000fa
:040220007e03000059
:020000040000fa
:040224007e03000055
:020000040000fa
:040268007e03000011
:020000040000fa
:04024c007e0300002d
:020000040000fa
:040250007e03000029
:020000040000fa
:0402a8007e030000d1
:020000040000fa
:0402ac007e030000cd
:020000040000fa
:040214007e03000065
:020000040000fa
:040234007e03000045
:020000040000fa
:040244007e03000035
:020000040000fa
:040248007e03000031
:020000040000fa
:040294007e030000e5
:020000040000fa
:040298007e030000e1
:020000040000fa
:04032c007e0300004c
:020000040000fa
:040254007e03000025
:020000040000fa
:040258007e03000021
:020000040000fa
:040330007e03000048
:020000040000fa
:0402a0007e030000d9
:020000040000fa
:0402a4007e030000d5
:020000040000fa
:0400b4007e030000c7
:020000040000fa
:0400b0007e030000cb
:020000040000fa
:040140007e0300003a
:020000040000fa
:040070007e0300000b
:020000040000fa
:040074007e03000007
:020000040000fa
:040134007e03000046
:020000040000fa
:040164007e03000016
:020000040000fa
:040160007e0300001a
:020000040000fa
:040038007e03000043
:020000040000fa
:040060007e0300001b
:020000040000fa
:040088007e030000f3
:020000040000fa
:0400b8007e030000c3
:020000040000fa
:0400e0007e0300009b
:020000040000fa
:04011c007e0300005e
:020000040000fa
:040138007e03000042
:020000040000fa
:04013c007e0300003e
:020000040000fa
:04001c007e0300005f
:020000040000fa
:040124007e03000056
:020000040000fa
:040150007e0300002a
:020000040000fa
:04002c007e0300004f
:020000040000fa
:04003c007e0300003f
:020000040000fa
:040080007e030000fb
:020000040000fa
:040084007e030000f7
:020000040000fa
:040028007e03000053
:020000040000fa
:040078007e03000003
:020000040000fa
:04009c007e030000df
:020000040000fa
:040064007e03000017
:020000040000fa
:04007c007e030000ff
:020000040000fa
:0400bc007e030000bf
:020000040000fa
:0400c0007e030000bb
:020000040000fa
:0400c4007e030000b7
:020000040000fa
:0400c8007e030000b3
:020000040000fa
:0400cc007e030000af
:020000040000fa
:0400d0007e030000ab
:020000040000fa
:0400d4007e030000a7
:020000040000fa
:0400d8007e030000a3
:020000040000fa
:0400e4007e03000097
:020000040000fa
:0400e8007e03000093
:020000040000fa
:0400ec007e0300008f
:020000040000fa
:0400f0007e0300008b
:020000040000fa
:0400f4007e03000087
:020000040000fa
:0400f8007e03000083
:020000040000fa
:0400fc007e0300007f
:020000040000fa
:040100007e0300007a
:020000040000fa
:040104007e03000076
:020000040000fa
:040108007e03000072
:020000040000fa
:040114007e03000066
:020000040000fa
:040118007e03000062
:020000040000fa
:040128007e03000052
:020000040000fa
:040144007e03000036
:020000040000fa
:040148007e03000032
:020000040000fa
:040158007e03000022
:020000040000fa
:04015c007e0300001e
:020000040000fa
:04006c007e0300000f
:020000040000fa
:04010c007e0300006e
:020000040000fa
:04014c007e0300002e
:020000040000fa
:040018007e03000063
:020000040000fa
:040030007e0300004b
:020000040000fa
:040040007e0300003b
:020000040000fa
:04008c007e030000ef
:020000040000fa
:040090007e030000eb
:020000040000fa
:04000c007e0300006f
:020000040000fa
:0400dc007e0300009f
:020000040000fa
:040110007e0300006a
:020000040000fa
:040154007e03000026
:020000040000fa
:040120007e0300005a
:020000040000fa
:040008007e03000073
:020000040000fa
:040020007e0300005b
:020000040000fa
:040024007e03000057
:020000040000fa
:040068007e03000013
:020000040000fa
:04004c007e0300002f
:020000040000fa
:040050007e0300002b
:020000040000fa
:0400a8007e030000d3
:020000040000fa
:0400ac007e030000cf
:020000040000fa
:040014007e03000067
:020000040000fa
:040034007e03000047
:020000040000fa
:040044007e03000037
:020000040000fa
:040094007e030000e7
:020000040000fa
:040098007e030000e3
:020000040000fa
:04012c007e0300004e
:020000040000fa
:040130007e0300004a
:020000040000fa
:0400a0007e030000db
:020000040000fa
:0400a4007e030000d7
:020000040000fa
:080000000002040000000000f2
:020000040000fa
:100400004f3a21000e7f24000e01880000000000fa
:10041000000020000000e000020032000001200087
:100420002002880014000700b60007000000e0006a
:1004300003003a0080ed2000010020000200370098
:100440000000200001002000810f70000100320038
:1004500014000700000020000000e000020032004d
:1004600000000200000000003c0e0200000000003e
:100470000040da000000fe004440a9008013200084
:100480000000e0000300320000002000a00188000e
:100490004440a800000006008a1f78008b1f7800e7
:1004a0000000060091018800800478000000eb0045
:1004b0001a003700e284440032a0b4009905ba0063
:1004c000e284440032a0b4009906ba00e2844400f9
:1004d00032a0b4000006eb00476fde00fd07b2005b
:1004e000636ce10003003a00ebff07000000eb0043
:1004f0000a003700606ce10004003a00005deb0088
:100500008b05e900fdff3e00040037006168e10053
:10051000010032000086eb000b00070019c7ba008b
:100520001905ba000e04e00003003a000a00e000da
:10053000e0ff3a0000000600fe07b2009e018800be
:100540008a047800f5ff3700395dba008b05e900b1
:100550000c003200295dba008b05e900080032006a
:100560000c00e00003003a00e284440032a0b40032
:10057000f5ff370019ddba008b05e900faff3a00f4
:100580008904e800e184440032a0b40000000600c1
:10059000801f78003400f80000002000a0018800cf
:1005a000404e2800001988008500a9003400f90099
:1005b0004f007800004006003400f800881f7800e3
:1005c00008002000a80188004f0478000003f8000c
:1005d0001808f90021e3a9001a08a80085a0a900bd
:1005e0003400f9000040060000a0fe00849fbe0019
:1005f000861f7800106180002322ab0011003a00b2
:1006000001618000810f50000e0032000482200042
:10061000f33f20000220200005c22000e4407800c3
:100620008180fb00211188000000e80003006000c9
:10063000161180008600610002003a00950f10003c
:10064000f6ff3a00106188008580a9004f0378000a
:100650004f02be000080fe0000400600809fbe00ea
:10066000829fbe00849fbe00218180003081800077
:100670008560a9002202ab0010003a001800370084
:100680000100e000090032008100e900100178005b
:1006900033118000837279001001e80004086100c2
:1006a0002202ab00f6ff3a000d0037003011800047
:1006b0002202ab00fdff3a000900370080805000a5
:1006c0008180ea00f13fb200f8ff32008100e900ca
:1006d0004002210045c22000f43f2000ebff37001c
:1006e0002222ab00010032002222a9004f02be00ec
:1006f0004f01be004f00be00004006000040da007f
:100700000000fe000000050003f0a200889fbe006c
:100710008a9fbe008c1f78000e0107001501330070
:100720006450e1004f0032006420e10052003200ca
:1007300003826c0007003b000905d0000306d000cf
:10074000820f54000c065d000200390002003200e6
:1007500089017800030678008582550004003d0079
:100760000003fd008103fd008502ea008b85420045
:10077000840f720002003b0060001000e08018004f
:100780006011b8000005eb007a28e1000a0039008a
:1007900006007800c75ddd00f707b20087807500ae
:1007a0002d003700828171000a0178006105600028
:1007b0008180d1000080d3008502e900f9ff3b0071
:1007c000060440008784480002003b0060041400d7
:1007d000e0841c000988a300070032008a817100b0
:1007e00082817100610164008904d1000884d30012
:1007f0008b05e800170037000978a30013003a00c2
:100800000b00e000130034008b05e90008044400ed
:1008100089844c000a4474000978a3000d003a0052
:100820000b00e000070034008b05e90008044400d9
:1008300089844c0001003a000b0020000978a300d5
:10084000f7ff32000001eb000200370082817100e7
:100850000a017800840007000cf0a70001f0a00056
:10086000cd0037006420e10002003a00838f6c0065
:10087000cd0033000801be000200be00c6003700f4
:1008800014002000480137000001be009c00070052
:100890000470a70003f0a10003f8a30013003a00be
:1008a0006509b10010003200090035006928e10037
:1008b0000200350001002800000005000000400093
:1008c000818048008502e900fcff3a000000060034
:1008d000f88f4200050035008100d1000080d30070
:1008e0008502e800fcff3a00000006008000eb00f3
:1008f000000005006011b800460137000001eb0060
:1009000002010700040032000200200003f8230067
:1009100001f0a7007cff0700000006000400200093
:1009200000003700889fbe008a9fbe008c1f7800a1
:100930004f26dd00870007008e0033006120e100b4
:10094000430032006250e10041003e003e003900a9
:100950006420e1003c003200058255000f003b009e
:100960000402e80038003a00800f5300818f5b00da
:10097000350034000800be0003f0a10001f0a6001d
:1009800003f0a0000cf0a70060ff07008200370012
:100990000603430087834b000c46460000055300c6
:1009a00081855b00020033000a03be000c00a0003a
:1009b0000402e900f6ff3b008505780006024300cb
:1009c00087824b0004003a006000b80009f0a700dd
:1009d00001f0a000700037000002520081825a002e
:1009e0000704e000040033000603430087834b0044
:1009f0008b05e900faff3700090578000604be0000
:100a00000203be006011b80017000700e00f52009b
:100a1000e08f5a000700350002003c000c08a300dc
:100a2000040032000601be0003f0a0000cf0a70095
:100a300036ff07000a85680001f0a1000af0a70050
:100a400001f0a000540037000800be00520037003b
:100a5000100220000cf0a600f04088005200370081
:100a600004002000d0003700810020006180550084
:100a70000b003d000b00200061fe2f000100e10093
:100a80001d00340082817100610164008904d1007d
:100a90000884d3000000e800faff3a00710020004b
:100aa0006100640003007000020060000900320071
:100ab00061044400e0844c000988a5000500320070
:100ac0008b05e8006808e10002003a008904d100c3
:100ad0000884d300f20f20000258e10005003d0019
:100ae000c75ddd00f907b200898075000800780055
:100af000000006000bf827008b00780000000500be
:100b0000c70ade00f107b200f50fb200080032009c
:100b1000e1cf4200020032000170a0002400050075
:100b2000810f700001003200040805004400050038
:100b3000810f700002003a00140005008502e900f0
:100b40000000400081c04800fcff3b000170a00095
:100b5000240005000004be00e9ff07000003be00fa
:100b60000405be000200be00e5ff0700844f7500cb
:100b7000000006000200be006450e10005003600df
:100b80006420e100020036000968a30001003a0079
:100b90000800be000160a0004f0678004f05be00af
:100ba0004f04be0000000600f0ff2f00f1ff2700f9
:100bb000f9ff37000003be00d1ff07006220e1000b
:100bc000020032000600be0000000600850241005f
:100bd000e30f20000328e10005003c00a3fe2f00e6
:100be0000328e10007003d00050020000100370058
:100bf000f50f200020022000f04088006000b800bf
:100c000008003700130020008381520005003d00da
:100c10008100d1000080d3008301e800fcff3a008e
:100c200005002000c72add00f107b20085807000b2
:100c300007f0a70001f0a00000000600889fbe009a
:100c40008a9fbe008c1f7800c2ff0700c9ff3300d7
:100c500003866c006450e100240032006420e1004f
:100c6000270032006150e100220032006120e100e3
:100c7000210032008b854200eb07b1000134b8003f
:100c8000003ab8000804420089844a00013ab800da
:100c90000030b8008880400009014a000400330099
:100ca0000000400081804800020149008b05e900f6
:100cb000c909dd008301700001003200130020002b
:100cc000c814de004814dd004709de001200b2003f
:100cd000c808de000884700063ff070001f0a1006f
:100ce0000cf0a70001f0a000abff37006120e1008d
:100cf000adff32000801be000200be00f7ff370062
:100d00006150e100fcff3a00a7ff3700889fbe005a
:100d10008a9fbe000003be0079ff070085057800aa
:100d200082815200020020006220e10004003a00ab
:100d3000f307b100040035007718e1000400350026
:100d40000600be00140037006000b8000f00370036
:100d5000f50f2000faff2f008502d1000a85d3008d
:100d60008301e900fcff3b00818462000004650010
:100d7000890f7400f2ff32008582ea000a85ea00da
:100d8000818462000004650037ff070007f0a700b8
:100d900001f0a0000081eb000200e0004f05be0062
:100da0004f04be0000000600889fbe008a9fbe0060
:100db000841f780067ff07004f00780011003300a0
:100dc000f0ff2f00838f6c0006003b0004056500d8
:100dd0000a00a7000800370009f0a6001000200054
:100de00008003700820f5400838f5c000300390035
:100df0001000200001003e000000200009f0a700c4
:100e00000000ea004f05be004f04be000000e000f5
:100e100000000600889fbe008a9fbe00008270000e
:100e20000402710004827100260032000004be003a
:100e30000200be006011b8006b092000950220007e
:100e40000182cf000a0039000541b1000082cf00c5
:100e5000070039000541b1000982cf0004003900c4
:100e60000541b1000882cf00010039000541b10001
:100e700005425200120032000a003b0082817100dc
:100e8000610164008100d1000080d3008984d30017
:100e90000884d3008b05e8000442e800f7ff3a001d
:100ea000070037000804440089844c000000480013
:100eb000818048008b05e9000442e900f9ff3a000f
:100ec000e9fe07004f05be004f04be00000006000b
:020000040000fa
:04004800c8020000ea
:020000040000fa
:04005c00dc020000c2
:020000040000fa
:04005800f4020000ae
:020000040000fa
:040054002e03000077
:020000040000fa
:0200000401f009
:04001c00dfff000002
:020000040000fa
:0200000401f009
:040014005f00000089
:020000040000fa
:0200000401f009
:04001000620000008a
:020000040000fa
:0200000401f009
:04000c00820000006e
:020000040000fa
:100ed0006f310000693d000051510000843d000069
:100ee000f7850000913d0000058200009b3d000059
:100ef0004bba0000a13d00000ad70000a33d00004e
:100f00004bba0000a13d0000058200009b3d00009f
:100f1000f7850000913d000051510000843d000024
:100f20006f310000693d0000185f0000582200008a
:100f3000b8220000d63b0000b9270000653c000045
:100f40003e600000b53c000062cf0000fb3c0000aa
:100f500036be0000213d0000a0eb0000443d000033
:100f60005d210000663d00001a0d0000823d00007a
:100f7000fed400008e3d00002ce60000983d0000ed
:100f8000d2d800009f3d0000ae640000a33d0000e9
:100f9000ae640000a33d0000d2d800009f3d0000d9
:100fa0002ce60000983d0000fed400008e3d0000bd
:100fb0001a0d0000823d00005d210000663d00002a
:100fc000a0eb0000443d000036be0000213d0000c3
:100fd00062cf0000fb3c00003e600000b53c00001a
:100fe000b9270000653c0000b8220000d63b000095
:100ff000185f0000582200006f31000069bc00003b
:10100000aa94000081bc00004c66000087bc000070
:1010100027c7000084bc0000f07f000071bc000006
:10102000bf73000045bc0000a716000005bc00000f
:101030004300000044bb00006a260000553b00004e
:10104000555800002b3c0000dff40000963c0000e7
:10105000c6820000dc3c00007a090000123d00005e
:10106000fa990000353d000069b00000573d0000ce
:10107000e70e0000773d000044450000893d000078
:10108000878c0000943d00009eee00009c3d000017
:1010900095180000a23d00000ad70000a33d000003
:1010a00095180000a23d00009eee00009c3d00004f
:1010b000878c0000943d000044450000893d0000fd
:1010c000e70e0000773d000069b00000573d0000ca
:1010d000fa990000353d00007a090000123d000039
:1010e000c6820000dc3c0000dff40000963c0000fb
:1010f000555800002b3c00006a260000553b0000bc
:101100004300000044bb0000a716000005bc00001f
:10111000bf73000045bc0000f07f000071bc000000
:1011200027c7000084bc00004c66000087bc00009c
:10113000aa94000081bc00006f31000069bc00006f
:020000040000fa
:10114000cf02b000889fbe008a9fbe008c9fbe0069
:101150008e1f78002202ab00200032009560a900ab
:1011600021818000308180002202ab0010003a0013
:10117000180037000100e000090032008100e9009a
:101180001001780033118000837279001001e800ab
:10119000040861002202ab00f6ff3a000d003700a0
:1011a000301180002202ab00fdff3a000900370039
:1011b000808050008180ea00f13fb200f8ff3200e9
:1011c0008100e9004002210045c22000f43f2000d8
:1011d000ebff37008560a9009560a80021818000a1
:1011e00030818000808f50000c00320041c220000e
:1011f000e1407800223a2100014978000000e8002f
:10120000f33f2000620221000309600001417800e1
:10121000c08120000248780007003700203a2100f2
:10122000c381200093417800034878002222ab005c
:10123000010032002222a900203a21001044780047
:101240000880fb008000eb00aafd0700e09c8800fe
:10125000f19c880061436400a6df9f006100630089
:1012600080004000d0ff2f00291680000901600097
:1012700002817000221688000884fb00ce40dd0049
:10128000cf08de00e1df9f0001467800e100660044
:10129000e2ff2f006d1680000d01610002817000d9
:1012a000621688004d44dd004f44de00c8df9f0019
:1012b000e100640081804000cc02b6000080700034
:1012c00060168800c0408000009d88008000eb0010
:1012d00088fd0700f0b79f0081bf9f00c09c880079
:1012e000d19c8800887628001801be0053fe0700b4
:1012f0006011b80005fd070080b79f0091b79f00ff
:101300004a022100880678008b022000888545006b
:101310000a067800080578000004be005c01be00e3
:101320005a00be0045fe07000001be000800be00d6
:10133000f6fc07000004be008b0f5500f7ff3a00d3
:1013400080b79f0091b79f00040521007000200026
:1013500001002000820020000300200085fd2f00f6
:1013600084824200e6ff2f00f7ff2f004211dd00cc
:10137000028142001204be0008a2be000001be00ad
:1013800061005000e0805800860f5000878f5800a1
:10139000f6ff3a007fb097008fb897004081880031
:1013a000518188004c7928001c01be0023fe0700f3
:1013b0006011b800d5fc07000004be00ce04210077
:1013c0000b0920008d8545000c057800b0b79f0003
:1013d000c1b79f005e01be005a00be0017fe0700a5
:1013e0000001be000800be00c8fc07000004be00eb
:1013f0008b0f5500f7ff3a00b0af9f00c1af9f00c1
:101400003fb49700cfb49700440b21006001200047
:1014100001002000b0b79f00c1b79f0072012000fb
:101420000300200045f72f0084824200e6ff2f00d2
:10143000f7ff2f00d8b79f00e9b79f006001200099
:10144000010020006a0141004211dd0002814200da
:101450001204be0008a2be000001be0061005000e0
:10146000e0805800860f5000878f5800f5ff3a0043
:101470005fb49700efb497007fb097008fb89700e4
:1014800080828800918288000a0b21005a01be00e8
:101490005c00be00e9fd07000001be000800be00c0
:1014a0009afc07000004be008b0f5600f7ff3a00bd
:1014b00090af9f00a1af9f00841121006001200028
:1014c00001002000720120000300200005f12f0020
:1014d00084824200e6ff2f00f7ff2f003202b000a7
:1014e0004211dd00028142001204be0008a2be00cb
:1014f0000001be0061005000e0805800860f5000df
:10150000878f5800f5ff3a007fb097008fb897009b
:10151000a0858800b1858800ca7f28001a01be0016
:10152000c6fd07006011b80078fc07000004be008b
:10153000bab79f004c1121004d13b000adb79f000a
:10154000d0b79f00e1b79f008d0578005c01be0019
:101550005a00be00b9fd07000001be000800be0031
:101560006afc07000004be008b0f5500f7ff3a002d
:10157000f0a79f0081af9f005fb49700efb4970082
:10158000811b210052022000030020006402200081
:101590000500200006e72f0001034300eaff2f00ab
:1015a000fbff2f00c403b0004222dd000402430011
:1015b0001406be008ca0be000202be0061015100f4
:1015c000e08159008a0f51008b8f5900f5ff3a00d6
:1015d0007fb097008fb89700c0888800d1888800b6
:1015e0004e1b21003fb597000806be00d8b79f00ec
:1015f000e9b79f002fb497005e01be005a00be00fd
:101600008efd07000001be000c00be003ffc07007d
:101610000006be00880f5500f7ff3a00d0a79f00d4
:10162000e1a79f0081252100520220000300200035
:10163000640220000500200006dd2f0001034300a6
:10164000eaff2f00fbff2f005fa69700efa6970091
:101650004406b0004222dd00040243001404be0030
:1016600088a0be000202be0061015100e081590065
:101670008a0f51008b8f5900f5ff3a005fb4970035
:10168000efb49700dca79f00eda79f007fb1970004
:101690008fb99700c28d8800d38d88004c2521001a
:1016a0003fb797000805be000c0478002fb69700de
:1016b0005801be005e00be0060fd07000001be00d4
:1016c0000a00be0011fc07000005be008c0f570089
:1016d000f7ff3a00812f2100520220000300200072
:1016e000640220000500200006d32f000103430000
:1016f0005fa69700efa69700c408b0004222dd0065
:10170000040243001404be0088a0be000202be0012
:1017100061015100e0815900e8ff2f00f9ff2f001f
:10172000880f5100898f5900f3ff3a005fb497008a
:10173000efb497007fb197008fb99700c2928800ed
:10174000d39288004e2f2100dcb79f00edb79f0099
:101750000a06be003fb59700afb597005e01be0018
:101760005a00be0035fd07000001be000800be00a3
:10177000e6fb07000004be008b0f5500f7ff3a00a0
:101780000c05be005fb09700efb09700d0a79f0098
:10179000e1a79f00813921005202200003002000b0
:1017a000640220000500200006c92f000103430049
:1017b000d8b79f00e9b79f005fa69700efa69700f4
:1017c000440bb0004222dd00040243001404be00ba
:1017d00088a0be000202be0061015100e0815900f4
:1017e000e8ff2f00f9ff2f00880f5100898f590063
:1017f000f3ff3a005fb49700efb49700dca79f00b7
:10180000eda79f007fb197008fb99700c29788001e
:10181000d3978800afd997000304e000130032008b
:101820006fdb97000604e000080032004fdc9700f1
:101830000804e0001e0032000fb697009fb6970024
:10184000fcb79f008dbf9f0025003700cfde9700bb
:101850000d04e0001b0032001fa89700afa89700fe
:10186000f0b79f0081bf9f001d003700efd89700a1
:101870000104e000080032004fd997000204e000a4
:10188000150032005fa49700efa49700f8b79f00ff
:1018900089bf9f00120037004fde97000c04e00064
:1018a0000f003200f8b79f0089bf9f000c0037007f
:1018b0003fa99700cfa99700f2b79f0083bf9f0071
:1018c000070037007fa497008fac9700f8b79f0000
:1018d00089bf9f0002003700fab79f008bbf9f00af
:1018e000c2ff2f007fb097008fb89700b1fc0700b0
:1018f00002fc07000004be00d50007000004e00061
:101900003c003a000800be00b30007000004e000fd
:1019100038003a0002002000033824000800be000e
:10192000fefb07000004be006011b8000000be000e
:10193000d3fb07000000e00005003d000800be00ea
:1019400001f0a200d0fb07000040ea0002003700cf
:101950000800be00ccfb0700313a21008048780027
:1019600001c22000110178000181e8009201780095
:10197000910178000482200000f279008301e800e0
:10198000f33fb200830878009580a9008580a90004
:10199000120078002322ab0010003a0001618000a1
:1019a000808f50000d003200f33f20000220200005
:1019b00005c22000e44078008180fb0021118800ee
:1019c0000000e800030060001d1180008d00610030
:1019d00002003a00950f1000f6ff3a0010618800ef
:1019e00001618000808f5000040032009580a800c3
:1019f000020037006044b800d5ff37004f07780079
:101a00004f06be004f05be004f04be00cf02b1001e
:101a1000000006004000200048000700840221006a
:101a2000bd010900001aeb00c437b1002823ef0004
:101a3000a0012000201988002223ef004044280044
:101a400000198800f0f82f00aa00b6000050a0008e
:101a50005005880085a0a90095a0a8006005200079
:101a6000401188008000280000118800004c2800e8
:101a7000101188000000eb001061880000618800f0
:101a800081ff2f0052058000828060005100b3006a
:101a9000510588008580a9009580a80030818800c4
:101aa0002081880000002700a820b7008560a900d9
:101ab0009560a800640052008102200080804000f0
:101ac0006011b80002a8be00810f5000fdff3a006f
:101ad000c004210041062000808040008408b0003e
:101ae0006011b80002a8be0082a8be00840f50009a
:101af000fcff3a0046112100050a200086824200c0
:101b0000040a200005024200030a200084814100eb
:101b10000001eb006000b8008702200000abbe00af
:101b200080aabe0000aabe0080a9be000201e80093
:101b3000870f5100f9ff3a0000000600bf000700c0
:101b40004040880051408800b9000700a04088004c
:101b5000b1408800af0007000040880011408800b5
:101b6000a90007006040880071408800ae000700af
:101b70002040880031408800a8000700804088008d
:101b80009140880000000600889fbe008a1f7800f0
:101b90000004be00024080001340800038fb0700b4
:101ba0001ac0b3000000e0000700320022408000ad
:101bb000334080000800be0031fb07000000e00059
:101bc000010032000045eb000a4078004f05780024
:101bd0004f04be0000000600889fbe008a1f7800e8
:101be0000004be00624080007340800024fb0700b8
:101bf0001ac0b3000000e0000700320082408000fd
:101c0000934080000800be001dfb07000000e000bc
:101c1000010032000045eb000a4078004f057800d3
:101c20004f04be0000000600881f780018c0b300f3
:101c30000001be008afb07000000e00001003a003e
:101c40000044eb00084078004f04780000000600d4
:101c5000881f780018c0b3000001be0080fb070099
:101c60000000e00001003a000044eb00084078006a
:101c70004f047800000006004387ab0016003200d6
:101c800043c7ab0014003a00a10920000001eb009b
:101c90008007200033742000804978008149780053
:101ca00082497800710520001200200060042000a5
:101cb00023742000804978008149780082497800a7
:101cc000000000000000000000002700123a800021
:101cd00082006000fdff3a00e0062000303a8800f4
:101ce00050002000203a8800a10920003200200086
:101cf00080072000337420008049780081497800f3
:101d00008249780071052000120020006004200044
:101d10002374200080497800814978008249780046
:101d2000e000200060198800a00020002035880015
:101d30000030200050368800d0ff2f0000168800a9
:101d4000c07f2f00401688000100270000002300fc
:101d5000133a800003816000800f5100fcff3a00bd
:101d600000022000123a800082006000fdff320075
:101d700028ff07001221ef00f0c329007008880037
:101d80008500a9009500a8000000e900500888001f
:101d900013e1a8001a08e200feff320042a0a800ea
:101da0001a08a900e6fc070042a0a900f9ff3700c5
:020000040000fa
:101db00018080000020000000000000020080000d9
:101dc00008080000000000001a08000002000000df
:101dd00000000000000800001800000000000000e3
:101de000281000007c030000000000001c08000018
:101df00002000000000000001e08000002000000b9
:081e00000000000000000000da
:020000040000fa
:101e08000000200001f8270000000600fcff070082
:101e1800000006000000200001f82f000000060066
:101e2800fcff0700000006000000200001fc2f0056
:0c1e380000000600fcff07000000060090
:00000001FF
