:020000040000fa
:040010007e0300006b
:020000040000fa
:04025c007e0300001d
:020000040000fa
:040210007e03000069
:020000040000fa
:0402b4007e030000c5
:020000040000fa
:0402b0007e030000c9
:020000040000fa
:040340007e03000038
:020000040000fa
:040270007e03000009
:020000040000fa
:040274007e03000005
:020000040000fa
:040334007e03000044
:020000040000fa
:040364007e03000014
:020000040000fa
:040360007e03000018
:020000040000fa
:040238007e03000041
:020000040000fa
:040260007e03000019
:020000040000fa
:040288007e030000f1
:020000040000fa
:0402b8007e030000c1
:020000040000fa
:0402e0007e03000099
:020000040000fa
:04031c007e0300005c
:020000040000fa
:040338007e03000040
:020000040000fa
:04033c007e0300003c
:020000040000fa
:04021c007e0300005d
:020000040000fa
:040324007e03000054
:020000040000fa
:040350007e03000028
:020000040000fa
:04022c007e0300004d
:020000040000fa
:04023c007e0300003d
:020000040000fa
:040280007e030000f9
:020000040000fa
:040284007e030000f5
:020000040000fa
:040228007e03000051
:020000040000fa
:040278007e03000001
:020000040000fa
:04029c007e030000dd
:020000040000fa
:040264007e03000015
:020000040000fa
:04027c007e030000fd
:020000040000fa
:0402bc007e030000bd
:020000040000fa
:0402c0007e030000b9
:020000040000fa
:0402c4007e030000b5
:020000040000fa
:0402c8007e030000b1
:020000040000fa
:0402cc007e030000ad
:020000040000fa
:0402d0007e030000a9
:020000040000fa
:0402d4007e030000a5
:020000040000fa
:0402d8007e030000a1
:020000040000fa
:0402e4007e03000095
:020000040000fa
:0402e8007e03000091
:020000040000fa
:0402ec007e0300008d
:020000040000fa
:0402f0007e03000089
:020000040000fa
:0402f4007e03000085
:020000040000fa
:0402f8007e03000081
:020000040000fa
:0402fc007e0300007d
:020000040000fa
:040300007e03000078
:020000040000fa
:040304007e03000074
:020000040000fa
:040308007e03000070
:020000040000fa
:040314007e03000064
:020000040000fa
:040318007e03000060
:020000040000fa
:040328007e03000050
:020000040000fa
:040344007e03000034
:020000040000fa
:040348007e03000030
:020000040000fa
:040358007e03000020
:020000040000fa
:04035c007e0300001c
:020000040000fa
:04026c007e0300000d
:020000040000fa
:04030c007e0300006c
:020000040000fa
:04034c007e0300002c
:020000040000fa
:040218007e03000061
:020000040000fa
:040230007e03000049
:020000040000fa
:040240007e03000039
:020000040000fa
:04028c007e030000ed
:020000040000fa
:040290007e030000e9
:020000040000fa
:04020c007e0300006d
:020000040000fa
:0402dc007e0300009d
:020000040000fa
:040310007e03000068
:020000040000fa
:040354007e03000024
:020000040000fa
:040320007e03000058
:020000040000fa
:040208007e03000071
:020000040000fa
:040220007e03000059
:020000040000fa
:040224007e03000055
:020000040000fa
:040268007e03000011
:020000040000fa
:04024c007e0300002d
:020000040000fa
:040250007e03000029
:020000040000fa
:0402a8007e030000d1
:020000040000fa
:0402ac007e030000cd
:020000040000fa
:040214007e03000065
:020000040000fa
:040234007e03000045
:020000040000fa
:040244007e03000035
:020000040000fa
:040248007e03000031
:020000040000fa
:040294007e030000e5
:020000040000fa
:040298007e030000e1
:020000040000fa
:04032c007e0300004c
:020000040000fa
:040254007e03000025
:020000040000fa
:040258007e03000021
:020000040000fa
:040330007e03000048
:020000040000fa
:0402a0007e030000d9
:020000040000fa
:0402a4007e030000d5
:020000040000fa
:0400b4007e030000c7
:020000040000fa
:0400b0007e030000cb
:020000040000fa
:040140007e0300003a
:020000040000fa
:040070007e0300000b
:020000040000fa
:040074007e03000007
:020000040000fa
:040134007e03000046
:020000040000fa
:040164007e03000016
:020000040000fa
:040160007e0300001a
:020000040000fa
:040038007e03000043
:020000040000fa
:040060007e0300001b
:020000040000fa
:040088007e030000f3
:020000040000fa
:0400b8007e030000c3
:020000040000fa
:0400e0007e0300009b
:020000040000fa
:04011c007e0300005e
:020000040000fa
:040138007e03000042
:020000040000fa
:04013c007e0300003e
:020000040000fa
:04001c007e0300005f
:020000040000fa
:040124007e03000056
:020000040000fa
:040150007e0300002a
:020000040000fa
:04002c007e0300004f
:020000040000fa
:04003c007e0300003f
:020000040000fa
:040080007e030000fb
:020000040000fa
:040084007e030000f7
:020000040000fa
:040028007e03000053
:020000040000fa
:040078007e03000003
:020000040000fa
:04009c007e030000df
:020000040000fa
:040064007e03000017
:020000040000fa
:04007c007e030000ff
:020000040000fa
:0400bc007e030000bf
:020000040000fa
:0400c0007e030000bb
:020000040000fa
:0400c4007e030000b7
:020000040000fa
:0400c8007e030000b3
:020000040000fa
:0400cc007e030000af
:020000040000fa
:0400d0007e030000ab
:020000040000fa
:0400d4007e030000a7
:020000040000fa
:0400d8007e030000a3
:020000040000fa
:0400e4007e03000097
:020000040000fa
:0400e8007e03000093
:020000040000fa
:0400ec007e0300008f
:020000040000fa
:0400f0007e0300008b
:020000040000fa
:0400f4007e03000087
:020000040000fa
:0400f8007e03000083
:020000040000fa
:0400fc007e0300007f
:020000040000fa
:040100007e0300007a
:020000040000fa
:040104007e03000076
:020000040000fa
:040108007e03000072
:020000040000fa
:040114007e03000066
:020000040000fa
:040118007e03000062
:020000040000fa
:040128007e03000052
:020000040000fa
:040144007e03000036
:020000040000fa
:040148007e03000032
:020000040000fa
:040158007e03000022
:020000040000fa
:04015c007e0300001e
:020000040000fa
:04006c007e0300000f
:020000040000fa
:04010c007e0300006e
:020000040000fa
:04014c007e0300002e
:020000040000fa
:040018007e03000063
:020000040000fa
:040030007e0300004b
:020000040000fa
:040040007e0300003b
:020000040000fa
:04008c007e030000ef
:020000040000fa
:040090007e030000eb
:020000040000fa
:04000c007e0300006f
:020000040000fa
:0400dc007e0300009f
:020000040000fa
:040110007e0300006a
:020000040000fa
:040154007e03000026
:020000040000fa
:040120007e0300005a
:020000040000fa
:040008007e03000073
:020000040000fa
:040020007e0300005b
:020000040000fa
:040024007e03000057
:020000040000fa
:040068007e03000013
:020000040000fa
:04004c007e0300002f
:020000040000fa
:040050007e0300002b
:020000040000fa
:0400a8007e030000d3
:020000040000fa
:0400ac007e030000cf
:020000040000fa
:040014007e03000067
:020000040000fa
:040034007e03000047
:020000040000fa
:040044007e03000037
:020000040000fa
:040094007e030000e7
:020000040000fa
:040098007e030000e3
:020000040000fa
:04012c007e0300004e
:020000040000fa
:040130007e0300004a
:020000040000fa
:0400a0007e030000db
:020000040000fa
:0400a4007e030000d7
:020000040000fa
:080000000002040000000000f2
:020000040000fa
:100400004f1c21000e7f24000e0188000000000018
:10041000000020000000e000020032000001200087
:100420002002880014000700b60007000000e0006a
:1004300003003a0040ce20000100200002003700f7
:100440000000200001002000810f70000100320038
:1004500014000700000020000000e000020032004d
:100460000000020000000000480c02000000000034
:100470000040da000000fe004440a900801920007e
:100480000000e0000300320000002000a00188000e
:100490004440a800000006008a1f78008b1f7800e7
:1004a0000000060091018800800478000000eb0045
:1004b0001a003700e284440032a0b4009905ba0063
:1004c000e284440032a0b4009906ba00e2844400f9
:1004d00032a0b4000006eb00476fde00fd07b2005b
:1004e000636ce10003003a00ebff07000000eb0043
:1004f0000a003700606ce10004003a00005deb0088
:100500008b05e900fdff3e00040037006168e10053
:10051000010032000086eb000b00070019c7ba008b
:100520001905ba000e04e00003003a000a00e000da
:10053000e0ff3a0000000600fe07b2009e018800be
:100540008a047800f5ff3700395dba008b05e900b1
:100550000c003200295dba008b05e900080032006a
:100560000c00e00003003a00e284440032a0b40032
:10057000f5ff370019ddba008b05e900faff3a00f4
:100580008904e800e184440032a0b40000000600c1
:10059000801f78003400f80000002000a0018800cf
:1005a000404e2800001988008500a9003400f90099
:1005b0004f007800004006003400f800881f7800e3
:1005c00008002000a80188004f0478000003f8000c
:1005d0001808f90021e3a9001a08a80085a0a900bd
:1005e0003400f9000040060000a0fe00849fbe0019
:1005f000861f7800106180002322ab0011003a00b2
:1006000001618000810f50000e0032000482200042
:10061000f33f20000220200005c22000e4407800c3
:100620008180fb00211188000000e80003006000c9
:10063000161180008600610002003a00950f10003c
:10064000f6ff3a00106188008580a9004f0378000a
:100650004f02be000080fe0000400600809fbe00ea
:10066000829fbe00849fbe00218180003081800077
:100670008560a9002202ab0010003a001800370084
:100680000100e000090032008100e900100178005b
:1006900033118000837279001001e80004086100c2
:1006a0002202ab00f6ff3a000d0037003011800047
:1006b0002202ab00fdff3a000900370080805000a5
:1006c0008180ea00f13fb200f8ff32008100e900ca
:1006d0004002210045c22000f43f2000ebff37001c
:1006e0002222ab00010032002222a9004f02be00ec
:1006f0004f01be004f00be00004006000040da007f
:100700000000fe000000050003f0a200889fbe006c
:100710008a9fbe008c1f78000e0107001501330070
:100720006450e1004f0032006420e10052003200ca
:1007300003826c0007003b000905d0000306d000cf
:10074000820f54000c065d000200390002003200e6
:1007500089017800030678008582550004003d0079
:100760000003fd008103fd008502ea008b85420045
:10077000840f720002003b0060001000e08018004f
:100780006011b8000005eb007a28e1000a0039008a
:1007900006007800c75ddd00f707b20087807500ae
:1007a0002d003700828171000a0178006105600028
:1007b0008180d1000080d3008502e900f9ff3b0071
:1007c000060440008784480002003b0060041400d7
:1007d000e0841c000988a300070032008a817100b0
:1007e00082817100610164008904d1000884d30012
:1007f0008b05e800170037000978a30013003a00c2
:100800000b00e000130034008b05e90008044400ed
:1008100089844c000a4474000978a3000d003a0052
:100820000b00e000070034008b05e90008044400d9
:1008300089844c0001003a000b0020000978a300d5
:10084000f7ff32000001eb000200370082817100e7
:100850000a017800840007000cf0a70001f0a00056
:10086000cd0037006420e10002003a00838f6c0065
:10087000cd0033000801be000200be00c6003700f4
:1008800014002000480137000001be009c00070052
:100890000470a70003f0a10003f8a30013003a00be
:1008a0006509b10010003200090035006928e10037
:1008b0000200350001002800000005000000400093
:1008c000818048008502e900fcff3a000000060034
:1008d000f88f4200050035008100d1000080d30070
:1008e0008502e800fcff3a00000006008000eb00f3
:1008f000000005006011b800460137000001eb0060
:1009000002010700040032000200200003f8230067
:1009100001f0a7007cff0700000006000400200093
:1009200000003700889fbe008a9fbe008c1f7800a1
:100930004f26dd00870007008e0033006120e100b4
:10094000430032006250e10041003e003e003900a9
:100950006420e1003c003200058255000f003b009e
:100960000402e80038003a00800f5300818f5b00da
:10097000350034000800be0003f0a10001f0a6001d
:1009800003f0a0000cf0a70060ff07008200370012
:100990000603430087834b000c46460000055300c6
:1009a00081855b00020033000a03be000c00a0003a
:1009b0000402e900f6ff3b008505780006024300cb
:1009c00087824b0004003a006000b80009f0a700dd
:1009d00001f0a000700037000002520081825a002e
:1009e0000704e000040033000603430087834b0044
:1009f0008b05e900faff3700090578000604be0000
:100a00000203be006011b80017000700e00f52009b
:100a1000e08f5a000700350002003c000c08a300dc
:100a2000040032000601be0003f0a0000cf0a70095
:100a300036ff07000a85680001f0a1000af0a70050
:100a400001f0a000540037000800be00520037003b
:100a5000100220000cf0a600f04088005200370081
:100a600004002000d0003700810020006180550084
:100a70000b003d000b00200061fe2f000100e10093
:100a80001d00340082817100610164008904d1007d
:100a90000884d3000000e800faff3a00710020004b
:100aa0006100640003007000020060000900320071
:100ab00061044400e0844c000988a5000500320070
:100ac0008b05e8006808e10002003a008904d100c3
:100ad0000884d300f20f20000258e10005003d0019
:100ae000c75ddd00f907b200898075000800780055
:100af000000006000bf827008b00780000000500be
:100b0000c70ade00f107b200f50fb200080032009c
:100b1000e1cf4200020032000170a0002400050075
:100b2000810f700001003200040805004400050038
:100b3000810f700002003a00140005008502e900f0
:100b40000000400081c04800fcff3b000170a00095
:100b5000240005000004be00e9ff07000003be00fa
:100b60000405be000200be00e5ff0700844f7500cb
:100b7000000006000200be006450e10005003600df
:100b80006420e100020036000968a30001003a0079
:100b90000800be000160a0004f0678004f05be00af
:100ba0004f04be0000000600f0ff2f00f1ff2700f9
:100bb000f9ff37000003be00d1ff07006220e1000b
:100bc000020032000600be0000000600850241005f
:100bd000e30f20000328e10005003c00a3fe2f00e6
:100be0000328e10007003d00050020000100370058
:100bf000f50f200020022000f04088006000b800bf
:100c000008003700130020008381520005003d00da
:100c10008100d1000080d3008301e800fcff3a008e
:100c200005002000c72add00f107b20085807000b2
:100c300007f0a70001f0a00000000600889fbe009a
:100c40008a9fbe008c1f7800c2ff0700c9ff3300d7
:100c500003866c006450e100240032006420e1004f
:100c6000270032006150e100220032006120e100e3
:100c7000210032008b854200eb07b1000134b8003f
:100c8000003ab8000804420089844a00013ab800da
:100c90000030b8008880400009014a000400330099
:100ca0000000400081804800020149008b05e900f6
:100cb000c909dd008301700001003200130020002b
:100cc000c814de004814dd004709de001200b2003f
:100cd000c808de000884700063ff070001f0a1006f
:100ce0000cf0a70001f0a000abff37006120e1008d
:100cf000adff32000801be000200be00f7ff370062
:100d00006150e100fcff3a00a7ff3700889fbe005a
:100d10008a9fbe000003be0079ff070085057800aa
:100d200082815200020020006220e10004003a00ab
:100d3000f307b100040035007718e1000400350026
:100d40000600be00140037006000b8000f00370036
:100d5000f50f2000faff2f008502d1000a85d3008d
:100d60008301e900fcff3b00818462000004650010
:100d7000890f7400f2ff32008582ea000a85ea00da
:100d8000818462000004650037ff070007f0a700b8
:100d900001f0a0000081eb000200e0004f05be0062
:100da0004f04be0000000600889fbe008a9fbe0060
:100db000841f780067ff07004f00780011003300a0
:100dc000f0ff2f00838f6c0006003b0004056500d8
:100dd0000a00a7000800370009f0a6001000200054
:100de00008003700820f5400838f5c000300390035
:100df0001000200001003e000000200009f0a700c4
:100e00000000ea004f05be004f04be000000e000f5
:100e100000000600889fbe008a9fbe00008270000e
:100e20000402710004827100260032000004be003a
:100e30000200be006011b8006b092000950220007e
:100e40000182cf000a0039000541b1000082cf00c5
:100e5000070039000541b1000982cf0004003900c4
:100e60000541b1000882cf00010039000541b10001
:100e700005425200120032000a003b0082817100dc
:100e8000610164008100d1000080d3008984d30017
:100e90000884d3008b05e8000442e800f7ff3a001d
:100ea000070037000804440089844c000000480013
:100eb000818048008b05e9000442e900f9ff3a000f
:100ec000e9fe07004f05be004f04be00000006000b
:020000040000fa
:04004800c8020000ea
:020000040000fa
:04005c00dc020000c2
:020000040000fa
:04005800f4020000ae
:020000040000fa
:040054002e03000077
:020000040000fa
:0200000401f009
:04001c00dfff000002
:020000040000fa
:0200000401f009
:040014005f00000089
:020000040000fa
:0200000401f009
:04001000620000008a
:020000040000fa
:0200000401f009
:04000c00820000006e
:020000040000fa
:100ed000077e00003dba0000fdcd00004fbb0000c2
:100ee00017d30000bcbb00007aa9000008bc0000ba
:100ef000d0d500002fbc0000ffe7000050bc000070
:100f000054d9000068bc0000b4ce000074bc0000de
:100f1000c044000072bc0000bf3900005fbc00008c
:100f2000be5200003abc00007ff9000002bc000085
:100f30008bc4000065bb00000c800000043b000077
:100f40006fb200000a3c0000d3350000803c000076
:100f5000195c0000bf3c00001a5c0000003d00006e
:100f60008a010000213d0000596e0000403d000054
:100f7000297400005d3d0000a2f40000763d0000f1
:100f8000a6f70000853d000011c700008d3d000060
:100f900015980000923d0000bc380000943d000010
:100fa00015980000923d000011c700008d3d000023
:100fb000a6f70000853d0000a2f40000763d000089
:100fc000297400005d3d0000596e0000403d0000a6
:100fd0008a010000213d00001a5c0000003d000075
:100fe000195c0000bf3c0000d3350000803c0000cd
:100ff0006fb200000a3c00000c800000043b0000bf
:101000008bc4000065bb00007ff9000002bc00003b
:10101000be5200003abc0000bf3900005fbc0000b7
:10102000c044000072bc0000b4ce000074bc0000dc
:1010300054d9000068bc0000ffe7000050bc00006d
:10104000d0d500002fbc00007aa9000008bc000029
:1010500017d30000bcbb0000fdcd00004fbb00005b
:10106000077e00003dba00004c8b000044a2000047
:10107000ae4400003cbb00005bd70000c1bb0000d9
:101080009e88000012bc00004086000040bc0000aa
:101090005f52000067bc00004bad000081bc000047
:1010a000fb9f000088bc00009105000087bc000089
:1010b000bf5d000077bc0000559e00004bbc0000e7
:1010c000981b00000abc0000499300004cbb0000c4
:1010d00007aa00005f3b00001dad0000343c00008b
:1010e00058e200009f3c0000497c0000ea3c000000
:1010f0004bd800001b3d00007f670000423d000010
:10110000e0840000673d0000c2e50000843d00006f
:10111000b4f40000933d0000e7570000a03d00003c
:101120000b910000a93d00001d410000af3d0000f3
:10113000222d0000b13d00001d410000af3d000028
:101140000b910000a93d0000e7570000a03d000002
:10115000b4f40000933d0000c2e50000843d0000af
:10116000e0840000673d00007f670000423d000012
:101170004bd800001b3d0000497c0000ea3c000009
:1011800058e200009f3c00001dad0000343c000010
:1011900007aa00005f3b0000499300004cbb000021
:1011a000981b00000abc0000559e00004bbc0000cc
:1011b000bf5d000077bc00009105000087bc000007
:1011c000fb9f000088bc00004bad000081bc00000c
:1011d0005f52000067bc00004086000040bc000079
:1011e0009e88000012bc00005bd70000c1bb00005d
:1011f000ae4400003cbb00004c8b000044a2000049
:020000040000fa
:10120000f6874700889fbe008a9fbe008c9fbe0065
:101210008e1f78002202ab00200032009560a900ea
:1012200021818000308180002202ab0010003a0052
:10123000180037000100e000090032008100e900d9
:101240001001780033118000837279001001e800ea
:10125000040861002202ab00f6ff3a000d003700df
:10126000301180002202ab00fdff3a000900370078
:10127000808050008180ea00f13fb200f8ff320028
:101280008100e9004002210045c22000f43f200017
:10129000ebff37008560a9009560a80021818000e0
:1012a00030818000808f50000c00320041c220004d
:1012b000e1407800221c2100014978000000e8008c
:1012c000f33f200062022100030960000141780021
:1012d000c08120000248780007003700201c210050
:1012e000c381200093417800034878002222ab009c
:1012f000010032002222a900201c210010407800a9
:10130000a0ef9f006143600086ef9f0061006300d3
:1013100000004000d1ff2f00281680008880600068
:101320008100700021168800c0408000008e880077
:101330008000eb006ffd07000006be00e08d880016
:10134000f18d88008a7628001a01be003bfe070056
:101350006011b800edfc07000004be008e02210001
:101360008b0c20008a8545005e01be005a00be003d
:1013700032fe07000001be000800be00e3fc0700cb
:101380000004be008b0f5500f7ff3a00440f210008
:10139000f0022000010020000203200003002000d2
:1013a00045f32f0084824200e6ff2f00f7ff2f0055
:1013b0000201e8004211dd00028142001205be0078
:1013c0000aa2be000001be0061005000e08058008b
:1013d000860f5000878f5800f5ff3a006c81880017
:1013e0007d8188006000b800a0b79f00b1b79f0062
:1013f000afe897000118a3000400320002002000ab
:1014000003f82300a2b79f00b3b79f004e832800c4
:101410001e01be000c00be0008fe07006011b800ef
:10142000bafc07000005be00030f2100f3af9f00c8
:1014300046f32f000e0343004619b000dcb79f00af
:10144000edb79f000606780088b79f0099b79f0008
:10145000080f21005801be005e00be00f7fd070026
:101460000001be000a00be00a8fc07000005be0087
:101470008c0f5700f7ff3a005fb69700efb6970062
:101480000fb497009fb49700c41b2100f002200006
:10149000010020000203200003002000f2b79f009b
:1014a00083bf9f00c5e62f0084824200e6ff2f0025
:1014b000f7ff2f008cb79f009db79f00d8b79f0004
:1014c000e9b79f0002032000030020003203b000b0
:1014d0004211dd00028142001204be0008a2be00db
:1014e0000001be0061005000e0805800860f5000ef
:1014f000878f5800f5ff3a000fb697009fb6970008
:101500005fb49700efb49700ac878800bd87880070
:101510000fe897000004e000080032006011b800f6
:101520002fb09700bfb097004dfd07000000e0000e
:10153000090032000806be00070037006011b8003d
:101540002fb09700bfb0970045fd07000000e000f6
:1015500001003a000a06be00c2ff2f000c00be00c8
:1015600094fd0700e5fc07000004be00be00070074
:101570000004e0003c003a000800be009c000700a8
:101580000004e00038003a00020020000338240084
:101590000800be00e1fc07000004be006011b800b6
:1015a0000000be00b6fc07000000e00005003d00a2
:1015b0000800be0001f0a200b3fc07000040ea00f2
:1015c000020037000800be00affc0700311c2100fc
:1015d0008048780001c22000110178000181e800f4
:1015e00092017800910178000482200000f27900d5
:1015f0008301e800f33fb200830878009580a900da
:101600008580a900120078002322ab0010003a0068
:1016100001618000808f50000d003200f33f2000f8
:101620000220200005c22000e44078008180fb00f9
:10163000211188000000e8000300600016118000fe
:101640008600610002003a00950f1000f6ff3a0094
:101650001061880001618000808f5000040032001a
:101660009580a800020037006044b800d5ff37001d
:101670004f0778004f06be004f05be004f04be0066
:101680006f01b1000000060040002000310007009b
:1016900084022100cd000900001aeb00c419b1003a
:1016a0002823ef00a1012000211988002223ef0048
:1016b0004144280001198800f1f82f0050058000ee
:1016c000808060000150a0005105880085a0a9001d
:1016d00095a0a80061052000411188008100280024
:1016e00001118800014c2800111188008000eb00d6
:1016f000116188000161880082ff2f00530580007e
:10170000030161005200b300520588008580a900e2
:101710009580a80031818800218188000000270081
:10172000a820b7008560a9009560a8000400780093
:10173000810c200080804000010278006011b80018
:1017400002a8be0082a8be00840f5000fcff3a0031
:1017500000000600bf00070040408800514088009c
:10176000b9000700a0408800b1408800af00070022
:101770000040880011408800a900070060408800f0
:1017800071408800ae00070020408800314088008a
:10179000a8000700804088009140880000000600f3
:1017a000889fbe008a1f78000004be0002408000af
:1017b0001340800032fc07001ac0b3000000e000b4
:1017c0000700320022408000334080000800be0045
:1017d0002bfc07000000e000010032000045eb0098
:1017e0000a4078004f0578004f04be000000060054
:1017f000889fbe008a1f78000004be0062408000ff
:10180000734080001efc07001ac0b3000000e00017
:101810000700320082408000934080000800be0034
:1018200017fc07000000e000010032000045eb005b
:101830000a4078004f0578004f04be000000060003
:10184000881f780018c0b3000001be0084fc0700a8
:101850000000e00001003a000044eb00084078007e
:101860004f04780000000600881f780018c0b300fd
:101870000001be007afc07000000e00001003a0011
:101880000044eb00084078004f0478000000060098
:101890004387ab001600320043c7ab0014003a0088
:1018a000a10920000001eb00800720003374200014
:1018b00080497800814978008249780071052000cc
:1018c000120020006004200023742000804978006a
:1018d0008149780082497800000000000000000083
:1018e00000002700123a800082006000fdff3a00ed
:1018f000e0062000303a880050002000203a88009e
:10190000a10920003200200080072000337420004d
:10191000804978008149780082497800710520006b
:101920001200200060042000237420008049780009
:1019300081497800824978002000200060198800e1
:10194000a00020002035880000302000503688009c
:10195000d0ff2f0000168800f07f2f00401688006f
:101960000100270000002300133a8000038160007b
:10197000800f5100fcff3a0000022000123a800064
:1019800082006000fdff32003fff07001221ef00e0
:10199000f0c32900700888008500a9009500a80000
:1019a0000000e9005008880013e1a8001a08e200ce
:1019b000feff320042a0a8001a08a90010fe07008e
:0819c00042a0a900f9ff370065
:020000040000fa
:1019c80018080000020000000000000020080000c5
:1019d80008080000000000001a08000002000000cb
:1019e80000000000000800001800000000000000cf
:1019f800281000009c010000000000001c080000e6
:101a080002000000000000001e08000002000000a4
:081a18000000000000000000c6
:020000040000fa
:101a20000000200001f8270000000600fcff07006e
:101a3000000006000000200001f82f000000060052
:101a4000fcff0700000006000000200001fc2f0042
:0c1a500000000600fcff0700000006007c
:00000001FF
