:020000040000fa
:040010008003000069
:020000040000fa
:04025c00800300001b
:020000040000fa
:040210008003000067
:020000040000fa
:0402b40080030000c3
:020000040000fa
:0402b00080030000c7
:020000040000fa
:040340008003000036
:020000040000fa
:040270008003000007
:020000040000fa
:040274008003000003
:020000040000fa
:040334008003000042
:020000040000fa
:040364008003000012
:020000040000fa
:040360008003000016
:020000040000fa
:04023800800300003f
:020000040000fa
:040260008003000017
:020000040000fa
:0402880080030000ef
:020000040000fa
:0402b80080030000bf
:020000040000fa
:0402e0008003000097
:020000040000fa
:04031c00800300005a
:020000040000fa
:04033800800300003e
:020000040000fa
:04033c00800300003a
:020000040000fa
:04021c00800300005b
:020000040000fa
:040324008003000052
:020000040000fa
:040350008003000026
:020000040000fa
:04022c00800300004b
:020000040000fa
:04023c00800300003b
:020000040000fa
:0402800080030000f7
:020000040000fa
:0402840080030000f3
:020000040000fa
:04022800800300004f
:020000040000fa
:0402780080030000ff
:020000040000fa
:04029c0080030000db
:020000040000fa
:040264008003000013
:020000040000fa
:04027c0080030000fb
:020000040000fa
:0402bc0080030000bb
:020000040000fa
:0402c00080030000b7
:020000040000fa
:0402c40080030000b3
:020000040000fa
:0402c80080030000af
:020000040000fa
:0402cc0080030000ab
:020000040000fa
:0402d00080030000a7
:020000040000fa
:0402d40080030000a3
:020000040000fa
:0402d800800300009f
:020000040000fa
:0402e4008003000093
:020000040000fa
:0402e800800300008f
:020000040000fa
:0402ec00800300008b
:020000040000fa
:0402f0008003000087
:020000040000fa
:0402f4008003000083
:020000040000fa
:0402f800800300007f
:020000040000fa
:0402fc00800300007b
:020000040000fa
:040300008003000076
:020000040000fa
:040304008003000072
:020000040000fa
:04030800800300006e
:020000040000fa
:040314008003000062
:020000040000fa
:04031800800300005e
:020000040000fa
:04032800800300004e
:020000040000fa
:040344008003000032
:020000040000fa
:04034800800300002e
:020000040000fa
:04035800800300001e
:020000040000fa
:04035c00800300001a
:020000040000fa
:04026c00800300000b
:020000040000fa
:04030c00800300006a
:020000040000fa
:04034c00800300002a
:020000040000fa
:04021800800300005f
:020000040000fa
:040230008003000047
:020000040000fa
:040240008003000037
:020000040000fa
:04028c0080030000eb
:020000040000fa
:0402900080030000e7
:020000040000fa
:04020c00800300006b
:020000040000fa
:0402dc00800300009b
:020000040000fa
:040310008003000066
:020000040000fa
:040354008003000022
:020000040000fa
:040320008003000056
:020000040000fa
:04020800800300006f
:020000040000fa
:040220008003000057
:020000040000fa
:040224008003000053
:020000040000fa
:04026800800300000f
:020000040000fa
:04024c00800300002b
:020000040000fa
:040250008003000027
:020000040000fa
:0402a80080030000cf
:020000040000fa
:0402ac0080030000cb
:020000040000fa
:040214008003000063
:020000040000fa
:040234008003000043
:020000040000fa
:040244008003000033
:020000040000fa
:04024800800300002f
:020000040000fa
:0402940080030000e3
:020000040000fa
:0402980080030000df
:020000040000fa
:04032c00800300004a
:020000040000fa
:040254008003000023
:020000040000fa
:04025800800300001f
:020000040000fa
:040330008003000046
:020000040000fa
:0402a00080030000d7
:020000040000fa
:0402a40080030000d3
:020000040000fa
:0400b40080030000c5
:020000040000fa
:0400b00080030000c9
:020000040000fa
:040140008003000038
:020000040000fa
:040070008003000009
:020000040000fa
:040074008003000005
:020000040000fa
:040134008003000044
:020000040000fa
:040164008003000014
:020000040000fa
:040160008003000018
:020000040000fa
:040038008003000041
:020000040000fa
:040060008003000019
:020000040000fa
:0400880080030000f1
:020000040000fa
:0400b80080030000c1
:020000040000fa
:0400e0008003000099
:020000040000fa
:04011c00800300005c
:020000040000fa
:040138008003000040
:020000040000fa
:04013c00800300003c
:020000040000fa
:04001c00800300005d
:020000040000fa
:040124008003000054
:020000040000fa
:040150008003000028
:020000040000fa
:04002c00800300004d
:020000040000fa
:04003c00800300003d
:020000040000fa
:0400800080030000f9
:020000040000fa
:0400840080030000f5
:020000040000fa
:040028008003000051
:020000040000fa
:040078008003000001
:020000040000fa
:04009c0080030000dd
:020000040000fa
:040064008003000015
:020000040000fa
:04007c0080030000fd
:020000040000fa
:0400bc0080030000bd
:020000040000fa
:0400c00080030000b9
:020000040000fa
:0400c40080030000b5
:020000040000fa
:0400c80080030000b1
:020000040000fa
:0400cc0080030000ad
:020000040000fa
:0400d00080030000a9
:020000040000fa
:0400d40080030000a5
:020000040000fa
:0400d80080030000a1
:020000040000fa
:0400e4008003000095
:020000040000fa
:0400e8008003000091
:020000040000fa
:0400ec00800300008d
:020000040000fa
:0400f0008003000089
:020000040000fa
:0400f4008003000085
:020000040000fa
:0400f8008003000081
:020000040000fa
:0400fc00800300007d
:020000040000fa
:040100008003000078
:020000040000fa
:040104008003000074
:020000040000fa
:040108008003000070
:020000040000fa
:040114008003000064
:020000040000fa
:040118008003000060
:020000040000fa
:040128008003000050
:020000040000fa
:040144008003000034
:020000040000fa
:040148008003000030
:020000040000fa
:040158008003000020
:020000040000fa
:04015c00800300001c
:020000040000fa
:04006c00800300000d
:020000040000fa
:04010c00800300006c
:020000040000fa
:04014c00800300002c
:020000040000fa
:040018008003000061
:020000040000fa
:040030008003000049
:020000040000fa
:040040008003000039
:020000040000fa
:04008c0080030000ed
:020000040000fa
:0400900080030000e9
:020000040000fa
:04000c00800300006d
:020000040000fa
:0400dc00800300009d
:020000040000fa
:040110008003000068
:020000040000fa
:040154008003000024
:020000040000fa
:040120008003000058
:020000040000fa
:040008008003000071
:020000040000fa
:040020008003000059
:020000040000fa
:040024008003000055
:020000040000fa
:040068008003000011
:020000040000fa
:04004c00800300002d
:020000040000fa
:040050008003000029
:020000040000fa
:0400a80080030000d1
:020000040000fa
:0400ac0080030000cd
:020000040000fa
:040014008003000065
:020000040000fa
:040034008003000045
:020000040000fa
:040044008003000035
:020000040000fa
:0400940080030000e5
:020000040000fa
:0400980080030000e1
:020000040000fa
:04012c00800300004c
:020000040000fa
:040130008003000048
:020000040000fa
:0400a00080030000d9
:020000040000fa
:0400a40080030000d5
:020000040000fa
:080000000002040000000000f2
:020000040000fa
:100400000fe420000e7f24000e0188000000000091
:10041000000020000000e000020032000001200087
:100420002002880014000700b70007000000e00069
:1004300003003a0020e02000010020000200370005
:100440000000200001002000810f70000100320038
:1004500014000700000020000000e000020032004d
:100460000000020000000000660d02000000000015
:100470000040da000000fe004440a900c013200044
:100480000000e0000300320000002000a00188000e
:100490004440a800000006008a1f78008b1f7800e7
:1004a0000000060091018800800478000000eb0045
:1004b0001a003700e284440032a0b4009905ba0063
:1004c000e284440032a0b4009906ba00e2844400f9
:1004d00032a0b4000006eb00476fde00fd07b2005b
:1004e000636ce10003003a00ebff07000000eb0043
:1004f0000a003700606ce10004003a00005deb0088
:100500008b05e900fdff3e00040037006168e10053
:10051000010032000086eb000b00070019c7ba008b
:100520001905ba000e04e00003003a000a00e000da
:10053000e0ff3a0000000600fe07b2009e018800be
:100540008a047800f5ff3700395dba008b05e900b1
:100550000c003200295dba008b05e900080032006a
:100560000c00e00003003a00e284440032a0b40032
:10057000f5ff370019ddba008b05e900faff3a00f4
:100580008904e800e184440032a0b40000000600c1
:10059000801f78003400f80000002000a0018800cf
:1005a000404e2800001988008500a9003400f90099
:1005b0004f007800004006003400f800881f7800e3
:1005c00008002000a80188004f0478000003f8000c
:1005d0001a08f90021e3a9001808a80085a0a900bd
:1005e0003400f9000040060000a0fe00849fbe0019
:1005f000861f7800104380002322ab0012003a00cf
:1006000001438000810f50000f003200048220005f
:10061000f303200002202000050420008482420011
:10062000e44078008180fb00211188000000e80090
:1006300003006000161180008600610002003a008d
:10064000950f1000f6ff3a00104388008580a9003e
:100650004f0378004f02be000080fe0000400600fd
:10066000809fbe00829fbe00849fbe0021638000e9
:10067000306380008560a9002202ab0010003a00c0
:10068000180037000100e000090032008100e90095
:100690001001780033118000837279001001e800a6
:1006a000040861002202ab00f6ff3a000d0037009b
:1006b000301180002202ab00fdff3a000900370034
:1006c000808050008180ea00f13fb200f8ff3200e4
:1006d0008100e90040c6200045862000f43f20004c
:1006e000ebff37002222ab00010032002222a900da
:1006f0004f02be004f01be004f00be00004006008a
:100700000040da000000fe000000050003f0a20037
:10071000889fbe008a9fbe008c1f78000e010700d4
:10072000150133006450e1004f0032006420e10005
:100730005200320003826c0007003b000905d00024
:100740000306d000820f54000c065d000200390041
:100750000200320089017800030678008582550086
:1007600004003d000003fd008103fd008502ea0056
:100770008b854200840f720002003b006000100075
:10078000e08018006011b8000005eb007a28e10055
:100790000a00390006007800c75ddd00f707b200e7
:1007a000878075002d003700828171000a01780072
:1007b000610560008180d1000080d3008502e900de
:1007c000f9ff3b00060440008784480002003b001c
:1007d00060041400e0841c000988a30007003200b4
:1007e0008a81710082817100610164008904d100f5
:1007f0000884d3008b05e800170037000978a300b0
:1008000013003a000b00e000130034008b05e900f0
:100810000804440089844c000a4474000978a30049
:100820000d003a000b00e000070034008b05e900e2
:100830000804440089844c0001003a000b002000a9
:100840000978a300f7ff32000001eb000200370037
:10085000828171000a017800840007000cf0a70073
:1008600001f0a000cd0037006420e10002003a0052
:10087000838f6c00cd0033000801be000200be0073
:10088000c600370014002000480137000001be00f8
:100890009c0007000470a70003f0a10003f8a30068
:1008a00013003a006509b10010003200090035005c
:1008b0006928e10002003500010028000000050061
:1008c00000004000818048008502e900fcff3a00fa
:1008d00000000600f88f4200050035008100d100bd
:1008e0000080d3008502e800fcff3a00000006000b
:1008f0008000eb00000005006011b80046013700e1
:100900000001eb0002010700040032000200200099
:1009100003f8230001f0a7007cff07000000060099
:100920000400200000003700889fbe008a9fbe00a0
:100930008c1f78004f26dd00870007008e003300f3
:100940006120e100430032006250e10041003e00be
:100950003e0039006420e1003c0032000582550071
:100960000f003b000402e80038003a00800f5300fb
:10097000818f5b00350034000800be0003f0a10049
:1009800001f0a60003f0a0000cf0a70060ff070034
:10099000820037000603430087834b000c46460065
:1009a0000005530081855b00020033000a03be008e
:1009b0000c00a0000402e900f6ff3b00850578006a
:1009c0000602430087824b0004003a006000b80032
:1009d00009f0a70001f0a0007000370000025200eb
:1009e00081825a000704e00004003300060343003c
:1009f00087834b008b05e900faff37000905780073
:100a00000604be000203be006011b8001700070014
:100a1000e00f5200e08f5a000700350002003c0052
:100a20000c08a300040032000601be0003f0a00081
:100a30000cf0a70036ff07000a85680001f0a1004e
:100a40000af0a70001f0a000540037000800be0023
:100a500052003700100220000cf0a600f040880081
:100a60005200370004002000d00037008100200031
:100a7000618055000b003d000b00200061fe2f003f
:100a80000100e1001d0034008281710061016400f9
:100a90008904d1000884d3000000e800faff3a007e
:100aa000710020006100640003007000020060001b
:100ab0000900320061044400e0844c000988a5006c
:100ac000050032008b05e8006808e10002003a00ea
:100ad0008904d1000884d300f20f20000258e100fd
:100ae00005003d00c75ddd00f907b2008980750093
:100af00008007800000006000bf827008b00780043
:100b000000000500c70ade00f107b200f50fb200d1
:100b100008003200e1cf4200020032000170a00064
:100b200024000500810f7000010032000408050058
:100b300044000500810f700002003a001400050017
:100b40008502e9000000400081c04800fcff3b0036
:100b50000170a000240005000004be00e9ff0700aa
:100b60000003be000405be000200be00e5ff070052
:100b7000844f7500000006000200be006450e100d2
:100b8000050036006420e100020036000968a30079
:100b900001003a000800be000160a0004f06780086
:100ba0004f05be004f04be0000000600f0ff2f00fe
:100bb000f1ff2700f9ff37000003be00d1ff070057
:100bc0006220e100020032000600be0000000600c4
:100bd00085024100e30f20000328e10005003c00ee
:100be000a3fe2f000328e10007003d0005002000c0
:100bf00001003700f50f200020022000f04088009f
:100c00006000b80008003700130020008381520004
:100c100005003d008100d1000080d3008301e80081
:100c2000fcff3a0005002000c72add00f107b200f2
:100c30008580700007f0a70001f0a000000006000a
:100c4000889fbe008a9fbe008c1f7800c2ff0700ed
:100c5000c9ff330003866c006450e10024003200b9
:100c60006420e100270032006150e10022003200e0
:100c70006120e100210032008b854200eb07b100ca
:100c80000134b800003ab8000804420089844a00e0
:100c9000013ab8000030b8008880400009014a00dd
:100ca0000400330000004000818048000201490038
:100cb0008b05e900c909dd008301700001003200e5
:100cc00013002000c814de004814dd004709de00d0
:100cd0001200b200c808de000884700063ff07003d
:100ce00001f0a1000cf0a70001f0a000abff37005d
:100cf0006120e100adff32000801be000200be002d
:100d0000f7ff37006150e100fcff3a00a7ff370012
:100d1000889fbe008a9fbe000003be0079ff0700c7
:100d20008505780082815200020020006220e100e7
:100d300004003a00f307b100040035007718e10021
:100d4000040035000600be00140037006000b80043
:100d50000f003700f50f2000faff2f008502d100a9
:100d60000a85d3008301e900fcff3b008184620017
:100d700000046500890f7400f2ff32008582ea00ea
:100d80000a85ea00818462000004650037ff0700dd
:100d900007f0a70001f0a0000081eb000200e000d6
:100da0004f05be004f04be0000000600889fbe0035
:100db0008a9fbe00841f780067ff07004f007800fd
:100dc00011003300f0ff2f00838f6c0006003b0002
:100dd000040565000a00a7000800370009f0a60016
:100de0001000200008003700820f5400838f5c0041
:100df000030039001000200001003e000000200028
:100e000009f0a7000000ea004f05be004f04be0035
:100e10000000e00000000600889fbe008a9fbe0020
:100e2000008270000402710004827100260032000a
:100e30000004be000200be006011b8006b09200073
:100e4000950220000182cf000a0039000541b1005f
:100e50000082cf00070039000541b1000982cf00b0
:100e6000040039000541b1000882cf0001003900bb
:100e70000541b10005425200120032000a003b0059
:100e800082817100610164008100d1000080d30083
:100e90008984d3000884d3008b05e8000442e8006d
:100ea000f7ff3a00070037000804440089844c002b
:100eb00000004800818048008b05e9000442e900f9
:100ec000f9ff3a00e9fe07004f05be004f04be00df
:040ed0000000060018
:020000040000fa
:0200000401f009
:04001c00dfff000002
:020000040000fa
:0200000401f009
:04001800f0000000f4
:020000040000fa
:0200000401f009
:040014005f00000089
:020000040000fa
:0200000401f009
:040010006600000086
:020000040000fa
:0200000401f009
:04000c0002000000ee
:020000040000fa
:04004800c8020000ea
:020000040000fa
:04005c00dc020000c2
:020000040000fa
:04005800f4020000ae
:020000040000fa
:040054003003000075
:020000040000fa
:100ed40002010000040000006f310000693d0000c1
:100ee40051510000843d0000f7850000913d000051
:100ef400058200009b3d00004bba0000a13d0000ac
:100f04000ad70000a33d00004bba0000a13d000039
:100f1400058200009b3d0000f7850000913d000024
:100f240051510000843d00006f310000693d000014
:100f3400185f000058220000b8220000d63b0000d1
:100f4400b9270000653c00003e600000b53c00008d
:100f540062cf0000fb3c000036be0000213d0000d3
:100f6400a0eb0000443d00005d210000663d000050
:100f74001a0d0000823d0000fed400008e3d0000ea
:100f84002ce60000983d0000d2d800009f3d0000f0
:100f9400ae640000a33d0000ae640000a33d000069
:100fa400d2d800009f3d00002ce60000983d0000d0
:100fb400fed400008e3d00001a0d0000823d0000aa
:100fc4005d210000663d0000a0eb0000443d0000f0
:100fd40036be0000213d000062cf0000fb3c000053
:100fe4003e600000b53c0000b9270000653c0000ed
:100ff400b8220000d63b0000185f00005822000011
:101004006f31000069bc0000aa94000081bc00009c
:101014004c66000087bc000027c7000084bc0000a9
:10102400f07f000071bc0000bf73000045bc0000ed
:10103400a716000005bc00004300000044bb0000ec
:101044006a260000553b0000555800002b3c000068
:10105400dff40000963c0000c6820000dc3c000087
:101064007a090000123d0000fa990000353d0000a5
:1010740069b00000573d0000e70e0000773d000016
:1010840044450000893d0000878c0000943d000029
:101094009eee00009c3d000095180000a23d00005b
:1010a4000ad70000a33d000095180000a23d0000ef
:1010b4009eee00009c3d0000878c0000943d0000e3
:1010c40044450000893d0000e70e0000773d000024
:1010d40069b00000573d0000fa990000353d00005a
:1010e4007a090000123d0000c6820000dc3c0000ca
:1010f400dff40000963c0000555800002b3c000033
:101104006a260000553b00004300000044bb000079
:10111400a716000005bc0000bf73000045bc00001a
:10112400f07f000071bc000027c7000084bc0000f1
:101134004c66000087bc0000aa94000081bc00003b
:081144006f31000069bc0000de
:020000040000fa
:10114c006f02b000889fbe008a9fbe008c9fbe00bd
:10115c008e1f78002202ab00200032009560a9009f
:10116c0021638000306380002202ab0010003a0043
:10117c00180037000100e000090032008100e9008e
:10118c001001780033118000837279001001e8009f
:10119c00040861002202ab00f6ff3a000d00370094
:1011ac00301180002202ab00fdff3a00090037002d
:1011bc00808050008180ea00f13fb200f8ff3200dd
:1011cc008100e90040c6200045862000f43f200045
:1011dc00ebff37008560a9009560a80021638000b3
:1011ec0030638000808f50000c003200418620005c
:1011fc00e1407800e2e32000014978000000e800bb
:10120c00f33f200062c62000030960000141780012
:10121c00c08120000248780007003700e0e320007e
:10122c00c381200093417800034878002222ab0050
:10123c00010032002222a900e0e3200010447800d3
:10124c000880fb008000eb00a8fd0700d0af9f00da
:10125c00e1af9f00c0718800d1718800a076280092
:10126c00904078000000eb000104e0000700320021
:10127c00620064000181fb00110009000280d800ab
:10128c000000a2000000e9004f00de00c0e79f0054
:10129c00804578006180650000004000d1ff2f0080
:1012ac0062168000828060008100700061168800e8
:1012bc00b0762800904078000000eb000104e000bc
:1012cc0004003200610064000181fb001100090080
:1012dc000280d800a0e79f00804178006180610007
:1012ec0000004000d1ff2f00261680008680600091
:1012fc008100700021168800c0762800104078000c
:10130c008000eb000004e00008003200640464007c
:10131c000081fb00110009000284d8000001780054
:10132c000200a2008200e900cf08de00e1cf9f009e
:10133c00618060004200dd00b1ff2f00621680006a
:10134c00828060008100700061168800d0408000af
:10135c00e07188008000eb0064fd0700d0b79f00af
:10136c00e1b79f00a0718800b1718800e876280071
:10137c001801be002ffe07006011b800e1fc070049
:10138c0080af9f0091af9f004ac62000880578006f
:10139c008c022000080646000a0778000805780031
:1013ac000004be005e01be005a00be0021fe070014
:1013bc000001be000800be00d2fc07000004be0005
:1013cc008c0f5500f7ff3a0080af9f0091af9f0044
:1013dc0004c92000700020000100200082002000c1
:1013ec000300200085fd2f0084824200e6ff2f00c1
:1013fc00f7ff2f004211dd00028142001204be00f3
:10140c0008a2be000001be0061005000e080580040
:10141c00860f5000878f5800f6ff3a005fb0970098
:10142c00efb097004063880051638800a8792800ca
:10143c001801be00fffd07006011b800b1fc0700e9
:10144c000006be00cac820000e0920000b0747008a
:10145c005a01be005800be00f6fd07000001be0098
:10146c000c00be00a7fc07000006be008e0f540047
:10147c00f7ff3a0044cf200060012000010020005b
:10148c00720120000300200045f72f0084824200e7
:10149c00e6ff2f00f7ff2f006a0141004211dd002b
:1014ac00028142001204be0008a2be000001be0070
:1014bc0061005000e0805800860f5000878f580064
:1014cc00f5ff3a005fb09700efb09700806488009a
:1014dc00916488002a8028001a01be00d5fd0700ff
:1014ec006011b80087fc07000004be008ab79f009b
:1014fc0001cf2000a1af9f004b13b000fbaf9f00aa
:10150c000a077800bcb79f00cdb79f00b8af9f000b
:10151c00c9af9f000805be0008cf20007fae970022
:10152c005801be005e00be00c2fd07000001be00f7
:10153c000a00be0073fc07000005be008c0f5700ac
:10154c00f7ff3a003fb69700cfb697003fac970035
:10155c00cfac9700f0b79f0081bf9f0041d920000e
:10156c00520220000300200064022000050020002d
:10157c0046ed2f0001034300b8b79f00c9b79f0089
:10158c007fb597008fbd97003402b0004222dd007a
:10159c00040243001404be0088a0be000202be0078
:1015ac0061015100e0815900e8ff2f00f9ff2f0085
:1015bc00880f5100898f5900f3ff3a003fb4970010
:1015cc00cfb497000a00be005fb19700efb197004f
:1015dc00a2678800b36788000ed92000bcb79f00b3
:1015ec00cdb79f000006be000fb59700ffad97006a
:1015fc005e01be005a00be008efd07000001be0059
:10160c000800be003ffc07000004be008b0f550015
:10161c00f7ff3a00fcb79f008dbf9f003fb69700c5
:10162c00cfb6970043e320005002200001002000b9
:10163c00640220000500200046e32f000303430052
:10164c00b8b79f00c9b79f007fb597008fbd9700b3
:10165c00b404b0004222dd00040243001404be00b6
:10166c0088a1be000002be0061005000e08058005e
:10167c00e8ff2f00f9ff2f00880f5000898f5800ca
:10168c00f3ff3a003fb49700cfb49700fab79f002e
:10169c008bbf9f005fb19700efb19700a26c8800e1
:1016ac00b36c8800efc997000304e000110032000e
:1016bc004fe397000604e000080032002fe4970087
:1016cc000804e0001c0032000fad97009fad97009e
:1016dc00dab79f00ebb79f001b003700afe5970010
:1016ec000b04e00018003a00dcb79f00edb79f0038
:1016fc0015003700cfe097000104e000080032002d
:10170c002fe197000204e0000f003a007fb497002d
:10171c008fbc9700d8b79f00e9b79f000a0037002d
:10172c002fe597000a04e00007003a00d8b79f00a5
:10173c00e9b79f00040037005fa99700efa9970055
:10174c00d2b79f00e3b79f00c2ff2f005fb0970096
:10175c00efb0970015fd070066fc07000004be0003
:10176c00cd0007000004e0003e003a000800be0077
:10177c00ab0007000004e0003a003a000200200031
:10178c00033824000800be0062fc07000004be0001
:10179c006011b8000000be0037fc07000000e0003c
:1017ac0005003d000800be0001f0a20034fc07005b
:1017bc000040ea00020037000800be0030fc0700c1
:1017cc00f1e32000804878000186200011017800a8
:1017dc000181e800920178009101780004fc2f004f
:1017ec000102420000f279008301e800f303b20029
:1017fc00830878009580a9008580a90012007800e4
:10180c002322ab0011003a0001438000808f50006e
:10181c000e003200f30320000220200005042000fb
:10182c0084824200e44078008180fb002111880012
:10183c000000e800030060001611800086006100c3
:10184c0002003a00950f1000f6ff3a001043880092
:10185c0001438000808f5000040032009580a80066
:10186c00020037006044b800d3ff37004f07780000
:10187c004f06be004f05be004f04be006f02b10004
:10188c0000000600400020003e00070084c6200037
:10189c00eb000900001aeb00841db1002823ef00b7
:1018ac00a0012000201988002223ef0040442800ca
:1018bc0000198800f0f82f00aa00b6000050a00014
:1018cc005005880085a0a90095a0a80060052000ff
:1018dc00401188008000280000118800004c28006e
:1018ec00101188000000eb001043880000438800b2
:1018fc0081ff2f0052058000828060005100b300f0
:10190c00510588008580a9009580a8003063880067
:10191c002063880000002700a820b7008560a9007c
:10192c009560a80064005200810220008080400075
:10193c006011b80002a8be00810f5000fdff3a00f4
:10194c00c0c8200081082000848040006011b800cd
:10195c0002a8be00810f5000fdff3a0000cf20000e
:10196c00010a2000808040008412b0006011b80091
:10197c0002a8be0082a8be00840f5000fcff3a00f3
:10198c0000000600bf00070040408800514088005e
:10199c00b9000700a0408800b1408800af000700e4
:1019ac000040880011408800a900070060408800b2
:1019bc0071408800ae00070020408800314088004c
:1019cc00a8000700804088009140880000000600b5
:1019dc00889fbe008a1f78000004be000240800071
:1019ec0013408000a4fb07001ac0b3000000e00005
:1019fc000700320022408000334080000800be0007
:101a0c009dfb07000000e000010032000045eb00e8
:101a1c000a4078004f0578004f04be000000060015
:101a2c00889fbe008a1f78000004be0062408000c0
:101a3c007340800090fb07001ac0b3000000e00068
:101a4c000700320082408000934080000800be00f6
:101a5c0089fb07000000e000010032000045eb00ac
:101a6c000a4078004f0578004f04be0000000600c5
:101a7c00881f780018c0b3000001be00f6fb0700f9
:101a8c000000e00001003a000044eb000840780040
:101a9c004f04780000000600881f780018c0b300bf
:101aac000001be00ecfb07000000e00001003a0062
:101abc000044eb00084078004f047800000006005a
:101acc004387ab001600320043c7ab0014003a004a
:101adc00a10920000001eb008007200033742000d6
:101aec00804978008149780082497800710520008e
:101afc00120020006004200023742000804978002c
:101b0c008149780082497800000000000000000044
:101b1c0000002700123a800082006000fdff3a00ae
:101b2c00e0062000303a880050002000203a88005f
:101b3c00a10920003200200080072000337420000f
:101b4c00804978008149780082497800710520002d
:101b5c0012002000600420002374200080497800cb
:101b6c008149780082497800a00120006019880022
:101b7c00a00020002035880000302000503688005e
:101b8c00d0ff2f0000168800907f2f004016880091
:101b9c000100270000002300133a8000038160003d
:101bac00800f5100fcff3a0000022000123a800026
:101bbc0082006000fdff320032ff07001221ef00af
:101bcc00f0c32900700888008500a9009500a800c2
:101bdc000000e9005008880013e1a8001808e20092
:101bec00feff320042a0a8001808a90054fd07000f
:081bfc0042a0a900f9ff370027
:020000040000fa
:101c04001808000002000000000000001a0800008c
:101c1400020000000000000020080000480400004a
:101c24000000000000080000180000000000000090
:101c3400680c0000d8010000000000001c0800002f
:101c440002000000000000001e0800000200000066
:081c5400000000000000000088
:020000040000fa
:101c5c000000200001f8270000000600fcff070030
:101c6c00000006000000200001f82f000000060014
:101c7c00fcff0700000006000000200001fc2f0004
:0c1c8c0000000600fcff0700000006003e
:00000001FF
