:020000040000fa
:04005c005803000045
:020000040000fa
:040010005803000091
:020000040000fa
:04025c005803000043
:020000040000fa
:04021000580300008f
:020000040000fa
:04027400580300002b
:020000040000fa
:04032400580300007a
:020000040000fa
:04035000580300004e
:020000040000fa
:04022c005803000073
:020000040000fa
:04023c005803000063
:020000040000fa
:04028000580300001f
:020000040000fa
:04028400580300001b
:020000040000fa
:040228005803000077
:020000040000fa
:040278005803000027
:020000040000fa
:04029c005803000003
:020000040000fa
:04026000580300003f
:020000040000fa
:04026400580300003b
:020000040000fa
:04027000580300002f
:020000040000fa
:04027c005803000023
:020000040000fa
:040288005803000017
:020000040000fa
:04028c005803000013
:020000040000fa
:04029000580300000f
:020000040000fa
:04029400580300000b
:020000040000fa
:040298005803000007
:020000040000fa
:0402a00058030000ff
:020000040000fa
:0402a40058030000fb
:020000040000fa
:0402a80058030000f7
:020000040000fa
:0402ac0058030000f3
:020000040000fa
:0402b00058030000ef
:020000040000fa
:0402b40058030000eb
:020000040000fa
:0402b80058030000e7
:020000040000fa
:0402bc0058030000e3
:020000040000fa
:0402c00058030000df
:020000040000fa
:0402c40058030000db
:020000040000fa
:040238005803000067
:020000040000fa
:0402c80058030000d7
:020000040000fa
:0402cc0058030000d3
:020000040000fa
:0402d00058030000cf
:020000040000fa
:0402d40058030000cb
:020000040000fa
:0402d80058030000c7
:020000040000fa
:0402dc0058030000c3
:020000040000fa
:0402e00058030000bf
:020000040000fa
:0402e40058030000bb
:020000040000fa
:0402e80058030000b7
:020000040000fa
:0402ec0058030000b3
:020000040000fa
:0402f00058030000af
:020000040000fa
:0402f40058030000ab
:020000040000fa
:0402f80058030000a7
:020000040000fa
:0402fc0058030000a3
:020000040000fa
:04030000580300009e
:020000040000fa
:04030400580300009a
:020000040000fa
:040308005803000096
:020000040000fa
:04031400580300008a
:020000040000fa
:040318005803000086
:020000040000fa
:04031c005803000082
:020000040000fa
:04032000580300007e
:020000040000fa
:040328005803000076
:020000040000fa
:04033000580300006e
:020000040000fa
:04033400580300006a
:020000040000fa
:040338005803000066
:020000040000fa
:04033c005803000062
:020000040000fa
:04034000580300005e
:020000040000fa
:04034400580300005a
:020000040000fa
:040348005803000056
:020000040000fa
:04026c005803000033
:020000040000fa
:04030c005803000092
:020000040000fa
:04034c005803000052
:020000040000fa
:040218005803000087
:020000040000fa
:04023000580300006f
:020000040000fa
:04024000580300005f
:020000040000fa
:04020c005803000093
:020000040000fa
:04031000580300008e
:020000040000fa
:040208005803000097
:020000040000fa
:04021c005803000083
:020000040000fa
:04022000580300007f
:020000040000fa
:04022400580300007b
:020000040000fa
:040268005803000037
:020000040000fa
:04024c005803000053
:020000040000fa
:04025000580300004f
:020000040000fa
:04021400580300008b
:020000040000fa
:04023400580300006b
:020000040000fa
:04024400580300005b
:020000040000fa
:040248005803000057
:020000040000fa
:04032c005803000072
:020000040000fa
:04025400580300004b
:020000040000fa
:040258005803000047
:020000040000fa
:04007400580300002d
:020000040000fa
:04012400580300007c
:020000040000fa
:040150005803000050
:020000040000fa
:04002c005803000075
:020000040000fa
:04003c005803000065
:020000040000fa
:040080005803000021
:020000040000fa
:04008400580300001d
:020000040000fa
:040028005803000079
:020000040000fa
:040078005803000029
:020000040000fa
:04009c005803000005
:020000040000fa
:040060005803000041
:020000040000fa
:04006400580300003d
:020000040000fa
:040070005803000031
:020000040000fa
:04007c005803000025
:020000040000fa
:040088005803000019
:020000040000fa
:04008c005803000015
:020000040000fa
:040090005803000011
:020000040000fa
:04009400580300000d
:020000040000fa
:040098005803000009
:020000040000fa
:0400a0005803000001
:020000040000fa
:0400a40058030000fd
:020000040000fa
:0400a80058030000f9
:020000040000fa
:0400ac0058030000f5
:020000040000fa
:0400b00058030000f1
:020000040000fa
:0400b40058030000ed
:020000040000fa
:0400b80058030000e9
:020000040000fa
:0400bc0058030000e5
:020000040000fa
:0400c00058030000e1
:020000040000fa
:0400c40058030000dd
:020000040000fa
:040038005803000069
:020000040000fa
:0400c80058030000d9
:020000040000fa
:0400cc0058030000d5
:020000040000fa
:0400d00058030000d1
:020000040000fa
:0400d40058030000cd
:020000040000fa
:0400d80058030000c9
:020000040000fa
:0400dc0058030000c5
:020000040000fa
:0400e00058030000c1
:020000040000fa
:0400e40058030000bd
:020000040000fa
:0400e80058030000b9
:020000040000fa
:0400ec0058030000b5
:020000040000fa
:0400f00058030000b1
:020000040000fa
:0400f40058030000ad
:020000040000fa
:0400f80058030000a9
:020000040000fa
:0400fc0058030000a5
:020000040000fa
:0401000058030000a0
:020000040000fa
:04010400580300009c
:020000040000fa
:040108005803000098
:020000040000fa
:04011400580300008c
:020000040000fa
:040118005803000088
:020000040000fa
:04011c005803000084
:020000040000fa
:040120005803000080
:020000040000fa
:040128005803000078
:020000040000fa
:040130005803000070
:020000040000fa
:04013400580300006c
:020000040000fa
:040138005803000068
:020000040000fa
:04013c005803000064
:020000040000fa
:040140005803000060
:020000040000fa
:04014400580300005c
:020000040000fa
:040148005803000058
:020000040000fa
:04006c005803000035
:020000040000fa
:04010c005803000094
:020000040000fa
:04014c005803000054
:020000040000fa
:040018005803000089
:020000040000fa
:040030005803000071
:020000040000fa
:040040005803000061
:020000040000fa
:04000c005803000095
:020000040000fa
:040110005803000090
:020000040000fa
:040008005803000099
:020000040000fa
:04001c005803000085
:020000040000fa
:040020005803000081
:020000040000fa
:04002400580300007d
:020000040000fa
:040068005803000039
:020000040000fa
:04004c005803000055
:020000040000fa
:040050005803000051
:020000040000fa
:04001400580300008d
:020000040000fa
:04004400580300005d
:020000040000fa
:040048005803000059
:020000040000fa
:04012c005803000074
:020000040000fa
:080000000002040000000000f2
:020000040000fa
:100400004f8920000eff20000e0188000000000030
:10041000000020000000e000020032000001200087
:100420002002880014000700a30007000000e0007d
:1004300003003a0060452000010020000200370060
:100440000000200001002000810f70000100320038
:1004500014000700000020000000e000020032004d
:1004600000000200000000001c0402000000000068
:100470000040da000000fe004440a90020002000f7
:100480000000e0000300320000002000a00188000e
:100490004440a800000006008a1f78008b1f7800e7
:1004a0000000060091018800800478000000eb0045
:1004b0001a003700e284440032a0b4009905ba0063
:1004c000e284440032a0b4009906ba00e2844400f9
:1004d00032a0b4000006eb00476fde00fd07b2005b
:1004e000636ce10003003a00ebff07000000eb0043
:1004f0000a003700606ce10004003a00005deb0088
:100500008b05e900fdff3e00040037006168e10053
:10051000010032000086eb000b00070019c7ba008b
:100520001905ba000e04e00003003a000a00e000da
:10053000e0ff3a0000000600fe07b2009e018800be
:100540008a047800f5ff3700395dba008b05e900b1
:100550000c003200295dba008b05e900080032006a
:100560000c00e00003003a00e284440032a0b40032
:10057000f5ff370019ddba008b05e900faff3a00f4
:100580008904e800e184440032a0b40000000600c1
:100590003400f800881f780008002000a8018800b7
:1005a0004f0478009008a8008460a9003400f90086
:1005b0000040060000a0fe00841f78001044800068
:1005c0002322ab000f003a008008e3000d00320048
:1005d000f30720000220200001802000e140780085
:1005e0008180fb00211188000000e800030060000a
:1005f000141180008400610002003a008008e300ca
:10060000f5ff3a00104488008580a9004f02780069
:100610000080fe0000400600809fbe00829fbe005a
:1006200061448000704480008560a9002202ab0014
:1006300013003a00180037000000e0000c00320000
:100640000000e900614480003311800042882000ee
:1006500003f17800614480008100e800e7806000d9
:10066000614488002202ab00f3ff3a000a00370021
:10067000301180002202ab00fdff3a000600370077
:10068000008050000080ea0067006000f8ff320040
:100690000000e900ebff37002222ab00010032002e
:1006a0002222a9004f01be004f00be0000400600fc
:0c06b0000040da000000fe000000050021
:020000040000fa
:0200000401f009
:04001c00dfff000002
:020000040000fa
:0200000401f009
:040014005f00000089
:020000040000fa
:0200000401f009
:04001000a20000004a
:020000040000fa
:0200000401f009
:04000c00820000006e
:020000040000fa
:04003400c8020000fe
:020000040000fa
:04005800da020000c8
:020000040000fa
:040054000c03000099
:020000040000fa
:0406bc000100000039
:020000040000fa
:1006c0002202ab00200032009560a9006144800046
:1006d000704480002202ab0013003a00180037007b
:1006e0000000e0000c0032000000e90061448000de
:1006f000331180004288200003f1780061448000bb
:100700008100e800e7806000614488002202ab00bd
:10071000f3ff3a000a003700301180002202ab00dc
:10072000fdff3a0006003700008050000080ea001c
:1007300067006000f8ff32000000e900ebff3700bf
:100740008560a9009560a800704480008c08e300d3
:100750000b00320041882000e1407800228920000f
:10076000014978000000e8006700600070448800dc
:1007700001417800308920000248780007003700e6
:1007800033892000934178002089200003487800b5
:100790002222ab00010032002222a900e03528000d
:1007a000904078000000eb000104e00005003200fa
:1007b00092c8bf00610060000181fb0011000900c8
:1007c0000280d8004200dd00b1ff2f002216800019
:1007d0008280600081007000211688000000060001
:1007e0009268ef005001200040118800800028002e
:1007f00000118800803fb000101188008228ef00af
:100800008028ef0080ff2f00aa00b6005000b30040
:10081000500588008580a9009580a8008e28ef00eb
:100820008c28ef0000002700a820b7008560a900f1
:100830009560a800000006002c23ef009000200027
:10084000203588003000200050368800b0ff2f008f
:1008500000168800c03fb10040168800e0ff070086
:100860000421ef00f0ff2800a400b60000d0a00093
:10087000200588008460a9009460a80070382100d9
:10088000100888000000e9000008880005e1a800c1
:100890009008e200feff320042a0a8009008a900e4
:0c08a00087ff070042a0a900f9ff370005
:020000040000fa
:1008ac00900800000200000000000000000800009a
:1008bc009000000000000000920800000200000000
:0808cc00000000000000000024
:00000001FF
